:020000040800F2
:1000000038140220D5020008891F01088DD4000889
:100010007D150108C9210008559D01080000000058
:10002000000000000000000000000000236601083E
:100030008936000800000000D11B0008A9660108ED
:100040000F0300080F0300080F03000825550108DF
:100050000F0300080F0300080F0300080F03000838
:100060000F0300080F0300080F0300080F03000828
:100070000F0300080F0300080F0300080F03000818
:100080000F0300080F0300080F0300080F03000808
:100090000F0300080F0300080F0300080F030008F8
:1000A0000F0300080F0300080F0300080F030008E8
:1000B0000F030008A18C0108AD8C01080F03000894
:1000C0000F0300080F0300080F0300080F030008C8
:1000D0000F030008E19C01080F0300080F0300084C
:1000E0000F030008055401080F0300080F03000860
:1000F0000F0300080F0300080F0300080F03000898
:100100000F0300080F0300080F0300080F03000887
:100110000F0300080F0300080F0300080F03000877
:100120000F0300080F0300080F0300080F03000867
:100130000F0300080F0300080F0300080F03000857
:100140000F0300080F0300080F0300080F03000847
:100150000F0300080F0300080F0300080F03000837
:100160000F0300080F0300080F0300080F03000827
:100170000F0300080F0300080F0300080000000031
:100180000F0300080F0300080F0300080F03000807
:100190000F0300080F0300080F0300080F030008F7
:1001A000550E01080F0300080F03000800F002F8C5
:1001B00000F078F80AA090E8000C82448344AAF189
:1001C0000107DA4501D100F06DF8AFF2090EBAE887
:1001D0000F0013F0010F18BFFB1A43F0010318477B
:1001E00040530400605304000A444FF0000C10F820
:1001F000013B13F0070408BF10F8014B1D1108BFA5
:1002000010F8015B641E05D010F8016B641E01F844
:10021000016BF9D113F0080F1EBF10F8014BAD1C94
:100220000C1B09D16D1E58BF01F801CBFAD505E0B2
:1002300014F8016B01F8016B6D1EF9D59142D6D30C
:10024000704700000023002400250026103A28BF34
:1002500078C1FBD8520728BF30C148BF0B60704738
:10026000662932F0BD81642900F06A81752900F0A9
:100270006781782900F0A081632900F0368773290F
:1002800000F03B87002070471FB532F0A4F900F062
:1002900089FF04000020002131F08EFEE0601FBDC8
:1002A00010B510BD01F040F81146FFF7EDFF2FF03B
:1002B0008DFD01F05EF803B4FFF7F2FF03BC2CF0F4
:1002C0004AFC000030BF72B6704762B6704780F3D8
:1002D0000888704711488047DFF84400016841F4FE
:1002E00070010160BFF34F8FDFF83800016821F023
:1002F00040410160BFF36F8F0B480047FEE7FEE708
:10030000FEE7FEE7FEE7FEE7FEE7FEE7FEE7FEE7C5
:1003100006480749074A084B70470000CD660108A8
:1003200088ED00E034EF00E0AD010008380802205D
:1003300038140220380A0220380A022072B67047A8
:1003400062B67047EFF3108072B6704780F3108882
:10035000704730BF704720BF7047B0FA80F07047D9
:1003600090FAA0F0B0FA80F0704790FAA0F07047D1
:10037000704753EA020C00F069802DE9F04B4FF012
:100380000006002B1FBFB3FA83F503FA05F424FA25
:1003900005F65E4012BF1643B2FA82F502FA05F482
:1003A000C5F120051EBF22FA05FC44EA0C042035E5
:1003B00056EA044C4FEA144418BF641C4FF000087E
:1003C0004FF00009904271EB030C39D3002919BF9B
:1003D000B1FA81F701FA07F6B0FA80F700FA07F6EA
:1003E000C7F120071EBF20FA07FC46EA0C0620379B
:1003F000B6FBF4FCA7EB0507103F07F01F0BCBF192
:1004000020060CFA0BFB2CFA06F644BFB346002676
:10041000202FA4BF5E464FF0000B5BEA060C08BF1E
:100420004FF0010B19EB0B09ABFB027C48EB060804
:10043000C01B06FB02CC0BFB03CC71EB0C01C1E72C
:100440000B46024641464846BDE8F08B13B54FF0D7
:1004500000004FF00001AFF30080BDE81C40704782
:100460000FB4044910B503AA029800F04BFE10BC6B
:100470005DF814FB240000200FB41CB5074B06AA3E
:100480007B4469460090059800F00DFE0020694607
:1004900000F01CFE1CBC5DF814FB0000490C0000C1
:1004A00070B5044685690068C10601D5302600E0B4
:1004B0002026C00707D070BDD4E9012130469047FF
:1004C000206A401C20626D1EF6D570BD70B50446D2
:1004D00085690078C00707D170BDD4E901212020CB
:1004E0009047206A401C20626D1EF6D570BD70B525
:1004F0000C460546012A05D02878800600D5EA6911
:10050000002302E0012305E05B1C934202D2E05C81
:100510000028F9D1A869E618C01AA861286A184409
:1005200028622846FFF7BCFF04E0D5E9012114F852
:10053000010B9047B442F8D32846FFF7C7FF70BDC0
:100540002DE9F0410646002410687529314616A5AC
:1005500010D0AFF30080002802DA404213A507E074
:1005600031688A0701D512A502E0490704D511A513
:10057000012401E0AFF3008000210A2206F12407E4
:1005800009E0B0FBF2FCB0FBF2F302FB1C003030E0
:1005900078541846491C0028F3D123462A46304691
:1005A000BDE8F04100F012BB000000002D0000008B
:1005B0002B0000002000000070B504460D462146C7
:1005C0001068AFF300802188090502D50F4A7A44EC
:1005D00002E00E4A7A440E32002104F1240305E0C1
:1005E00000F00F060009965D5E54491C0028F7D103
:1005F00020780023000704D5702D02D009B1022312
:1006000011322046BDE8704000F0E0BA56430400C5
:100610002DE9F05F894604464FF0000ADFF874B117
:10062000FB44C0F820A02046E1688847002874D029
:10063000252806D0D4E901219047206A401C206279
:10064000F1E700265F462046E168884720280546F6
:1006500007DB312D05D2781910F8200C08B10643BC
:10066000F1E7B00701D526F00406C4F81CA0002766
:10067000C4F818A02A2D09D028462CF065FA38B302
:1006800004EB8708303DC8F8185019E059F8041BEE
:10069000204604EB87029161E1688847012F0546F7
:1006A00018D1E069002820DA26F020061DE0D8F8ED
:1006B000180000EB800005EB40003038C8F8180047
:1006C0002046E168884705462CF03EFA0028EED126
:1006D000012F0AD02E2D08D12046E16888477F1CC3
:1006E0000546022F46F02006C4DBA069002803DA85
:1006F000404246F00106A061F00701D026F0100646
:100700006C2D0BD0682D09D04C2D39D06A2D35D0E9
:10071000742D35D07A2D33D016E038E0E1682F46BD
:1007200020468847B842054609D16C2F26D04FF4A1
:100730008060E168064320468847054604E06C2F48
:100740001AD04FF4807006430DB3A5F1410019286B
:1007500002D8203546F400664A46294620462660DF
:100760004E46FFF77DFD80B101280BD0F61D26F027
:10077000070000F1080956E74020E4E78020D8E7A9
:100780000020D6E706F104094DE7284652E7206A23
:10079000BDE8F09F2C43040040EA010310B59B071D
:1007A0000FD1042A0DD310C808C9121F9C42F8D0DB
:1007B00020BA19BA884201D9012010BD4FF0FF308C
:1007C00010BD1AB1D30703D0521C07E0002010BDA2
:1007D00010F8013B11F8014B1B1B07D110F8013B2E
:1007E00011F8014B1B1B01D1921EF1D1184610BD0F
:1007F00040EA0103024630B59B0710D14FF00134A7
:1008000000E008C208C91D1B9D4315EAC41FF8D0AB
:1008100013F0FF0102F8011B0DD01B0AF8E711F8D5
:10082000013B002B02F8013B05D011F8013B002BE6
:1008300002F8013BF3D130BD10B5431C02E010F8C3
:10084000011B71B18107FAD14FF0013202C88C1A35
:100850008C4314EAC211F9D0C01A0A0603D0C01E94
:1008600010BDC01A10BD0A0401D0801E10BD0902BF
:10087000FCD0401E10BD421E12F8013F002BFBD1E0
:1008800011F8013B002B02F8013BF9D17047032A14
:1008900040F2308010F0030C00F0158011F8013B9D
:1008A000BCF1020F624498BF11F801CB00F8013B84
:1008B00038BF11F8013BA2F1040298BF00F801CB48
:1008C00038BF00F8013B11F0030300F06780083ADD
:1008D000C0F0088051F8043B083A51F804CBA0E876
:1008E0000810F5E7121D5CBF51F8043B40F8043BCB
:1008F000AFF30080D20724BF11F8013B11F801CB00
:1009000048BF11F8012B24BF00F8013B00F801CBD0
:1009100048BF00F8012B7047431A28BF9A427FF660
:10092000B6AF032A1044114440F2268010F0030FA2
:100930001EBF11F8013D521E00F8013D10F0030FDB
:100940007FF4F6AF11F0030300F00184083AC0F021
:100950000B8051F8043D083A51F804CD40F8043DAD
:1009600040F804CDFFF7F3BF121D5CBF51F8043D02
:1009700040F8043DAFF30080D20724BF11F8013DD9
:1009800011F801CD48BF11F8012C24BF00F8013D3A
:1009900000F801CD48BF00F8012C704710B5203A8F
:1009A000C0F00B80B1E81850203AA0E81850B1E828
:1009B0001850A0E81850BFF4F5AF5FEA027C24BFDE
:1009C000B1E81850A0E8185044BF18C918C0BDE8D5
:1009D00010405FEA827C24BF51F8043B40F8043B9E
:1009E00008BF7047D20728BF31F8023B48BF11F853
:1009F000012B28BF20F8023B48BF00F8012B7047AD
:100A000002F0FF0343EA032242EA024200F002B886
:100A10004FF000020429C0F0128010F0030C00F027
:100A20001B80CCF1040CBCF1020F18BF00F8012BA5
:100A3000A8BF20F8022BA1EB0C0100F00DB85FEA73
:100A4000C17C24BF00F8012B00F8012B48BF00F83F
:100A5000012B70474FF0000200B5134694469646AE
:100A6000203922BFA0E80C50A0E80C50B1F12001C1
:100A7000BFF4F7AF090728BFA0E80C5048BF0CC06F
:100A80005DF804EB890028BF40F8042B08BF7047CD
:100A900048BF20F8022B11F0804F18BF00F8012B3F
:100AA000704700004FF0013C50F8042B51F8043B14
:100AB0009A4221D1A2EB0C03934313EACC1317D132
:100AC00050F8042B51F8043B9A4215D1A2EB0C03C9
:100AD000934313EACC130BD150F8042B51F8043B89
:100AE0009A4209D1A2EB0C03934313EACC13DBD057
:100AF0004FF00000704700BFD01A01BAB1FA81F17F
:100B000001F0180122FA01F0CB40C1F12001DBB263
:100B1000C0B2C01A2CFA01F3D11A914311EAC311E1
:100B2000E6D17047704770477047704730B5B0F1F5
:100B30000A024FEA900E71F100034EEA817EB0EB9B
:100B40000E0061EB91014FEA101E4EEA017E10EBA0
:100B50000E0041EB11114FEA102E4EEA016E10EB20
:100B60000E0041EB11214FEA104E4EEA014E10EB00
:100B70000E0041EB1141401841F100014FEAD00055
:100B800040EA41704FEAD10110EB80054FEA810441
:100B900044EA907444EB01046D1944EB0404521BC5
:100BA000A3414FF0000348BF0A3200D530BD401CBE
:100BB00041F1000130BD10B500F0F8FA006810BD39
:100BC00010B5044600F0F2FA046010BD2DE9F047BC
:100BD0000D4699469246044600F1240801688806AD
:100BE00004D5E06921F01001216000E00120A84255
:100BF00001DD471B00E00027A1697A1902EB09001B
:100C0000081AA0612078C00602D42046FFF748FCED
:100C1000002608E0D4E901211AF806009047206A6E
:100C2000401C761C20624E45F4DB2078C0060AD5B5
:100C30002046FFF735FC06E0D4E90121302090473B
:100C4000206A401C2062381EA7F10107F4DC07E08F
:100C5000D4E9012118F805009047206A401C206261
:100C6000281EA5F10105F3DC2046FFF72FFC2078B4
:100C7000000602D50220BDE8F0870120FBE770479F
:100C80002DE9FF4F0C461E464FF0FF378BB0D2E9DF
:100C90000001DDF860800A908A46C1F30A5505B963
:100CA0003D46002108464FF00000BAF1000F00F465
:100CB000400005DA00EB80004FF4400101EA5000EB
:100CC0004FEA9059B9F1010F00DDB9460A9850EA90
:100CD0004A000ED044F61050A5F2FF3545432F14BC
:100CE000B8F1000F1ED07542291E1EDDC9F10002A9
:100CF0001CE0B8F1010F4FF0000001D0302103E0FB
:100D0000F24305E02154401CB042FBDB3046002298
:100D1000002121540B99C1F80880C1E900200FB0CF
:100D2000BDE8F08FBD1B6D1CDEE74A4600DA694264
:100D300006A800F07FFA06AB93E8070003AB83E850
:100D4000070050460A9900F01DFB8DE80700A0F54A
:100D500000501F3800900398002D0ADD42F21F0159
:100D60004A460844002303A90390684600F086FD24
:100D700009E0A0F500504A461F38002303A903905C
:100D8000684600F090FD8DE807000004000C03D0D9
:100D90004FF0FF30410800E01046B8F1000F03D0DB
:100DA0000022009215461EE0751E05D4FFF7BEFE18
:100DB000303262556D1EF9D5B3460122084302D088
:100DC00000227F1C04E02078302801D100227F1E01
:100DD000002A099784D01DE0112D07DAFFF7A6FE3F
:100DE000303262556D1C50EA0102F5D1084302D041
:100DF0000098C8B10EE00021681E05E0235C625C2B
:100E000063542254401E491C8142F7DBAB46A81BA9
:100E1000401E0990002004F80B000B98099AC0F8B6
:100E20000880C0E9002B7AE711264FF0000857E749
:100E30002DE9F04F88460446D21D22F0070191B0FB
:100E4000D1E90001CDE90A012AF09BFA02460B988C
:100E5000C00F01D02D2007E02068810701D52B208D
:100E600002E0202101EAC000032A099001D0072AEC
:100E700005DB03464146204600F09CF90BE1207853
:100E8000800601D5E06900E00620B8F1650F8146D3
:100E900006D0B8F1660F18D0B8F1670F70D131E005
:100EA0000020B9F1110F009001DB112301E009F1DD
:100EB00001030AAA01A90CA8FFF7E2FEDDE90C7004
:100EC000002609F10105834647E001204B460090CA
:100ED0004FF000470AAA01A90CA8FFF7D1FEDDE9EF
:100EE0000DB00C995D46002610B909F101000D18EE
:100EF000B9EB050003D4C0F1FF3609F10105A5EBFC
:100F000009002BE0B9F1010F01DA4FF001090020CF
:100F1000B9F1110F0090484601DD112300E00346AE
:100F20000AAA01A90CA8FFF7ABFEDDE90C704D463B
:100F300000268346207800070AD4AB4500DA5D46D8
:100F400001A8012D04DD411911F8011C302907D039
:100F50004F4502DA17F1040F04DA012082460FE050
:100F60006D1EEEE7002F02DCED1B3E4403E0781C13
:100F7000A84200DD7D1CB81B00F1010A4FF00047BC
:100F80002078000703D4AA4501DB4FF0FF3A002187
:100F9000B7F1004F0DF143088DF8431024D0022023
:100FA0002B23002F01DA7F422D230A21021EA0F1FC
:100FB000010000DC5FB197FBF1FC97FBF1F201FB54
:100FC0001C7C17460CF1300C08F801CDEEE7A8F1B7
:100FD000010003702188090501D5452100E0652144
:100FE000A0F1010800F8011C09980FA9A1EB08075E
:100FF000FF1D00B10120411901EBEA70A1693844DD
:10100000081A401EA0612078C00602D42046FFF7CF
:1010100047FA099828B1D4E901219047206A401C79
:1010200020622078C00622D52046FFF739FA1EE05C
:10103000002E04DBB34502DD01A8805D00E0302016
:10104000D4E901219047206A401C2062761CAAF155
:1010500001005FEA000A0AD100F0A4F8C068016844
:10106000405CD4E901219047206A401C2062281E80
:10107000A5F10105DCDC07E0D4E9012118F8010B3A
:101080009047206A401C2062381EA7F10107F3DC5C
:101090002046FFF71BFA032011B041E601694A1C04
:1010A00002610878704700B58FB0CDE901310021A9
:1010B000059105497944CDE9031011466846FFF7CB
:1010C000A7FA0FB000BD0000E5FFFFFF0A6802F8B5
:1010D000010B0A60704710B5436913B1AFF300808C
:1010E00001E0FFF704FA012010BD127800F124019D
:1010F0000A7000224A700122EDE711684FF0FF32BA
:10110000E9E70000074B70B50D467B44FFF7CBFFC6
:101110000446284600F000F910B14FF0FF3070BDD2
:10112000204670BDDFE00200431A28BF9A427FF6D6
:1011300035AC104410F0030F11441EBF11F8013DEF
:10114000521E00F8013D10F0030F7FF4F6AF103A85
:10115000C0F00A8010B531E91850103A20E9185053
:10116000BFF4F9AFBDE81040530724BF31E90810C0
:1011700020E9081044BF51F8043D40F8043D12F046
:10118000030F08BF7047D20728BF31F8023D48BFA0
:1011900011F8012C28BF20F8023D48BF00F8012CAF
:1011A0007047000000487047F80702200048704769
:1011B000D80702202DE9F0411F46044603260168A6
:1011C000072A01F4006004DB08B116A505E016A5A6
:1011D00003E008B115A500E015A521F0100020607E
:1011E000A069C01EA0610FB1401EA0612046FFF79C
:1011F00057F94FB1D4E9012138469047206A401C85
:101200002062C01C206206E0206AFAE7D4E90121CE
:1012100015F8010B9047761EF8D22046FFF756F9D5
:10122000BDE8F0814E414E006E616E00494E4600B1
:10123000696E66002DE9F047814616468AB035484A
:1012400078440DC88DE80D0032487844801C03AC0A
:101250000DC884E80D0041F69B300844372190FB0F
:10126000F1F290FBF1F5A5F1800501FB12041B3CA6
:1012700002D56442012000E00020DFF898A08046FB
:101280000027FA44AAF1BE0A0EE0E0070AD032466F
:10129000684607EB470101230AEB810100F003FBDD
:1012A0008DE8070064107F1C002CEED1194F7F449D
:1012B000AE3F19E0E80715D007EB04100DF1180A4E
:1012C00090E80E008AE80E00C068F04201D198193B
:1012D00008903246012306A903A800F0E4FA03AB04
:1012E00083E807006D10641C002DE3D14FF001036B
:1012F00032466946B8F1000F03A802D000F0BEFAEA
:1013000001E000F0D0FAC9E90001C9F808200AB0EC
:10131000BDE8F0879C370400007B00F08000704738
:1013200000487047D80702207546FFF7F9FFAE4620
:1013300005006946534620F00700854618B020B5E1
:10134000FEF7E6FFBDE820404FF000064FF0000733
:101350004FF000084FF0000B21F00701AC46ACE85D
:10136000C009ACE8C009ACE8C009ACE8C0098D46CA
:10137000704710B50446AFF300802046BDE810402A
:10138000FEF799BF5FEA400C08BF91F0000F4FEAEB
:101390008C234FEAC12243EA51514FEA1C5018BF37
:1013A00000F5F0404FEA300018BF41F000415FEA1D
:1013B0006C5C00F02980BCF1FF3F08BF40F080402A
:1013C0007047130C06BF12044FF0100C4FF0000CC6
:1013D000130E04BF12020CF1080C130F04BF12010C
:1013E0000CF1040C930F04BF92000CF1020CD30F0C
:1013F00004BF52000CF1010C11464FF00002A0F1A5
:101400001F00A0EB0C00704711F0004F08BF7047A1
:1014100031F000413FF4D5AF0B0C06BF09044FF08B
:10142000100C4FF0000C0B0E04BF09020CF1080C5D
:101430000B0F04BF09010CF1040C8B0F04BF8900D2
:101440000CF1020CCB0F04BF49000CF1010CCCF1E4
:101450002003A0EB0C0022FA03F302FA0CF241EA9B
:10146000030100F10100704720F07F4C80EA030087
:1014700023F07F47ACEB070303F57C5300F00040FB
:1014800003F1FF032DE980494FEA154B09B44FEAF8
:10149000144325EA0B4E24EA03480FF2042606EB18
:1014A000132749083E785FEA320203FB0667C7F557
:1014B000000707FB06F64FEA54374FEAD64606F117
:1014C000020607FB066CCCF1005C4FEA1C472CEAD5
:1014D000074C07FB06F40CFB06F504EB15464FEA38
:1014E000961634BF00204FF000404FEAD13706FB7C
:1014F00007FC4FEA1C4C0CFB0BF7D21B03FB0CF751
:1015000061EB07010CFB0EF7B0EB074072EB1742E3
:101510000CFB08F734BFA2EB0742B2EB074261EBCA
:1015200017414FEA0C444FEA910706FB07FC4FEACC
:101530001C4C0CFB0BF7B0EBC74072EB573203FBB4
:101540000CF734BFA2EBC742B2EBC74261EB573195
:101550000CFB0EF7B0EBC70072EB57720CFB08F7F1
:1015600034BFA2EBC702B2EBC70261EB5771039F16
:101570004FEA816141EA921104EBCC044FEAD13782
:101580004FEA826206FB07FC42EA90124FEA806053
:101590004FEA1C4C0CFB0BF7D21B03FB0CF761EB67
:1015A00007010CFB0EF7B0EB074072EB17420CFB88
:1015B00008F734BFA2EB0742B2EB074261EB1741D9
:1015C0004FEA8C554FEA910704EB9C2406FB07FC7D
:1015D0004FEA1C4C0CFB0BF7B0EBC74072EB5732D9
:1015E00003FB0CF734BFA2EBC742B2EBC74261EB7F
:1015F00057310CFB0EF7B0EBC70072EB57720CFBC8
:1016000008F734BFA2EBC702B2EBC70261EB577118
:1016100015EB4C254FEA816141EA92114FEA826253
:101620004FEAD13742EA901206FB07FC44F100046E
:101630004FEA80604FEA1C4C0CFB0BF7D21B03FBFC
:101640000CF761EB07010CFB0EF7B0EB074072EBF8
:1016500017420CFB08F734BFA2EB0742B2EB07427C
:1016600061EB174115EB1C154FEA813141EA9241BC
:101670004FEA823242EA90424FEA80304FEA0C76DB
:1016800044F1000448EA03434EEA0B484FF0000ED1
:10169000B2EB080C71EB030724BF624639464EEBF0
:1016A0000E0E4FF0000B0018524149414BEB0B0B53
:1016B000B2EB080C71EB03077BF1000B24BF624611
:1016C00039464EEB0E0E4FF0000B001852414941C7
:1016D0004BEB0B0BB2EB080C71EB03077BF1000B30
:1016E00024BF624639464EEB0E0E51EA020718BF80
:1016F00046F0010616EB0E7655F1000254F100019A
:1017000003D5BDE88901BDE80088BDE88901BDE8D1
:101710000048B619524141EB0101A3F101037047A2
:1017200080807F7E7D7C7B7A79787776767574731E
:10173000727171706F6E6E6D6C6C6B6A6A696868DD
:10174000676666656464636362616160605F5F5E73
:101750005E5D5D5C5C5B5B5A5A59595858575756E9
:10176000565555555454535352525251515050504E
:101770004F4F4F4E4E4D4D4D4C4C4C4B4B4B4A4AA0
:101780004A494949484848474747474646464545E4
:10179000454444444443434343424242424141411D
:1017A000002B9C4630D477002BD01CB54FEA37076E
:1017B00003B44FF010004FF01001BAF1000F06D043
:1017C000BCF1000FDCBF40F0080040F008014FF012
:1017D00000000FBCBDE810400BF1010BBBF1010F85
:1017E00008BF5FEA170722BF12F1010211F10101E0
:1017F0004FF0004143F1000300F0004043EA0000D5
:101800007047F9D35708D0E746EA064613F1400F70
:101810004FEA16461FDD13F1200FDFBF16430A46BD
:10182000002120335B42BED0C3F1200746EA0646C2
:1018300002FA07F74FEA164646EA0706C3F1200701
:1018400022FA03F201FA07F721FA03F14FF000033D
:1018500042EA0702A7E746EA020646EA06464FEAD8
:10186000164646EA0106BCBF46EA0646360C4FF06D
:1018700000034FF000024FF0000194E72DE9804C87
:101880009A46934670B491E8380007C831EA400C94
:1018900048BF34EA430C03D5FFF7E6FDFFF780FFAE
:1018A000F0BCBDE8008C2DE9804C9A46934670B49C
:1018B00091E8380007C810F0804F08BF13F0804F40
:1018C00003D100F005F8FFF76BFFF0BCBDE8008C1A
:1018D00020F07F4780EA030023F07F4C07EB0C03E6
:1018E000A3F57C5300F00040A3F1FE0392F0000F3B
:1018F00000F0B38095F0000F00F077802DE90149EA
:101900004FEA11404FEA144621EA004800FB06FC6A
:1019100024EA064708FB06F607FB08F800FB07F772
:1019200018EB06484CEB164C4FEA124B18EB0748E5
:101930004FEA15464CEB174022EA0B4E0BFB06FC18
:1019400025EA06470EFB06F607FB0EFE0BFB07F724
:101950001EEB064E4CEB164C4FF000061EEB074EEE
:101960004CEB174B18EB0B0840F1000018EB0E0B7B
:1019700058EB000840F100008F1A4FF000013CBF07
:10198000C943661B14BFB5EB040C00213CBFC9431F
:10199000F61B4FEA17444EEA8E0E27EA04454FEA3B
:1019A0001C4704FB07622CEA074C05FB07F70CFBFE
:1019B00005F604FB0CFC16EB074642EB174216EB50
:1019C0000C4642EB1C421BEB060658EB020241415F
:1019D00046EA9E0601D5BDE80189B619524141EBA0
:1019E0000101A3F10103BDE801894FEA14454FEA63
:1019F000114724EA054621EA074C05FB07F406FBDC
:101A000007F70CFB06F105FB0CFC11EB074144EB5F
:101A100017444FEA124711EB0C4144EB1C4422EAF5
:101A2000074C05FB07F206FB07F70CFB06F605FB68
:101A30000CFC16EB074642EB174216EB0C4642EB4A
:101A40001C456A1854F1000148BF7047B61952414D
:101A500041EB0101A3F10103704795F0000F37D06E
:101A60004FEA11424FEA144721EA024624EA074CA2
:101A700002FB07F106FB07F70CFB06F402FB0CFC6C
:101A800014EB074441EB17414FEA154714EB0C44A4
:101A900041EB1C4125EA074C02FB07F506FB07F763
:101AA0000CFB06F602FB0CFC16EB074645EB174554
:101AB00016EB0C4645EB1C42121951F1000148BFD0
:101AC0007047B619524141EB0101A3F10103704780
:101AD0004FEA14454FEA114724EA054621EA074C2C
:101AE00005FB07F106FB07F70CFB06F24FF00006BB
:101AF00005FB0CFC12EB074241EB174112EB0C42C9
:101B000051EB1C4148BF7047921841EB0101A3F112
:101B100001037047EFF3098141B1F1EE101A40F86B
:101B2000041D20ED200A3E490A6810607047B0ECA1
:101B3000200A02C8E1EE101A3A490A68106070479C
:101B400072B64EF62250CEF2000040F2FF01C0F213
:101B5000000101704FF0000080F3098811F072FB62
:101B600040F27030C2F20000016881F3088840F250
:101B7000FA20C2F2000040F2FB21C2F200010A7812
:101B8000027040F26835C2F2000540F26C31C2F2D8
:101B900000010A682A60106880F30988EFF3148056
:101BA00040F0020080F31488BFF36F8FBDE8F00FA0
:101BB0000FBCBDE8005006BC62B608471A484FF09B
:101BC00080510160704718484FF0805101607047A4
:101BD00072B6EFF3098020E9F00F40F26835C2F2E7
:101BE00000052E683060744611F02CFB40F2FA209C
:101BF000C2F2000040F2FB21C2F200010A7802703A
:101C000040F26C31C2F200010A682A6044F0F40E1E
:101C10001068B0E8F00F80F3098862B670470000E2
:101C2000680300206C03002004ED00E02DE9F04182
:101C30000D460146002004464E1908E00702301BFD
:101C4000401E80B200F007F8641C3844E4B2AC4295
:101C5000F4D3BDE8F08110B504460BF013FD200A63
:101C6000A02101EB4000C0B20BF0DCFC0BF04CFDFE
:101C7000E0B20BF0D7FC0BF047FD0BF003FDA12009
:101C80000BF0D0FC0BF040FD00200BF097FC04465D
:101C90000BF018FD204610BD2DE9F04116460D460B
:101CA0000746002409E0E00025FA00F0C1B2381927
:101CB00080B200F006F8641CE4B2B442F3D3BDE88D
:101CC000F08170B50D4604460BF0DCFC200AA02123
:101CD00001EB4000C0B20BF0A5FC0BF015FDE0B22B
:101CE0000BF0A0FC0BF010FD28460BF09BFC0BF05A
:101CF0000BFD0BF0E7FCBDE870400A202BF00ABAA0
:101D0000154810B5016886B041F001010160006816
:101D1000124C00F00100059040200090012001903D
:101D20000290032003906946204608F0D7FB00226A
:101D30004021204608F0C0FC01224021204608F046
:101D4000BBFC4FF496702BF0E5F9002240212046B1
:101D500008F0B2FC06B010BD30380240000002406E
:101D600038B5456804460146284618F0ADF9002804
:101D70002BD02068304A11280DD006DC0B2825D046
:101D80000E2833D00F2852D112E0282849D0B0F5C0
:101D9000107F4CD108E09268002A16D021462846D0
:101DA00001B0BDE830401047214628465268F7E7A9
:101DB000284604F081F80090406E0468684604F0FC
:101DC000E5F8002C01D02846A04738BD284604F08D
:101DD00073F80090683003F0C5FF009803216C3061
:101DE00003F0CEFF684604F0D1F820E0E1684868CF
:101DF00009680D2902D0202913D105E0002810DD43
:101E0000284625F055FE06E0002804DD2846BDE8FA
:101E1000384025F04DBE2846BDE83840022125F067
:101E20005DBEE06818B90021284600F097F9204609
:101E3000BDE8384018F084BD54050020F0B50446D4
:101E400085B08069B4F90850668A0027CDE902653B
:101E5000CDE900170490B4F90C00B4F91060C11872
:101E6000B4F90A00B4F90E50104433462A4600F083
:101E700007F80546616800F07AF905B02846F0BD1C
:101E80002DE9F04F85B01F46DDE911B4DDE90E56AE
:101E900090468946824605F0BFFD16484C34CDE990
:101EA0000204CDE900563B4642464946504618F0EA
:101EB0008FFC040018D003F0FFFF10225946049055
:101EC00018F0D4FA049830220B493430FEF766FD3E
:101ED000094D04990C3D2868486604A804F056F89A
:101EE000286841682046884707F002FA05B0204676
:101EF000BDE8F08F611D000860050020F0B50446C4
:101F000080688B4989B051F82050606800287DD0E6
:101F1000052804D006287AD0122879D1AEE0E869E5
:101F200000284FD095E80E008DE80F0004F1100155
:101F30000FC907F079FE002655F8260006F02BFCA5
:101F4000A169E8690A1A216901446069304404F012
:101F500081FEA169E8690A1A21690144E069801BD0
:101F600004F078FEE169E8690A1A616901442069B0
:101F7000304404F001FFE169E8690A1A616901442B
:101F8000A069801B04F0F8FE761C022ED4DBA86842
:101F900006F001FCE069E9696669431A20694218A4
:101FA0003144801C521E04F043FFE169E869A269D4
:101FB0000B1A61690144101A401C921E04F038FF8C
:101FC000EE6913E05FF0000655F8260006F0E3FB2B
:101FD000E069831BA069821B606981192069304414
:101FE00004F08AFE761C022EEEDB0226D5E9030100
:101FF000CDE900016169E06908444310A069891CCA
:10200000821B2069304404F0E9FD02E089E012E01F
:102010008AE0D5E90501CDE90001E36960690121A4
:10202000184401EB6001A0699B1E821B20693044AB
:1020300004F0D4FD78E0206803F03EFF04902068AF
:102040001AF0C8F840B1A06808B1002008E0049870
:10205000006F28B1012003E00498406F00B1022016
:10206000049901EB8000C56E04A803F08FFF0023E4
:102070001A462846216804F0F9FA55E0206803F072
:102080001BFF0490866EEEB3B0F95C70A168D1B30B
:10209000032942D05FF0000100EB8101406D0C6C20
:1020A00006F096FB204606F076FB05A804F082FFBA
:1020B000BDF81410A88B0144ADF81410BDF8181029
:1020C000081AADF81800BDF81600801CADF816000F
:1020D000BDF81A00801EADF81A000498B0F960200F
:1020E000B0F95E1005A806F0A5F904A803F04EFFAC
:1020F000022006F0D1FC304603F0DEFE3A4605A988
:10210000079001E00BE006E004F0F0FB0DF11C008D
:1021100003F03CFF08E00121BEE70221BCE704A870
:10212000F6E7206819F08CFC09B00020F0BD000033
:10213000283F040838B50D4604000ED005F06CFCAD
:10214000204603F0B9FE00904565684603F01EFF87
:10215000204619F061F907F0CBF838BD4FF48072D2
:102160000029114601D018F043B817F08DBF2DE9B2
:10217000FF410E4605004FF0010421D005F04CFC54
:10218000284603F099FE0190876E01A8009703F09E
:10219000FDFE3146684608F02BF878B1009800241F
:1021A000B84208D0284603F087FE01900099816666
:1021B00001A803F0EBFE284619F02EF907F098F875
:1021C00004B02046BDE8F081FEE7F8B54468054656
:1021D0000146204617F078FF002836D028680B28E3
:1021E00039D00E2805D00F2821D0B0F5107F3CD172
:1021F0002CE0204603F060FE009010F8746F4778E2
:10220000684603F0C3FE204619F0E4FF10B3E86807
:102210004168002929DD0068202826D17F1CB7FBF2
:10222000F6F006FB1071204600F045F91DE025464A
:10223000204603F041FE0090006F0468684603F0FA
:10224000A5FE002C01D02846A047F8BD294620460F
:1022500026F084F809E0204603F02EFE0090783046
:1022600003F080FD684603F091FE2846BDE8F84083
:1022700018F066BBF0B585B0B0F90850468A84699D
:102280000296CDE903540027CDE90017B0F90C10F0
:10229000B0F91050B0F90E40B0F90A0019441044DA
:1022A0002B46224600F002F805B0F0BD2DE9F04FB4
:1022B00085B01D46DDE90E9716468A468346DDF851
:1022C000488005F0A9FB254C0EB135B10AE0206825
:1022D0008068006880470646F7E7206880680068E5
:1022E000804705461D486FF07041001DC068884258
:1022F00001D147F0010708F15400194ACDE9022045
:10230000CDE900972B4632465146584618F060FA00
:1023100005001CD003F0D0FD10220490119918F094
:10232000A5F80E4904983C22091D3430FEF736FB0F
:10233000049821680167022180F874100F21C16799
:1023400004A803F023FE206841682846884706F069
:10235000CFFF05B02846BDE8F08F0000140800202C
:10236000CB2100082DE9FF470446006810B119F0A1
:1023700031FF68B10022314850F8221060680A2805
:1023800041D007DCF0B306280DD0072854D106E071
:102390000122F0E712280AD019284DD137E0204653
:1023A0001DF030FA48E020461FF01EFE44E0206891
:1023B00003F082FD0290B0F9548090F85650476CBB
:1023C000466B02A803F0E2FD206800F039F8814670
:1023D000684618F0D5FBBDF8001009EB050008446D
:1023E000ADF80000246A304606F0F2F9022006F04B
:1023F00053FB384606F0CFF942466946204604F0C2
:1024000075FA19E007E0204620F040FA14E08869E8
:1024100004B0BDE8F087206819F012FB206803F0D3
:102420004BFD0390B0F90610B0F90220891A491C3F
:10243000C16703A803F0AAFD0020E9E704490408E6
:1024400038B5044605F0E8FA204603F035FD009063
:10245000C46F684603F09AFD06F04AFF204638BD77
:1024600038B505004FF000040CD005F0D5FA284629
:1024700003F022FD009090F87540684603F086FD59
:1024800006F036FF204638BD38B50C46050011D0A1
:1024900005F0C2FA284603F00FFD0090416BA142FF
:1024A00003D04463284618F0B7FF684603F06EFD7A
:1024B00006F01EFF38BD38B50C4605001BD005F0F0
:1024C000ABFA284603F0F8FC009090F87410A14293
:1024D0000CD980F87540684603F058FD284618F07E
:1024E0009BFF0521284619F057F802E0684603F0E3
:1024F0004DFD06F0FDFE38BDFEB50D46040022D0B0
:10250000002D20D005F088FA204603F0D5FC01907C
:10251000866F01A8009603F039FD2946684607F04A
:1025200067FE70B10098B04208D0204603F0C4FCAA
:1025300001900099816701A803F028FD204618F05A
:102540006BFF06F0D5FEFEBD00B589B024216846BC
:10255000FEF780FA192001900348006880684168FE
:102560006846884709B000BD140800207CB5214C9E
:102570000546216831F8220F4A8D104408804888AA
:10258000CA8D10444880284604F0EEFC2168498C2E
:10259000ADF800104618284607F0F0FC3044401E05
:1025A000ADF8040004F028FE2168898CADF8021013
:1025B0000844401EADF80600684619F097FC04E098
:1025C000284602F095FE19F045FC0028F8D10A2DA6
:1025D00004D0BDF804002168401C4884206830F80D
:1025E000221F428D891A01804188C28D891A41803B
:1025F0007CBD000084040020054910B5002048601F
:1026000000F0A6F800F006F8BDE8104000F086B82B
:10261000800200202DE9F041104F002635463E8013
:102620007E80BE60FE607E61BE613E61FDF78AFE17
:10263000804600247E6100F049F800F057F8786980
:10264000641C24040544240CF4D0C7E90456404615
:10265000BE61BDE8F041FDF779BE000080020020B8
:1026600003490969884201D9401A70470020704720
:102670008002002010B5FDF765FE04494C69FDF7A6
:1026800065FE2046BDE81040FFF7EABF800200204B
:1026900010B5FFF7EFFF0446FDF754FE034A002193
:1026A0005161FDF753FE204610BD0000800200205E
:1026B00010B5FDF747FE04498C69FDF747FE20463B
:1026C000BDE81040FFF7CCBF8002002010B5064CDB
:1026D0002088401C2080608810B900F051F8A0606C
:1026E0006088401C608010BD8002002010B50A4C3C
:1026F0006088401E0004000C60800CD100F040F89F
:10270000E060A168401A6169814200D26061A169FC
:10271000814200D2A06110BD8002002010B5FDF7FB
:1027200011FE0446FFF7D2FF102105480EF027FFE7
:10273000FFF7DCFF2046BDE81040FDF707BE0000B4
:10274000881801200149486070470000800200207D
:1027500010B508F06DFE08490A6842F080720A6000
:10276000064900224A600A6842F001020A60BDE898
:102770001040FFF7E7BF0000FCED00E0001000E0B4
:102780000148406870470000001000E070B50E4C32
:102790000025C4F898520D48016821F0C00101607D
:1027A000016841F0400101600948C0F88C520220E4
:1027B00004F526742AF0D6FC0120206002202AF0BD
:1027C000D1FC256070BD0000008043420020024023
:1027D00000004442154810B5016886B041F0800100
:1027E0000160016801F080010591016841F4807188
:1027F00001600068012400F4807005904020CDE95C
:1028000000040320CDE902406946094807F066FE4E
:10281000082000906946074807F060FE0648C0F8A7
:102820008C420648C0F8984206B010BD30380240CD
:10283000001C02400020024000004442008043424D
:1028400070B50E4C0026C4F898620D48016821F05E
:10285000C0010160016841F04001016009480125A3
:10286000C0F88C52022004F526742AF07BFC256007
:1028700002202AF077FC266070BD000000804342F1
:1028800000200240000044422DE9F04782461948EA
:102890000024016821F0C0010160016801601E2070
:1028A0002AF060FC0025144EDFF850902F464FF0C0
:1028B0000108C6F8987202202AF054FCC6F89882E3
:1028C0006006040ED9F80C0208B1641CE4B20220C0
:1028D0002AF048FC6D1CEDB2082DEAD3BAF1000FC6
:1028E00004D0FFF753FF2046BDE8F087FFF7A8FFAD
:1028F000F9E700000020024000804342000044420B
:102900002DE9F04705461648016821F0C001016035
:10291000016841F040010160124E0027C6F898722C
:1029200002202AF01FFCDFF8408000244FF001094C
:10293000E909C8F88C126806050E02202AF012FC7C
:10294000C6F8989202202AF00DFCC6F89872022070
:102950002AF008FC641CE4B2082CE9D3BDE8F08737
:1029600000200240008043420000444270B50F48FE
:10297000016821F0C0010160016841F0400101607F
:102980000B4E0120C6F88C020A4DC5F898021E2095
:1029900005F5267506F523762AF0E4FB002434605D
:1029A00002202AF0DFFB2C6070BD000000200240F6
:1029B000000044420080434270B50F48016821F096
:1029C000C0010160016841F0400101600B4E002030
:1029D000C6F898020A4DC5F88C021E2005F523752D
:1029E00006F526762AF0BEFB0124346002202AF088
:1029F000B9FB2C6070BD0000002002400080434203
:102A00000000444270B511480024016821F0C00163
:102A10000160016801600E4D0120C5F88C020D4E69
:102A2000C6F8980207E0641CE4B2FA2C03D9FFF759
:102A3000C3FF012070BD02202AF094FBD5F80C02E0
:102A40000028F0D1C6F8980270BD000000200240B6
:102A50000000444200804342FEB515460C4606463F
:102A600007F0B6FC0B4FC6EBC60257F8223000FB4E
:102A7000043100FB053007EB820400232269CDE915
:102A80000023029302463046E36800F085F9A56012
:102A9000FEBD0000C43501202DE9FE4F9846DDE95A
:102AA0000C9416460F460546DDF838A007F090FC5A
:102AB00002461149C5EBC50051F820C001EB80006A
:102AC0004168C36802FB01C106FB037746694068A1
:102AD00007FB061102FB00C709FB038000FB06721F
:102AE000181B0026CDF800A0CDE901062346284694
:102AF00000F052F9BDE8FE8FC43501202DE9F04702
:102B00001D46DDE9086A14460F46804604F05AFB6C
:102B1000012831D0ED1B361B40466D1C761C07F09A
:102B200057FC0146214BC8EBC80053F8202003EBAB
:102B30008000836801FB0322C168406904FB0173C4
:102B400003FB00274046A1EB0509D04600240BF00B
:102B5000D5FC1849164A0A60C1F83880CF63C1F81D
:102B60004090486365F31F464E64086840F00100DA
:102B700008604FF4001214E00022192140460CF0C6
:102B8000BDF833462A46214638460BF0C1FA404686
:102B9000BDE8F047084A19210CF0B0B8641C944213
:102BA00002D20868C007F9D1BDE8F087C43501201A
:102BB0000002030000B00240FD2A000838B50324DB
:102BC000009400F0B5F838BD38B50424009400F046
:102BD000AFF838BD38B50024009400F0A9F838BD2E
:102BE00038B50024009400F0A3F838BD1CB517F0E8
:102BF000F5FF0346002000900190034A102103488E
:102C000003F00AFC1CBD0000E1B7020854A9030848
:102C10001CB517F0E3FF0346002000900190034A23
:102C20000D21034803F0F8FB1CBD00005DBA02084B
:102C300014AB03081CB517F0D1FF03460020009029
:102C40000190034A0921034803F0E6FB1CBD000084
:102C5000F9BB020880AC03081CB517F0BFFF0346A0
:102C6000002000900190044A1221044803F0D4FB94
:102C7000034988601CBD0000FDBC02087CAD030850
:102C8000200400201CB517F0A9FF03460020009087
:102C90000190034A4921034803F0BEFB1CBD00001C
:102CA0003DBF020874AF030870B515460E461C46BA
:102CB0001A460A490AF06AFD2246094930460AF0D6
:102CC00065FD2346074A0649044800F00DF82246F0
:102CD0002946BDE8704003480AF058BDE075012060
:102CE000E0B50120E035012070B5104D0E4E0024F6
:102CF0002E60E8606961EA632C61AC612C64EC6170
:102D00006C626C63012000EB03406864286840F04B
:102D1000010028604FF4001102E0641C8C4202D2D2
:102D20002868C007F9D170BD0002020000B002405F
:102D3000F8B50E4614460649069D0AF02EFD2B46B0
:102D4000002231460248009400F004F8F8BD00006B
:102D5000E0350120F0B50F4D4FF48137059E00247A
:102D60002F60E860E9632C612C64EA616B630120E9
:102D700000EB06406864286840F0010028604FF4CA
:102D8000001102E0641C8C4202D22868C007F9D10D
:102D9000F0BD000000B002402DE9F0470F4608A941
:102DA0001D4691E80007164600240BF0A7FB0E49CC
:102DB0004FF400720A60CF60CE63C1F81090C1F882
:102DC00040A0C861404665F31F404864086840F071
:102DD00001000860120302E0641C944202D20868F9
:102DE000C007F9D1BDE8F08700B0024038B51446FD
:102DF0000D46049A002305490094FFF7ABFF2246D5
:102E00002946BDE8384001480AF0C7BCE03501203A
:102E10001EB50023FF24B4EB116F2CD080F07F404F
:102E2000009081F07F400190144813490160C0F880
:102E30000CD001A9416102A9C1634FF4803141EA7C
:102E40000261C161C2F1FF010906416200214163D3
:102E50004FF001114164016841F0010101604FF43C
:102E6000001202E05B1C934202D20168C907F9D14B
:102E7000029880F07F401EBD0002020000B00240B8
:102E80002DE9FC410C46050038D004F0C5FD112C9D
:102E900014D0132C28460ED003F00EF8009000F04A
:102EA000DBFB0646684603F071F8204627F054FB2A
:102EB000074600241CE000F006FB1BE0284600F05B
:102EC00087F917E02146284600F0C9FB019070B150
:102ED000007827F041FB00F0FF0801A803F056F846
:102EE000B84504D12146284600F06DFB02E0641C81
:102EF000B442E7DBBDE8FC4106F0FAB9BDE8FC816D
:102F0000F8B50C46050018D0002C16D004F084FD4E
:102F1000284602F0D1FF0090C66B684603F036F8F1
:102F20002046FDF789FC421C2146304603F052F84A
:102F3000284618F071FA06F0DBF9F8BD2DE9FF41DB
:102F400045680446284602F0B7FF0190D0F8886033
:102F500001A803F01BF80EB1012700E0002721466D
:102F6000284617F0B1F8002856D02068112844D020
:102F700006DC0B2863D00E2878D00F282BD14FE029
:102F8000212805D026281AD0B0F5107F23D139E0AA
:102F9000E068416800291EDD00680D281BD130461D
:102FA0000CF09FFD002806DB30460CF09AFD014630
:102FB000284600F008FB284600F07EF875E0E0683F
:102FC000012809D00A2802D00B2871D111E00A216A
:102FD000284618F0E1FA6BE030460CF082FD00283C
:102FE00066DB30460CF07DFD0146284600F0EBFA2A
:102FF0005BE0284600F060F85AE0FFB9E068007A2C
:1030000098BB55E0E06848B1007A08B1012100E0C2
:103010000221284618F0C0FABDE8FF810321F8E735
:103020002E46284602F048FF0290D0F8840005683A
:1030300002A802F0ABFF0DB13046A84738E02846A1
:1030400002F03AFF0090C06B03F004F80098D0F84B
:10305000880017F0ADFC0098D0F8940002F058FEFC
:10306000684602F093FF23E000E016E0E068416864
:1030700000291DDD016820290FD006DC092910D0A8
:103080000A2915D01B2904D112E0212910D02229A8
:103090000ED02846FFF7F4FEBEE7284600F0FAF807
:1030A00006E017F0DFFDB04202D1284618F042FCDE
:1030B000204617F045FCAFE738B5040016D004F001
:1030C000ABFC204602F0F8FE0090D0F8880040B13A
:1030D00017F06EFC00990020C1F88800204618F017
:1030E0009BF9684602F052FF06F002F938BDF0B5D0
:1030F00085B0B0F90850468A84690296CDE9035438
:103100000027CDE90017B0F90C10B0F91050B0F954
:103110000E40B0F90A00194410442B46224600F034
:1031200003F805B0F0BD00002DE9FF5F1D46DDE9A5
:103130000F8691468A4683460E9F129C04F06CFCD3
:1031400021496C34CDE90214CDE900784FF0FF330A
:103150004A465146584617F03BFB04002DD002F07A
:10316000ABFE10220090119917F080F900983822D8
:10317000164980F88C604C30FDF710FC134E009817
:10318000361F3168C0F88410002180F89010C58681
:10319000204600F040FA684602F0F8FE02F057FFC1
:1031A0000546204602F088FE0090C563684602F09E
:1031B000EDFE306841682046884706F099F804B073
:1031C0002046BDE8F09F00003D2F00089405002038
:1031D00010B5044600F063F9010000D0411E2046FE
:1031E000BDE8104000F0EFB9F8B50546006802F000
:1031F00063FE0090448ED0F88860684602F0C6FEF8
:1032000006B1012604F00104286818F0E3FF0EB1AE
:10321000002006E00CB1012003E008B1022000E02C
:1032200003201B4951F82010686858B302280CD0BD
:10323000052802D0122828D103E028461CF018FAED
:1032400023E028461FF0D8FF1FE06A69E8694FF0C5
:10325000FF33801AA0F1080203EB6204421CAB6941
:10326000001B4510A3EB6206C86905F094FA06E05E
:103270003219311B284603F0EDFC641E6D1C002C36
:10328000F6DA02E0286818F0DBFB0020F8BD000049
:10329000383F04082DE9F14F9EB01E9800287DD0DC
:1032A00004F0BAFB1E9802F007FE0B901E9817F070
:1032B000E4FD03900B98B0F9367090F890101891D7
:1032C000C16B0A9190F88C90B0F93410159100F010
:1032D000C3F982460B9804ACB0F88E101491B0F983
:1032E00082101391C16C1291D0E90012CDE90C1239
:1032F000D0F894B0002100BF00EB8102126D44F8B9
:103300002120491C0329F7D3002107AD00EB8102DE
:10331000D26D45F82120491C0329F7D300210EAEB8
:1033200000EB8102126F46F82120491C0329F7D3D4
:103330000BA802F02BFE1E9817F031FD02F0BCFD29
:103340001190D0F8008011A802F020FE4FEA28402A
:1033500042420FFA88F041420CA805F06BF85FEA90
:10336000897003D5BDF83200C01B01E0BDF83600FE
:10337000ADF832001E9817F012FD014603980222A4
:10338000CDE900070292BDF93230BDF930200020AE
:103390000CF02BFB80465FEAC97000E07CE007D0B0
:1033A000404618990CF0EBFD012140460CF00CFD55
:1033B000002708E039460A9802F0ADFE0146404673
:1033C0000CF0CEF97F1C5745F4D30027394654F84A
:1033D000272040460CF022FD7F1C032FF6D300244B
:1033E000214655F8242040460CF062FE641C032C54
:1033F000F6D30024214656F8242040460CF09FFDC9
:10340000641C032CF6D35FEA0B001FD002F054FDBE
:10341000169030F8025B00240646012711E000BF39
:1034200006EBD40004F00701007807FA01F1084226
:1034300001D0012200E00022214640460CF020FD90
:10344000641CAC42ECDB16A802F0A0FD40461499C7
:103450000CF049FD404612990CF0F9FC40461399D6
:103460000CF011FE404618F065FA40461E990CF02B
:1034700051FD404615990CF09FFD01211E9818F052
:103480008BF81E9802F018FD0B90C0F888800BA8EE
:1034900002F07CFD05F02CFF1FB0BDE8F08F38B5C1
:1034A00005004FF000040CD004F0B6FA284602F0F4
:1034B00003FD0090B0F93440684602F067FD05F066
:1034C00017FF204638BD10B50446FFF7E8FF411C42
:1034D0002046BDE8104000F076B8F8B50E4604006E
:1034E00021D004F099FA204602F0E6FC009090F812
:1034F0008C10D0F8885021F001040EB144F0010482
:10350000A1420BD080F88C40684602F03FFD45B1E7
:1035100004F0010128460CF057FC02E0684602F076
:1035200035FD05F0E5FEF8BDF8B50C46060028D0DF
:1035300004F072FA304602F0BFFC0090D0F88850D8
:10354000C06C03F0ADFE07460098C464684602F004
:103550001DFD304600F05FF8304617F05DFF75B195
:10356000204603F09DFEB84205D03046FFF7A4FD8B
:103570003046FFF78FFE214628460CF068FC05F028
:10358000B7FEF8BDF8B50C4605004FF0000618D0A0
:1035900004F042FA284602F08FFC0090B0F9366041
:1035A000D0F88850C486684602F0F0FC3DB1284649
:1035B00017F063FC01462246284618F096FA05F0FB
:1035C00097FE3046F8BD38B50C46050022D004F011
:1035D00023FA284602F070FC009000F03DF800B19C
:1035E000401E844200DD04460098B0F93410A14228
:1035F0000BD08486684602F0C9FC284617F00CFF01
:103600000421284617F0C8FF02E0684602F0BEFC1D
:1036100005F06EFE38BDF8B5044602F04DFC0146DB
:103620000090B0F9380010B9C86C03F039FE009969
:10363000CA6AB1F98030126800EB430016180846D8
:1036400018F046FC0546684602F0A0FC32462946C2
:10365000204618F04AFAF8BDC06B02F050BD38B5EC
:103660000D46002402F028FC0090C06B294602F0B1
:1036700052FD0546684602F089FC1DB1284602F05D
:103680001BFC0446204638BD70472DE9FC470E461A
:103690005FEA00097FD004F0BFF9484602F00CFC55
:1036A000009090F85470D0F85880456BC46C684610
:1036B00002F06CFCB8F1000F04D031464846424697
:1036C000904761E0122E18D006DC082E43D0102E51
:1036D0003CD0112E06D112E0132E21D01D2E43D046
:1036E0001E2E3DD0202E4FDB17B148461BF0BCFCF0
:1036F000B1B2484623F039FB60B3611C27E04DB3FB
:10370000284602F0D9FB05462146019005F0DEFC73
:103710004419204605F088FC01462346012210E0AA
:10372000C5B1284602F0C8FB05462146019005F0C8
:10373000CDFC4419204605F077FC014623464FF0A6
:10374000FF32484619F075FF01A81BE0611E48468C
:1037500000F0FEF918E0BCB1611E484600F0F8F92F
:1037600048461BF081FC0FE0484602F0A5FB0090A4
:10377000012F12D0012180F854102146484600F054
:10378000E7F9684602F002FC484617F045FE00E003
:1037900001E005F0ADFDBDE8FC87002180F8541084
:1037A000EFE7FEB544680546204618F013FD0646CF
:1037B0002946204616F088FC002837D028680F28B4
:1037C00030D004DC0B2832D00E2853D13AE0A0F5DB
:1037D0008070133804D0A0F580702D384AD110E0E5
:1037E000204617F0B9FF2046002124F014FF2046A0
:1037F00002F062FB0190C06F002117F084FF01A866
:103800001DE0E86860B1017A29B10168204600F046
:10381000AFF8012100E00221204617F0BDFE29E0AB
:103820000321F9E70121204624F0F5FEFEBD2046E4
:1038300002F042FB0090343002F094FA684602F045
:10384000A5FB17E0B6B1E8684168002912DD016800
:103850001B290FD006DC09290CD00A290AD00D2912
:1038600004D107E0212905D0222903D02046FFF703
:103870000CFFFEBD284617F063F8FEBDF0B587B01B
:1038800004460DF1080CD4E90567B0F90850408AE8
:103890008CE8E1000020CDE90010B4F90C00B4F987
:1038A0001060C118B4F90A00B4F90E501044334640
:1038B0002A4600F009F8050002D0618A00F033F9C9
:1038C00007B02846F0BD00002DE9F04F85B01F4637
:1038D000DDE91254DDE90E6A90468946834604F01C
:1038E0009BF80DF1040C4AF480501F49583400969F
:1038F0008CE813003B4642464946584616F068FF9E
:1039000004002AD002F0D8FA10220490119916F07F
:10391000ADFD04981C2215496030FDF73FF8049A6C
:10392000012082F85500681C00D0012082F8800038
:10393000002D00DC08252DB215870020508750632C
:1039400004A86D1C02F022FB2946204622F04FFEFF
:1039500018B9204617F02CF8002405F0C9FC05B072
:103960002046BDE8F08F0000A3370008CC050020FA
:103970002DE9F04186B00C46060055D004F04CF815
:10398000304602F099FA0090406B98B302F094FA36
:1039900003900098806E04F01BFF8046304617F0BD
:1039A0006CFA0746039803F051FC0546009890F81E
:1039B000601001F00301012916D002290DD0416EDB
:1039C000C06A00680844241A641E039806F0BAFA14
:1039D0000146002C0FDA002115E0781B401C00EB9B
:1039E000D070A4EB6004F0E7406E791B081A241A2B
:1039F000641CEAE713E0AC4205DC0246214603986A
:103A000006F040FA0146304600F0A2F803A802F0A2
:103A1000BDFA404604F0DCFE304617F0FDFC684677
:103A200002F0B4FA05F064FC06B0BDE8F08138B5E8
:103A30000D4604000ED003F0EFFF204602F03CFAE2
:103A400000908566204617F0E7FC684602F09EFA73
:103A500005F04EFC38BD2DE9FC4788465FEA0009B9
:103A60004FF0000652D003F0D7FF484602F024FA88
:103A70000090B0F93850446B684602F087FA00278E
:103A8000B8F1000F44D04CB1204602F015FA019075
:103A9000FCF7D2FE461C01A802F078FA404606F078
:103AA00051FA0446A84200DD2C462146404605F066
:103AB0000DFB451CA91B484623F007FB08B34846ED
:103AC00002F0FAF90090406B02F0F6F92A464146FE
:103AD0000190FCF7DCFE0198284400F8017C009876
:103AE000C464B0F938108C4205D190F85410012903
:103AF00001D1641EC46401A802F048FA684602F0CD
:103B000045FA484617F088FC05F0F2FBBDE8FC8753
:103B1000484602F0D1F90090343002F023F90098C1
:103B20004787C764EAE738B50C4605000FD003F0B5
:103B300073FF284602F0C0F9009018B104662846C9
:103B400017F06AFC684602F021FA05F0D1FB38BD97
:103B50001CB50C4602F0B0F90090406BF0B102F0D9
:103B6000ABF9019006F0EEF9009991F8542002B1FA
:103B70000122002C00DA0024844200DD0446B1F961
:103B80003800801AA04200DA0446C86CA04200D077
:103B9000CC640020086501A802F0F8F9684602F03C
:103BA000F5F91CBD70B5044600680F2806D01D2825
:103BB0000CD02046BDE8704016F0C2BE6FF07F40CA
:103BC00004F0E9FDBDE8704002F0DABB40F60111F7
:103BD000606817F019F80546154912F043FE15A163
:103BE000284612F056FE40F60211606817F00CF8F5
:103BF0000546184912F036FE17A1284612F049FE74
:103C0000FF21284612F06FFE40F60311606816F09F
:103C1000FBFF04460F4912F025FE14A1204612F0C6
:103C200038FE2046BDE87040FF2112F05CBE000067
:103C300024150408466F6E742055706461746169C0
:103C40006E672C506C6561736520576169742E2E08
:103C50002E00000004CC0308657261736520636860
:103C600069702E2E2E2E2E2E000000003025000012
:103C7000102A0FD0C26AD1E9002342EA03220B893D
:103C8000097B4FEA034343EA016142EA010203D19F
:103C9000C26002E0C268EEE7C2624FF00000704707
:103CA000102A0FD0826AD1E9002342EA03220B894D
:103CB000097B4FEA034343EA016142EA010203D16F
:103CC000826002E08268EEE782624FF00000704797
:103CD00030B50A68102A1AD0026A104B02EA0302B1
:103CE000D1E9013443EA0403D1E9034544EA050478
:103CF00043EA04034C69896943EA442343EA4131B6
:103D000041EA020141F0080103D1016002E00268CA
:103D1000E3E701624FF0000030BD00008101F0FFD9
:103D200070B5B3F5804F05D06FF0704140F82210A8
:103D3000002070BD50F82230084C2340D1E90045E6
:103D400044EA05148D688E892D0245EA0645896985
:103D50002C430C431C4340F82240E9E70000F0CF1D
:103D6000F0B50C6850F82450194A1540D1E90123E8
:103D7000D1E903671A433E4332434E6932438E69A9
:103D80003243CE6932430E6A32434E6A32438E6A00
:103D90003243CE6A3243CE6B32430E6B32434E6BAC
:103DA00032432A43082B01D142F0400240F824203C
:103DB0004A6BB2F5801F08D10A6832B14FF48072A5
:103DC0000A6104490268114301600020F0BD00004F
:103DD0008000E0FF00011000F0B500EB82025368A4
:103DE0008E8903F04044D1E9003543EA05138D681C
:103DF0002D0245EA06452B430E8A0D4D05EB06566E
:103E000033430E7D6F0107EB066633438E69334300
:103E1000234353600268D20207D54268098A22F41C
:103E2000700205EB0151114341600020F0BD00001C
:103E30000000F0FF30B5D1E901231A43D1E9033482
:103E400023431A434B690D681A438B691A43D1E91E
:103E50000734012D496A05686FF30E0505D01A4332
:103E600022430A432A43026008E0234329430B43C9
:103E7000416803606FF30E010A434260002030BDC9
:103E8000426942EA4101416100207047F8B5144699
:103E90000546D1E9000210438A686FF01F03C96824
:103EA00003EB421242EA412108430090286106F0E8
:103EB00009FC064609E0601C07D024B106F002FCAC
:103EC000801BA04201D90320F8BDA8698006F2D466
:103ED0000020F8BDF0B56FF00F05D1E9003405EB17
:103EE00004145B1E2E0123438C682F0306EB04246D
:103EF0004FEA054C23430D8A8E8ACC68097E4FF029
:103F00007F4E07EB05450CEB06560EEB0161012ACF
:103F10000CD082683F1107EB043423432B43334317
:103F200002F070420B43134383600FE0C2682B43DF
:103F30000B4302F070428168134301F07042210389
:103F4000A1F5805131431143C36081600020F0BD71
:103F50002DE9F047044640688EB00027804601F006
:103F6000ABFF0090B0F87CA0D0F86890D0F88060EB
:103F7000D0F88850C06D00B10768684602F006F8B6
:103F800005E0696820468847002843D12D68002D48
:103F9000F7D12068172853D00CDC0F283DD004DC63
:103FA0000B2877D00D2825D18BE0112810D01428AC
:103FB00020D13BE0262846D004DC1E2851D0202802
:103FC00018D18AE02A2816D0B0F5107F12D128E047
:103FD0004046E56801F070FF0290697A39B9297AA4
:103FE000012904D130F87C1F41F48071018002A8BE
:103FF00001F0CCFF75E0404601F05EFF0090E16803
:1040000011B1C0F8841002E0D0F88400E060684686
:1040100001F0BCFF0EB0BDE8F087D7B34046B8470B
:104020005FE02146404624F061F9F3E705A94046E8
:1040300000F0B3FBE0680699016007994160E9E789
:10404000C4F80C90E6E7E0680228E3D1CDF83080B0
:10405000E0680D9027200A900AA9A06818F0B4FA29
:10406000D8E7E068012804D00021404600F0BBFA00
:10407000D0E7304617F039FA68B1304617F05AFCED
:10408000304617F0F5F898B10121304616F0B0F837
:104090000EE026E02FE0484617F0A0FC064640461A
:1040A00001F00AFF0090C0F88060684601F06EFFE2
:1040B0000121404600F097FA002EABD10020E060CD
:1040C000A8E75FEA0A700CD4E068C06848B1007ADB
:1040D00038B1404617F02EFC03E02146404623F05D
:1040E0001AFD2146404615F0EFFF002892D02046E9
:1040F00016F026FC8EE7404601F0DEFE00907030A0
:1041000001F030FE684673E7F0B587B0B0F90840BB
:104110000DF10C0C0C9E876945688CE8F000448A10
:104120000025CDE900150294B0F90C10B0F910503B
:10413000B0F90E40B0F90A00194410442B4622464B
:1041400000F002F807B0F0BD2DE9F04F8BB09846B3
:10415000DDE9155691468A468346149F1A9C03F062
:104160005BFC3348603445F48055CDE90204CDE969
:10417000007543464A465146584616F029FB04004E
:104180004FD001F099FE30220490179916F06EF985
:104190000498282227493430FCF700FC0498199928
:1041A000244F4166A0F87C600026C0F88060C66697
:1041B000083FC0F888607968C16504A801F0E6FE90
:1041C00005A9204600F0E9FA1B4841F282710396E6
:1041D0000094CDE90110BDF91E00BDF91A10BDF91A
:1041E0001C20431ABDF918005B1C121A521C16F051
:1041F000EFFA06467868416820468847204601F075
:104200005BFE0490866604A801F0C0FE42F2040042
:10421000054202D1204616F043FC2046189900F0D2
:1042200027FA05F065F80BB02046BDE8F08F0000D6
:10423000513F0008F0050020A14A00082DE9F04197
:10424000044694B0006800F0B7F908B1D94D01E018
:10425000D84D2C35606815281ED00CDC0B281FD0DB
:1042600004DC00287ED005287DD12FE10E287BD0EC
:104270001228F9D141E1162806D0172808D01828AD
:1042800008D01C28F0D109E0E86914B0BDE8F0813D
:10429000286AFAE7686AF8E7A86AF6E76869F4E75F
:1042A00020680B901C200C90206801F005FE039004
:1042B000016D0BA88847064603A801F067FE022E91
:1042C0000FDB95E807008DE80700D4E904023346C8
:1042D000A16905F06FFC20698719A069A0EB0608A9
:1042E0002CE0286804F057FA2169E8690A18521E80
:1042F000606902F0AFFCA269E869111A491C6069A3
:1043000002F0A8FCD4E904077F1C394602F0CEFC79
:104310003946A06902F0CAFC686804F03CFA2069DA
:104320003946401C02F0C2FCA0693946401E02F02A
:10433000BDFCA0692769A0F10208BF1C286804F031
:104340002AFA42463946606902F084FC686804F043
:1043500022FA606942463946401C02F07BFC686ADA
:10436000022802E015E1B0E000E10BDDA86804F0EE
:1043700012FA61696A6A881C8B18014642463846FF
:104380005B1E27E0296AB14226DD6069022E0746DE
:1043900000F1020801DB374401E007F10207206960
:1043A00001DB304401E000F1020022693B460A448F
:1043B0004146A2F1010202F03BFD022E02DBA069A0
:1043C000821B01E0A269921EA069E9693B46401A7E
:1043D0004146401C02F02CFD022E02DB60690644BF
:1043E00001E06669B61CE76928687F1E04F0D3F90E
:1043F0003A463146206902F0BFFC3A463146A06990
:1044000002F0BAFCE7696868BF1E04F0C4F92069CD
:104410003A463146401C02F0AFFCA0693A463146AC
:10442000401E02F0A9FCE869022802DC286A022882
:1044300023DDA86A022802DDE1690F1A01E0E769BD
:10444000BF1EA86804F0A7F9E969022909DD2069FF
:104450003B46421800F1020C31466046521E02F003
:10446000E7FC286A022808DDA269E8693B46101AC1
:104470003146401C921E02F0DBFC286804F08BF9E8
:10448000D4E90620216902F0E5FB686804F083F9AD
:10449000D4E906202169401E491C521E02F0DAFBB5
:1044A000A86A022811DDA1692669E469A1F1020860
:1044B000271AA41EB61C7F1CA86804F06CF92346BA
:1044C00042463946304602F0B3FC71E0208A00B221
:1044D000ADF81400A18A09B2ADF81610228B12B201
:1044E000ADF81820A38B1BB2ADF81A302C69ED681B
:1044F000CDE9005402F072FB5AE0208A298B08446F
:10450000ADF81400A08AADF81600208B298B401A54
:10451000ADF81800A08BADF81A00206801F0CCFCB3
:104520000390006FF0B1022004F0B6FA039890F8FF
:104530007C10C1F3C00100EB8100006C04F02BF98A
:104540000398406B04F044F90398006F01F0B4FC49
:1045500003990990B1F95A2005A902F0C7F909A8F1
:1045600001F014FD03A801F011FD21E0208AADF84F
:104570001400A08AADF81600208BADF81800A08BAF
:10458000ADF81A00A86804F006F905A802F07CFC52
:104590000EE0206801F090FC039030F85A1F41F0C3
:1045A0000C01018003A801F0F1FC206817F048FA23
:1045B00000206AE62409002038B505004FF0000409
:1045C0000FD003F029FA284601F076FC009090F80D
:1045D0007C00000700D50124684601F0D7FC04F0F8
:1045E00087FE204638BD70B50D46040009D003F0A3
:1045F00013FA2946204624F0BFFDBDE8704004F0C0
:1046000077BE70BD2DE9FC410D46804603F004FAEB
:104610005FEA080028D001F04FFC0190C16D8C6862
:1046200000F022F907460198456301A801F0AEFCAD
:1046300022680121404690470646226803214046F1
:104640009047054622680021404690470446404670
:1046500000F0EFF92B46324639464046009400F010
:1046600078F9404616F0D8FE04F042FEBDE8FC8121
:104670007CB50D4604001DD003F0CEF9204601F0B4
:104680001BFC0090006F0190684601F07FFC2946FA
:1046900001A805F0ADFD58B1204601F00DFC0090D9
:1046A00001990167684601F071FC204616F0B4FEDE
:1046B00004F01EFE7CBD38B50C46050013D003F097
:1046C000ABF9284601F0F8FB0090B0F95A10A1426E
:1046D00004D0A0F85A40284616F09EFE684601F025
:1046E00055FC04F005FE38BD38B50C46050015D064
:1046F00003F092F9284601F0DFFB0022CDF800001C
:1047000000EB8201521C0C64022AF9D3684601F0C6
:104710003DFC284616F080FE04F0EAFD38BD2DE988
:10472000FC470D465FEA00094FF0000432D003F069
:1047300073F9484601F0C0FB0190B0F95440A5421E
:1047400023D000F091F8804601980121A0F8545040
:10475000C06D856848462A68904707462A68032145
:104760004846904706462A68002148469047054635
:10477000484600F05EF933463A46414648460095C1
:1047800000F0E7F8484616F047FE01A801F0FEFBEE
:1047900004F0AEFD2046BDE8FC872DE9F34F85B05F
:1047A00000270C46B846059801F086FB0090C06DC6
:1047B0000121856805982A68904782462A68032166
:1047C0000598904704902A68022105989047039025
:1047D0002A680021059890470646009817F078FB54
:1047E0008346009817F07BFB8146009890F83210C2
:1047F000890601D5B0F9588000F036F805460098D2
:10480000C06E10B116F050FB074625806780A4F8F3
:1048100004A0049AABEB020006EB0802401E2A44F7
:1048200020813A44E280039BA9EB0302521E62817D
:10483000A4F80CA020827019E681401E60826846B0
:1048400001F0A4FBB4F90C000190B4F9100002903F
:1048500002AA01A9059800F039F80198A0810298F0
:10486000208207B0BDE8F08F10B50146002091F816
:104870003220920607D5B1F95400002803D1486BC5
:1048800002F013FD801C10BD70B58AB00C460546C1
:1048900001F012FB0990C06D866809A801F076FB53
:1048A000009534B1012C06D0022C0BD0032C04D17E
:1048B0000AE0182000E016200190716868468847D9
:1048C0000AB070BD1520F7E71720F5E72DE9FC4188
:1048D00017468846044601F0EFFA0090C16D05685E
:1048E00068468E6801F052FB3268002120469047EE
:1048F0000646204616F099F927E000BF01F0DCFAE1
:104900000190B0F900102AB2B0F90430891A9A1A4D
:10491000B0F90230A3EB2543B34210D190F8280040
:10492000000605D53868884209DB491E396006E073
:10493000D8F80000904202DC521CC8F8002001A800
:1049400001F024FB204616F01DFA0400D6D1BDE884
:10495000FC812DE9FF4F83B00E460746DDF84090FD
:1049600001F0AAFA0190C16D8D68FFF77DFF044642
:1049700001A801F00BFB2A680121384690478346C5
:104980002A6803213846904782462A680021384623
:1049900090470546B44207D105998B4504D1069945
:1049A0008A4501D14D4541D0A41B0026B04638466A
:1049B00016F03BF938E001F07FFA0090806A0106BA
:1049C00001D5800502E0810528D50006002825DBF9
:1049D00024B122461146384616F01BFE009890F886
:1049E000280000060AD50698A5EB0902A0EB0A00EC
:1049F00004FB16013846761C16F0BFFD0098008DAA
:104A000080050BD50599A5EB0902ABEB010004FB72
:104A1000080108F10108384616F0AFFD684601F0BC
:104A2000B5FA384616F0AEF90700C4D107B0BDE8B4
:104A3000F08F70B586B0064601F03EFA0590D0E9D9
:104A40001A4505A801F0A2FA54EA050026D06946E5
:104A50003046FFF7A2FEACB1BDF90620BDF9041047
:104A6000204616F05DFDBDF90A00BDF90610421A98
:104A7000BDF90800BDF90410521C411A2046491C1A
:104A800017F033F8002D09D0BDF90600BDF902106A
:104A9000421ABDF90410284616F042FD06B070BD5A
:104AA0002DE9F0430446406889B0054616F077F9D1
:104AB000814601F001FA0290D0F84880D0F8807069
:104AC000466E02A801F062FA2068172853D008DC6D
:104AD0000E283AD00F2811D014284CD015283DD1DB
:104AE00049E01E281ED01F282AD0222840D0312875
:104AF00034D10020E06009B0BDE8F0836FF0704170
:104B00004046884503D00AF02DF801F039FC002E0C
:104B1000F1D0D4E902122068CDE90405CDE90612EE
:104B200004A81FE0E0680028E5D02FB1AF4203D011
:104B3000384616F0FFFEDEE7284616F04FFFDAE7AC
:104B40002146484615F0C0FAD5E7E06841680029DB
:104B500004DD00680928EFD00A2805D05EB12046A0
:104B6000C4F80490B047C6E7284616F046FFC2E7EF
:104B7000C4F80C80BFE7204615F0E2FEBBE700005A
:104B800038B50446094D4FF0AA300090A8790423A7
:104B900060436A4600210DF0E7F9A87904236043D9
:104BA0006A460021401C0DF0DFF938BD204300208B
:104BB0002DE9FC47254F89460646002500240DF1C6
:104BC000040810E0CDF80080798870438B084A46CD
:104BD00000210DF04BF87888BDF80410B1EB900F70
:104BE00004D1641CA4B2B879A042EBD8B879A04231
:104BF00002D10020BDE8FC8730460CF05BFE20B1FE
:104C0000294613A0FBF72CFC16E0B9F1FF3F13D0A7
:104C100000200AE07A8806FB001093080022114663
:104C20000DF07AF9BDF80400401CADF80400B87925
:104C3000BDF804108842EDD86D1CADB2032DBDD374
:104C4000314609A0FBF70CFC0120D3E720430020EC
:104C50006572726F7220657261736520626C6F633A
:104C60006B3A25640D0A000062616420626C6F6318
:104C70006B20636865636B65643A25640D0A000008
:104C800038B50446104D00208DF80000A8790123A6
:104C900060436A4600210DF01DF89DF80000FF28D2
:104CA00001D0022038BDA879012360436A46002163
:104CB000401C0DF00FF89DF80000FF2801D00120E6
:104CC00038BD002038BD0000204300202DE9F84FFA
:104CD00091462F4A8A461D469179B0FBF1F3B0FB0D
:104CE000F1F801FB130B404600F0B8F828490746DD
:104CF0004889B84202D20120BDE8F88F002428E09C
:104D00005C4516D3ADB14A88A2EB0A01A94201D293
:104D10008EB200E0AEB207FB004108FB00404B46FC
:104D2000524600960CF04EFC4FF0000AB144AD1B09
:104D300005E007FB004108FB00400CF015FD30B119
:104D40003846FFF71DFF012000F024F8CBE7641C74
:104D5000A4B20F498879A042D2D80D46A879A042C2
:104D600014D1384600F028FA40460CF0A3FD00208C
:104D70006A89696908E031F81040444502D121F898
:104D8000107003E0401C80B28242F4D80020B3E7E8
:104D900020430020F8B506460021294D4FF6FF704C
:104DA00003E06A6922F81100491C6A898A42F8D82E
:104DB0000020A88104461CE0A879042360436A46C9
:104DC00000210CF087FF9DF80000FF280CD1B6B140
:104DD000A879012360436A460021401C0CF07AFF49
:104DE0009DF80000FF280AD0214616A0FBF738FBEB
:104DF000641C6989A142DFD800206A6916E09DF829
:104E000002009DF8031000EB01206989814202D95C
:104E1000696921F81040A889401CA881E8E732F8A8
:104E200010308B4201D3E88102E0401C8142F6D869
:104E3000E889642801D20220F8BD0020F8BD0000F6
:104E40002043002062616420626C6F636B20696E96
:104E50006465783A25640D0A0000000070B5104EB4
:104E6000104C71892268491E914200D2216000F0E5
:104E700001052946206800F017F8411C0AD1708905
:104E80002168401E884207D92946206000F00CF8AE
:104E9000411C01D0206070BD4FF0FF3070BD00009C
:104EA0002043002074000020F8B50D460021401C6E
:104EB0000091040012D00C4F012626EA0400A842FB
:104EC0000AD1B879611E484304236A4600210CF0D8
:104ED00001FF0098401C04D0641EEED14FF0FF305B
:104EE000F8BD601EF8BD000020430020F8B5254E37
:104EF00000273C46B78113E02046FFF7C1FE70B99A
:104F000020460CF0D7FC38B121461FA0FBF7A8FAC9
:104F10002046FFF735FE02E0B089401CB081641CDA
:104F20007089A042E8D8B1891BA0FBF799FAB08933
:104F3000642801D20120F8BDC0EB4010642100EBD1
:104F40004000B0FBF1F50024009710E02046FFF789
:104F500097FE58B9B079022360436A4619460DF0AE
:104F600003F80098401C0090A84203D0641C70898C
:104F7000A042EBD80120FFF70DFF0028DBD0022074
:104F8000F8BD00002043002042616420626C6F6322
:104F90006B3A25640D0A0000676F6F645F626C6F87
:104FA000636B6E756D3A25640D0A000010B50CF048
:104FB000ABFC00BB184C616911B100202BF0C0F8AC
:104FC0006089410000202BF0C7F8606161894900C9
:104FD000FBF71EFD606970B10120FFF7DBFE60B1D9
:104FE0000EA0FBF73DFAFFF781FF90B111A0FBF790
:104FF00037FA022010BD012010BD618912A0FBF715
:105000002FFAA18916A0FBF72BFAE18919A0FBF76B
:1050100027FA002010BD000020430020666F726D4B
:105020006174206E616E6420666C6173682E2E2E32
:105030000D0A0000666F726D6174206661696C65AF
:1050400064210D0A00000000746F74616C20626CB2
:105050006F636B206E756D3A25640D0A00000000C9
:10506000676F6F6420626C6F636B206E756D3A259D
:10507000640D0A0076616C696420626C6F636B205A
:105080006E756D3A25640D0A000000000549CA8955
:10509000824202D24FF6FF707047496931F8100022
:1050A00070470000204300202DE9FF5F9B46154616
:1050B0008246002679E03F4C6088B0FBF5F1A0798C
:1050C000414301988319B3FBF1F0FFF7DFFF6189DA
:1050D000814203D8012004B0BDE8F09F354C6188BF
:1050E000A479B1FBF5F26243B3FBF2F702FB17328E
:1050F0006A43B2FBF1F300FB0437B2FBF1F001FBB2
:105100001028A1EB0800B0FBF5F084B2ABEB060071
:10511000A04200D284B204FB05F91FFA89F31FFAFA
:1051200088F1524638460CF083FC032809D11FFA57
:1051300089F31FFA88F1524638460CF079FC0328AF
:1051400004D004282ED068B30220C4E74B461FFACF
:1051500088F152463846FFF7B9FDDFF858804FF026
:10516000FF3198F80600B7FBF0F0FFF721FD80B99A
:1051700098F806000021B7FBF0F0FFF719FD814613
:1051800098F80600B7FBF0F00CF094FBB9F1000FB3
:1051900008D098F80600B7FBF0F0FFF7F1FC01200B
:1051A000FFF7F8FD05FB04AA26445E4583D30020E3
:1051B00091E700002043002008B5CC218DF80010B5
:1051C000044901236A468979484319460CF0CCFE0C
:1051D00008BD0000204300202DE9FF4F85B0154693
:1051E00000274FF0FF3B7BE0404C6088A179B0FB8B
:1051F000F5F048430699CB19B3FBF0F0FFF746FFF3
:1052000061898046414503D8012009B0BDE8F08F8F
:10521000364A50889279B0FBF5F15143B3FBF1F473
:1052200001FB143101FB05FABAFBF0F308FB023174
:10523000BAFBF0F200FB12A9A0EB090080B2B0FBB0
:10524000F5F002910899ADF80400C91B8CB20391E6
:10525000844200D3044601A804FB05F600901FFA1F
:1052600089F1C6F38F034FF0FF3202980CF0FEFC79
:1052700008B10220C9E7BDF80400B0EB960F0FD1CA
:10528000B3B21FFA89F1059A02980CF09DFD38B966
:105290004146C34520D00846FFF78EFFC346D8B12C
:1052A0001248817940884143A1EB0A00B0FBF5F038
:1052B000039980B28CB2ADF80400844200D3044656
:1052C00004FB05F61FFA89F13346059A0298FFF7A9
:1052D000FDFC08B1032098E7059827443044059069
:1052E0000898874280D300208FE7000020430020E9
:1052F00010B504460A2812D00D2C14D002F08CFBF5
:1053000009480068C0690168204688470748016865
:1053100009B120468847BDE8104003F0E9BFBDE869
:10532000104001F039BA10BD84040020B004002000
:105330002DE9F0430446C56887B0904689460020B1
:1053400003F03AFA064625B1287910B146F002007A
:1053500001E026F0020003F02FFA2069012558B180
:10536000D4E902128DE82600039563882288046838
:1053700041464846A0471EE0124F134B214638686D
:105380001B68427CE068984730B9E088012801D06A
:10539000002001E03868806BA288E388A16800954E
:1053A000CDE90410CDE90232019563882288414697
:1053B000484608F025FB07B03046BDE8F04303F04F
:1053C000FBB90000840400207C04002010B50020FC
:1053D00003F0D6F96FF07F4003F0DDF9012003F010
:1053E0003DFB002003F048FB002003F055FB0020AC
:1053F00003F0E2F90448006803F0EAF9BDE8104060
:10540000002003F03BBA00008004002070B500F0DB
:105410008DF8164D4FF4807400222146284605F081
:105420004BF9134E00228021304605F045F91E202D
:1054300027F070FE01222146284605F03DF90022A2
:105440008021304605F038F91E2027F063FE002247
:105450008021304605F030F91E2027F05BFE3046F3
:10546000BDE870400122802105F026B900200240ED
:10547000001C02400B4800B5026887B0002142F0D2
:1054800080020260006800F0800005908020CDE975
:1054900000010320CDE902106946034805F01EF81B
:1054A00007B000BD30380240001C024008B5FDF7CF
:1054B00091F9FFF7ABFF00F05DF90322694648F26E
:1054C000401000F065F800208DF8030069460FA039
:1054D000FAF7C6FF10A16846FBF7E4FA08B101200D
:1054E00008BD0122694648F2470000F051F89DF8D6
:1054F00000100AA0FAF7B4FFFFF7BCFF00F03AF97A
:10550000C82027F007FE002008BD000043545020AB
:1055100049443A25730D0A00393131004354502073
:105520005665723A2532780D0A00000070B51548AC
:1055300086B00025016841F080010160016801F03A
:1055400080010591016841F48071016000680126C5
:1055500000F4807005904FF480700324CDE90006BC
:10556000CDE902546946084804F0B8FF8020CDE92F
:105570000006CDE902546946044804F0AFFF06B0C6
:1055800070BD00003038024000200240001C024084
:1055900070B515460E460446FDF7E8F9BA20FDF74A
:1055A000AFF9FDF72FFA200AFDF7AAF9FDF72AFA5D
:1055B000E0B2FDF7A5F9FDF725FAFDF7FDF9FDF7D6
:1055C000D5F9BB20FDF79CF9FDF71CFA00246D1EF0
:1055D00005E00120FDF758F93055641CE4B2AC42F7
:1055E000F7DB0020FDF750F93055BDE87040FDF7BE
:1055F000E3B90000F1B582B0002448F24E1526460A
:10560000012202A92846FFF7C3FF9DF80800010602
:105610000BD500F00F00062807D200208DF80400FB
:10562000012201A9284600F0B0F89DF808004D4D70
:10563000010776D000F00F0106297CD2FF208840B8
:105640008DF80400C04395F8207040F0C00085F844
:105650002000A889A882E88AE883012695F820001E
:1056600006FA04F1084227D03F480422694630F880
:105670001400FFF78DFF95F830009DF80110C0076A
:105680009DF8000000EB012105EB440008D081816A
:105690009DF802109DF8032001EB0221C1820BE06E
:1056A000C1829DF803209DF802106FF4EF7303EBA5
:1056B0000222114449428181641CE4B2052CCDD3FD
:1056C000A989F6EE090A00EE101A2846284BB8EE12
:1056D000400A012620EE200ADFED240ABCEEC00AB3
:1056E00010EE101A8AB2AA81E98A00EE101AB8EEFA
:1056F000400A20EE200ABCEEC00A10EE101A89B251
:10570000C1821C88A24202D85A88914213D99DF8BE
:10571000081001F00F01012904D9C1898181018B91
:10572000E98208E0818A8181C18BC18280218DF864
:10573000081085F820709DF8080000F08F00802880
:105740000ED195F82000010602D520F0800005E07A
:105750004FF6FF71A981E98200F0E00085F8200092
:105760003046FEBD3C000020386D0308CDCC4C3FD8
:10577000382F002008B501208DF800000246694648
:1057800048F2400000F001F808BD70B515460E461D
:105790000446FDF7EBF8BA20FDF7B2F8FDF732F951
:1057A000200AFDF7ADF8FDF72DF9E0B2FDF7A8F8F6
:1057B000FDF728F9002406E0305DFDF7A1F8FDF7BC
:1057C00021F9641CE4B2AC42F6D3BDE87040FDF7A9
:1057D000F3B80000014AC2E900017047300400201C
:1057E000014AC2E90001704738040020014AC2E9B9
:1057F0000001704740040020014AC2E900017047DF
:10580000380500202DE9F04FDFF828B191B04FF0B6
:10581000FF35DBF80030B3F922100691DE69B3F9E9
:105820002490F469A189814206D8E289824203D397
:10583000471AD4F8008012E0D4E9018100296FD022
:105840000A8882426CD84D88854269D3801A82B218
:10585000486800EB8200B0F90070B0F90250781C83
:105860005ED0307EA17C10FB01FA217CCDE90701DE
:10587000B3F92A60304609F057FAC0B20E90DBF84F
:10588000000007FB0A81A37C826B0127CDE904128B
:10589000CDE90273C069089AC17E807ECDE900011E
:1058A000DDE90603494608F0ABF8681C18D046F05D
:1058B000020009F039FADBF80000A37C05FB0A813D
:1058C000826BCDE90273CDE90412C069089AC17EEA
:1058D000807ECDE90001DDE90603494608F090F835
:1058E000DBF800005D46C069417E007E814214D92C
:1058F000022E12D086F0040009F016FA2868C0695A
:10590000027EC37E12FB0391437E857E089A069831
:105910004B4412FB050208F0FBFB0E9809F004FA59
:10592000DBF80000627C418C1144418411B0BDE879
:10593000F08F00008404002004480068C069C0693A
:1059400009B1027C0A60407C70470000840400209A
:10595000022008807047C06982898A4202D8C289C1
:105960008A4210D2806880B102888A420DD843886A
:105970008B420AD3406800EB8100A0EB8200B0F9B3
:105980000000002801DB0120704700207047000064
:105990002DE9F043304C034687B020681946B0F932
:1059A0002A60C069C06900F00BF9002850D0416836
:1059B0000088181A01EBC0053046AF7809F0B4F939
:1059C000814620686A680123816BCDE90237CDE901
:1059D0000421C169CB7E8A7ECDE900230B7EB0F91C
:1059E00024102A78B0F9220008F00AF82068C0696B
:1059F000417E027E91421FD9C07E11FB00F812FB4E
:105A000000F7022E18D001F0DAFA064601F0A0FAEB
:105A100002F0C1FE21682A78CB69B1F92200DB7E51
:105A200012FB0302B1F9241001EB0803394408F01A
:105A30006FFB304602F0AFFE484609F075F920686A
:105A40006A78C369B0F922109B7E12FB031141846E
:105A500007B0BDE8F08300008404002030B50F4C8F
:105A600005460B4620682946C069C06900F0A8F8C1
:105A7000002812D04168008824682A1A0120E469AD
:105A800000EBC200085CA47E10FB04F0002B04D0E5
:105A900011F8321011FB04F1196030BD84040020AC
:105AA00001200880704700B5C06900F089F800281F
:105AB00000D0012000BD00002DE9F043314D01462A
:105AC00087B02868B0F92A60C069C06906E002881A
:105AD0008A4202D842888A4205D280680028F6D1DC
