:020000040800F2
:10000000A0410220E5020008E531010845E60008AC
:10001000D92701084D2E0008A5B0010800000000F6
:100020000000000000000000000000007F780108D0
:100030006D44000800000000B5280008F9790108A7
:100040001F0300081F0300081F0300088167010841
:100050001F0300081F0300081F0300081F030008F8
:100060001F0300081F0300081F0300081F030008E8
:100070001F0300081F0300081F0300081F030008D8
:100080001F0300081F0300081F0300081F030008C8
:100090001F0300081F0300081F0300081F030008B8
:1000A0001F0300081F0300081F0300081F030008A8
:1000B0001F030008F19F0108FD9F01081F030008AE
:1000C0001F0300081F0300081F0300081F03000888
:1000D0001F03000831B001081F0300081F030008B8
:1000E0001F030008616601081F0300081F030008C2
:1000F0001F0300081F0300081F0300081F03000858
:100100001F0300081F0300081F0300081F03000847
:100110001F0300081F0300081F0300081F03000837
:100120001F0300081F0300081F0300081F03000827
:100130001F0300081F0300081F0300081F03000817
:100140001F0300081F0300081F0300081F03000807
:100150001F0300081F0300081F0300081F030008F7
:100160001F0300081F0300081F0300081F030008E7
:100170001F0300081F0300081F0300080000000001
:100180001F0300081F0300081F0300081F030008C7
:100190001F0300081F0300081F0300081F030008B7
:1001A000B12001081F0300081F03000800F002F837
:1001B00000F081F80AA090E8000C82448344AAF180
:1001C0000107DA4501D100F076F8AFF2090EBAE87E
:1001D0000F0013F0010F18BFFB1A43F0010318477B
:1001E0003C7F04005C7F04000A444FF0000C10F8D0
:1001F000013B13F0070408BF10F8014B1D1108BFA5
:1002000010F8015B641E05D010F8016B641E01F844
:10021000016BF9D113F0080F1EBF10F8014BAD1C94
:100220000C1B09D16D1E58BF01F801CBFAD505E0B2
:1002300014F8016B01F8016B6D1EF9D59142D6D30C
:10024000704700000023002400250026103A28BF34
:1002500078C1FBD8520728BF30C148BF0B60704738
:10026000662934F08586642900F08481752900F0C0
:1002700081816F2900F0BA81782900F0DF8163293C
:1002800000F0B587732900F0BA87002070471FB5CA
:1002900034F061FE00F0C4FC04000020002134F0C2
:1002A00077FA401C60600020002134F087FAE0609B
:1002B0001FBD10B510BD01F081F91146FFF7E7FF32
:1002C00031F0DAFC01F01CFC03B4FFF7F2FF03BCD1
:1002D0002DF09FFE30BF72B6704762B6704780F354
:1002E0000888704711488047DFF84400016841F4EE
:1002F00070010160BFF34F8FDFF83800016821F013
:1003000040410160BFF36F8F0B480047FEE7FEE7F7
:10031000FEE7FEE7FEE7FEE7FEE7FEE7FEE7FEE7B5
:1003200006480749074A084B704700001D7A010834
:1003300088ED00E034EF00E0AD010008A0350220B8
:10034000A0410220A0370220A037022072B67047D9
:1003500062B67047EFF3108072B6704780F3108872
:10036000704730BF704720BF7047B0FA80F07047C9
:1003700090FAA0F0B0FA80F0704790FAA0F07047C1
:100380007047000010B500F04BFC001D10BD00BF11
:100390000144030053EA020C00F069802DE9F04BA0
:1003A0004FF00006002B1FBFB3FA83F503FA05F4E4
:1003B00024FA05F65E4012BF1643B2FA82F502FA3D
:1003C00005F4C5F120051EBF22FA05FC44EA0C0421
:1003D000203556EA044C4FEA144418BF641C4FF011
:1003E00000084FF00009904271EB030C39D300294B
:1003F00019BFB1FA81F701FA07F6B0FA80F700FAEF
:1004000007F6C7F120071EBF20FA07FC46EA0C06D4
:100410002037B6FBF4FCA7EB0507103F07F01F0BD6
:10042000CBF120060CFA0BFB2CFA06F644BFB346C0
:100430000026202FA4BF5E464FF0000B5BEA060C9F
:1004400008BF4FF0010B19EB0B09ABFB027C48EB2B
:100450000608C01B06FB02CC0BFB03CC71EB0C01A6
:10046000C1E70B46024641464846BDE8F08B13B54E
:100470004FF000004FF00001AFF30080BDE81C40DA
:10048000704710B50446FFF77DFF0068005D00F07F
:10049000010010BD0FB4044910B503AA029800F082
:1004A000B3FE10BC5DF814FB240000200FB41CB593
:1004B000074B06AA7B4469460090059800F075FE3C
:1004C0000020694600F084FE1CBC5DF814FB0000AF
:1004D000190D000070B5044685690068C10601D594
:1004E000302600E02026C00707D070BDD4E90121E6
:1004F00030469047206A401C20626D1EF6D570BDC4
:1005000070B5044685690078C00707D170BDD4E98D
:10051000012120209047206A401C20626D1EF6D5E4
:1005200070BD70B50C460546012A05D028788006B6
:1005300000D5EA69002302E0012305E05B1C934239
:1005400002D2E05C0028F9D1A869E618C01AA861B7
:10055000286A184428622846FFF7BCFF04E0D5E962
:10056000012114F8010B9047B442F8D32846FFF755
:10057000C7FF70BD2DE9F0410646002410687529BB
:10058000314616A510D0AFF30080002802DA4042B1
:1005900013A507E031688A0701D512A502E04907D3
:1005A00004D511A5012401E0AFF3008000210A2247
:1005B00006F1240709E0B0FBF2FCB0FBF2F302FB0A
:1005C0001C00303078541846491C0028F3D12346CB
:1005D0002A463046BDE8F04100F07ABB000000003A
:1005E0002D0000002B0000002000000070B5044624
:1005F00021461068AFF30080002104F1240505E0D6
:1006000000F007023032C0086A54491C0028F7D1B4
:100610002068002307A2050707D5800600D421B172
:10062000E069012304A2401EE0612046BDE870405D
:1006300000F04EBB000000003000000070B5044622
:100640000D4621461068AFF300802188090502D5C8
:100650000F4A7A4402E00E4A7A440E32002104F135
:10066000240305E000F00F060009965D5E54491C66
:100670000028F7D120780023000704D5702D02D080
:1006800009B1022311322046BDE8704000F020BBC2
:100690007A6D04002DE9F05F894604464FF0000AA8
:1006A000DFF874B1FB44C0F820A02046E168884719
:1006B000002874D0252806D0D4E901219047206A6B
:1006C000401C2062F1E700265F462046E16888472B
:1006D0002028054607DB312D05D2781910F8200CAB
:1006E00008B10643F1E7B00701D526F00406C4F8C7
:1006F0001CA00027C4F818A02A2D09D028462DF0E8
:1007000081FC38B304EB8708303DC8F8185019E075
:1007100059F8041B204604EB87029161E168884781
:10072000012F054618D1E069002820DA26F02006BE
:100730001DE0D8F8180000EB800005EB40003038D1
:10074000C8F818002046E168884705462DF05AFC95
:100750000028EED1012F0AD02E2D08D12046E168C5
:1007600088477F1C0546022F46F02006C4DBA0699F
:10077000002803DA404246F00106A061F00701D0EC
:1007800026F010066C2D0BD0682D09D04C2D39D0D9
:100790006A2D35D0742D35D07A2D33D016E038E05F
:1007A000E1682F4620468847B842054609D16C2F9C
:1007B00026D04FF48060E16806432046884705460E
:1007C00004E06C2F1AD04FF4807006430DB3A5F1EE
:1007D0004100192802D8203546F400664A462946C9
:1007E000204626604E46FFF73BFD80B101280BD026
:1007F000F61D26F0070000F1080956E74020E4E75F
:100800008020D8E70020D6E706F104094DE7284606
:1008100052E7206ABDE8F09F506D04002DE9F047D3
:1008200091460F4680460446002614F8015B2DB120
:10083000FFF7A8FD0068405DC007F6D12B2D02D060
:100840002D2D18D0641E4A463946204600F0EEFC95
:1008500027B13968A14201D1C7F800804FF00204E6
:1008600071050BD54042002803DD00F0DDF904607E
:10087000A007BDE8F08746F48066E4E70028F8DAD0
:1008800000F0D2F904606FF00040F2E740EA0103A3
:1008900010B59B070FD1042A0DD310C808C9121F29
:1008A0009C42F8D020BA19BA884201D9012010BD63
:1008B0004FF0FF3010BD1AB1D30703D0521C07E030
:1008C000002010BD10F8013B11F8014B1B1B07D194
:1008D00010F8013B11F8014B1B1B01D1921EF1D105
:1008E000184610BD40EA0103024630B59B0710D1FF
:1008F0004FF0013400E008C208C91D1B9D4315EAF2
:10090000C41FF8D013F0FF0102F8011B0DD01B0A21
:10091000F8E711F8013B002B02F8013B05D011F874
:10092000013B002B02F8013BF3D130BD10B5431C55
:1009300002E010F8011B71B18107FAD14FF00132CA
:1009400002C88C1A8C4314EAC211F9D0C01A0A06E4
:1009500003D0C01E10BDC01A10BD0A0401D0801EF5
:1009600010BD0902FCD0401E10BD421E12F8013F0E
:10097000002BFBD111F8013B002B02F8013BF9D110
:100980007047032A40F2308010F0030C00F015800D
:1009900011F8013BBCF1020F624498BF11F801CB82
:1009A00000F8013B38BF11F8013BA2F1040298BFE7
:1009B00000F801CB38BF00F8013B11F0030300F051
:1009C0006780083AC0F0088051F8043B083A51F8B3
:1009D00004CBA0E80810F5E7121D5CBF51F8043BFA
:1009E00040F8043BAFF30080D20724BF11F8013B6D
:1009F00011F801CB48BF11F8012B24BF00F8013BCF
:100A000000F801CB48BF00F8012B7047431A28BFFC
:100A10009A427FF6B6AF032A1044114440F2268072
:100A200010F0030F1EBF11F8013D521E00F8013DEA
:100A300010F0030F7FF4F6AF11F0030300F0AB8466
:100A4000083AC0F00B8051F8043D083A51F804CD43
:100A500040F8043D40F804CDFFF7F3BF121D5CBF22
:100A600051F8043D40F8043DAFF30080D20724BFA5
:100A700011F8013D11F801CD48BF11F8012C24BF38
:100A800000F8013D00F801CD48BF00F8012C704787
:100A900010B5203AC0F00B80B1E81850203AA0E819
:100AA0001850B1E81850A0E81850BFF4F5AF5FEA4D
:100AB000027C24BFB1E81850A0E8185044BF18C900
:100AC00018C0BDE810405FEA827C24BF51F8043BA7
:100AD00040F8043B08BF7047D20728BF31F8023BFB
:100AE00048BF11F8012B28BF20F8023B48BF00F88F
:100AF000012B704702F0FF0343EA032242EA02425D
:100B000000F002B84FF000020429C0F0128010F08B
:100B1000030C00F01B80CCF1040CBCF1020F18BFD9
:100B200000F8012BA8BF20F8022BA1EB0C0100F06C
:100B30000DB85FEAC17C24BF00F8012B00F8012B3F
:100B400048BF00F8012B70474FF0000200B5134674
:100B500094469646203922BFA0E80C50A0E80C50DD
:100B6000B1F12001BFF4F7AF090728BFA0E80C508E
:100B700048BF0CC05DF804EB890028BF40F8042B87
:100B800008BF704748BF20F8022B11F0804F18BFF4
:100B900000F8012B704700004FF0013C50F8042B87
:100BA00051F8043B9A4221D1A2EB0C03934313EA80
:100BB000CC1317D150F8042B51F8043B9A4215D1AD
:100BC000A2EB0C03934313EACC130BD150F8042B84
:100BD00051F8043B9A4209D1A2EB0C03934313EA68
:100BE000CC13DBD04FF00000704700BFD01A01BA21
:100BF000B1FA81F101F0180122FA01F0CB40C1F104
:100C00002001DBB2C0B2C01A2CFA01F3D11A914311
:100C100011EAC311E6D170477047704770477047BB
:100C20000048704760350220004870474035022078
:100C300030B5B0F10A024FEA900E71F100034EEAAE
:100C4000817EB0EB0E0061EB91014FEA101E4EEA7F
:100C5000017E10EB0E0041EB11114FEA102E4EEA0F
:100C6000016E10EB0E0041EB11214FEA104E4EEADF
:100C7000014E10EB0E0041EB1141401841F1000113
:100C80004FEAD00040EA41704FEAD10110EB8005F5
:100C90004FEA810444EA907444EB01046D1944EB7B
:100CA0000404521BA3414FF0000348BF0A3200D591
:100CB00030BD401C41F1000130BD10B5FFF7B4FF5D
:100CC000006810BD10B50446FFF7AEFF046010BD0C
:100CD0002DE9F0470D4699469246044600F1240856
:100CE0000168880604D5E06921F01001216000E068
:100CF0000120A84201DD471B00E00027A1697A1905
:100D000002EB0900081AA0612078C00602D4204630
:100D1000FFF7E0FB002608E0D4E901211AF80600FD
:100D20009047206A401C761C20624E45F4DB2078F8
:100D3000C0060AD52046FFF7CDFB06E0D4E9012125
:100D400030209047206A401C2062381EA7F101071E
:100D5000F4DC07E0D4E9012118F805009047206A87
:100D6000401C2062281EA5F10105F3DC2046FFF798
:100D7000C7FB2078000602D50220BDE8F0870120DD
:100D8000FBE770472DE9FF4F0C461E464FF0FF373B
:100D90008BB0D2E90001DDF860800A908A46C1F389
:100DA0000A5505B93D46002108464FF00000BAF14A
:100DB000000F00F4400005DA00EB80004FF4400122
:100DC00001EA50004FEA9059B9F1010F00DDB94630
:100DD0000A9850EA4A000ED044F61050A5F2FF35AA
:100DE00045432F14B8F1000F1ED07542291E1EDD99
:100DF000C9F100021CE0B8F1010F4FF0000001D072
:100E0000302103E0F24305E02154401CB042FBDBFB
:100E100030460022002121540B99C1F80880C1E915
:100E200000200FB0BDE8F08FBD1B6D1CDEE74A4609
:100E300000DA694206A800F04BFB06AB93E8070016
:100E400003AB83E8070050460A9901F0A0F88DE84B
:100E50000700A0F500501F3800900398002D0ADD10
:100E600042F21F014A460844002303A90390684642
:100E700001F04CFB09E0A0F500504A461F38002362
:100E800003A90390684601F06BFB8DE8070000049E
:100E9000000C03D04FF0FF30410800E01046B8F1DD
:100EA000000F03D00022009215461EE0751E05D4E7
:100EB000FFF7BEFE303262556D1EF9D5B3460122F2
:100EC000084302D000227F1C04E02078302801D1A2
:100ED00000227F1E002A099784D01DE0112D07DA19
:100EE000FFF7A6FE303262556D1C50EA0102F5D1C3
:100EF000084302D00098C8B10EE00021681E05E04A
:100F0000235C625C63542254401E491C8142F7DB1F
:100F1000AB46A81B401E0990002004F80B000B985C
:100F2000099AC0F80880C0E9002B7AE711264FF033
:100F3000000857E72DE9F04F88460446D21D22F0FD
:100F4000070191B0D1E90001CDE90A012BF0C1FB05
:100F500002460B98C00F01D02D2007E020688107C2
:100F600001D52B2002E0202101EAC000032A0990CC
:100F700001D0072A05DB03464146204600F03AFA35
:100F80000BE12078800601D5E06900E00620B8F189
:100F9000650F814606D0B8F1660F18D0B8F1670F1B
:100FA00070D131E00020B9F1110F009001DB112365
:100FB00001E009F101030AAA01A90CA8FFF7E2FE6A
:100FC000DDE90C70002609F10105834647E00120A8
:100FD0004B4600904FF000470AAA01A90CA8FFF762
:100FE000D1FEDDE90DB00C995D46002610B909F17E
:100FF00001000D18B9EB050003D4C0F1FF3609F16B
:101000000105A5EB09002BE0B9F1010F01DA4FF062
:1010100001090020B9F1110F0090484601DD1123AC
:1010200000E003460AAA01A90CA8FFF7ABFEDDE920
:101030000C704D4600268346207800070AD4AB4545
:1010400000DA5D4601A8012D04DD411911F8011CEB
:10105000302907D04F4502DA17F1040F04DA0120D6
:1010600082460FE06D1EEEE7002F02DCED1B3E44D2
:1010700003E0781CA84200DD7D1CB81B00F1010ACA
:101080004FF000472078000703D4AA4501DB4FF05A
:10109000FF3A0021B7F1004F0DF143088DF84310DE
:1010A00024D002202B23002F01DA7F422D230A2196
:1010B000021EA0F1010000DC5FB197FBF1FC97FB81
:1010C000F1F201FB1C7C17460CF1300C08F801CD45
:1010D000EEE7A8F1010003702188090501D545213B
:1010E00000E06521A0F1010800F8011C09980FA992
:1010F000A1EB0807FF1D00B10120411901EBEA70C7
:10110000A1693844081A401EA0612078C00602D4A4
:101110002046FFF7DFF9099828B1D4E9012190476B
:10112000206A401C20622078C00622D52046FFF7A6
:10113000D1F91EE0002E04DBB34502DD01A8805D7D
:1011400000E03020D4E901219047206A401C206251
:10115000761CAAF101005FEA000A0AD1FFF760FDE0
:10116000C0680168405CD4E901219047206A401CB6
:101170002062281EA5F10105DCDC07E0D4E901218D
:1011800018F8010B9047206A401C2062381EA7F116
:101190000107F3DC2046FFF7B3F9032011B041E665
:1011A00001694A1C02610878704700B58FB0CDE92B
:1011B00001310021059105497944CDE9031011461B
:1011C0006846FFF767FA0FB000BD0000E5FFFFFFBC
:1011D0000A6802F8010B0A60704710B5436913B141
:1011E000AFF3008001E0FFF79CF9012010BD1278F9
:1011F00000F124010A7000224A700122EDE7116813
:101200004FF0FF32E9E70000074B70B50D467B4415
:10121000FFF7CBFF0446284600F0CCF910B14FF0A1
:10122000FF3070BD204670BD7BF602002DE9F05FF7
:10123000824615468B4600270AF10104B94600781C
:10124000302801D09DB113E014F8010B0127782854
:1012500003D0582801D045B10AE00DB1102D07D1B7
:10126000002714F8010B102502E0082500E00A25EC
:101270000026B0460EE005FB080005FB06F101273D
:101280001FFA80F801EB1046B6F5803F00D3B9464F
:1012900014F8010B294600F0EDF80028EBDABBF159
:1012A000000F05D00FB1641E00E05446CBF800409B
:1012B000B9F1000F06D0FFF7B7FC02210160C81E8C
:1012C000BDE8F09F48EA0640FAE700000FB40023AB
:1012D00000B589B00CA900910B99CB60214B7B44E0
:1012E0000693214B7B44079304236FF00042CDE922
:1012F00001321E4A7A446B4608920246002033F0BF
:1013000099FE09B05DF814FB70B506464FF0FF304A
:1013100015460C46324686B00091CDE9010169467A
:101320000020049004A8FFF7D1FF0246049821187A
:1013300025B108B1084600E020462860049800283E
:101340000DD0002A02DD0098884208D03246081BE2
:1013500069460094CDE9010404A8FFF7B7FF06B081
:1013600070BD0000AF010000C70100008BF1FFFF5E
:10137000431A28BF9A427FF68BAB104410F0030F3C
:1013800011441EBF11F8013D521E00F8013D10F03E
:10139000030F7FF4F6AF103AC0F00A8010B531E9C0
:1013A0001850103A20E91850BFF4F9AFBDE81040CA
:1013B000530724BF31E9081020E9081044BF51F851
:1013C000043D40F8043D12F0030F08BF7047D207F8
:1013D00028BF31F8023D48BF11F8012C28BF20F882
:1013E000023D48BF00F8012C7047000000487047DC
:1013F000403502202DE9F0411F46044603260168CE
:10140000072A01F4006004DB08B116A505E016A563
:1014100003E008B115A500E015A521F0100020603B
:10142000A069C01EA0610FB1401EA0612046FFF759
:1014300051F84FB1D4E9012138469047206A401C49
:101440002062C01C206206E0206AFAE7D4E901218C
:1014500015F8010B9047761EF8D22046FFF750F89A
:10146000BDE8F0814E414E006E616E00494E46006F
:10147000696E66003A2800D2303820F02002412AF6
:1014800001D3A2F13700884201D34FF0FF307047FB
:10149000426842B1016811F8013B23B1521EC0E914
:1014A0000012184670470121C160881E70474268CB
:1014B0005AB1C368016843B983688B4205D0491E9D
:1014C000521CC0E90012002070474FF0FF307047F7
:1014D0002DE9F047814616468AB0354878440DC854
:1014E0008DE80D0032487844801C03AC0DC884E8B8
:1014F0000D0041F69B300844372190FBF1F290FB40
:10150000F1F5A5F1800501FB12041B3C02D56442F4
:10151000012000E00020DFF898A080460027FA4470
:10152000AAF1BE0A0EE0E0070AD03246684607EB91
:10153000470101230AEB810101F012F88DE8070051
:1015400064107F1C002CEED1194F7F44AE3F19E090
:10155000E80715D007EB04100DF1180A90E80E000B
:101560008AE80E00C068F04201D19819089032460E
:10157000012306A903A800F0F3FF03AB83E80700EB
:101580006D10641C002DE3D14FF001033246694613
:10159000B8F1000F03A802D000F0B8FF01E000F09E
:1015A000DFFFC9E90001C9F808200AB0BDE8F087EB
:1015B000A85F0400007B00F0800070477546FFF7CD
:1015C00015FFAE4605006946534620F007008546E4
:1015D00018B020B5FEF7A4FEBDE820404FF000068D
:1015E0004FF000074FF000084FF0000B21F007010B
:1015F000AC46ACE8C009ACE8C009ACE8C009ACE84E
:10160000C0098D46704700002DE9FF4F06468BB09C
:101610000878FF2806D0491C2D2805D000244FF05B
:10162000000908E000200CE00124F8E709EB890339
:10163000491C00EB43090878FF28F7D114B1C9F120
:1016400000008146107800252C46AA4629462D2800
:1016500001D02B2804D1521C2D2813D00020824603
:101660008B461078FF280FD04FF0000C0A21521C37
:10167000A5FB017804FB018105FB0C11C5194BEB9F
:101680000104EEE70120EAE7002108464FF00000E0
:10169000BAF1000F02D000EB80004008C0F3815780
:1016A000012F01DD4FF0FF370E9955EA040009EBD9
:1016B00001080BD04FF0020918F5FA7F16DA4FEA4D
:1016C000CA70002F706008DD012007E04FEACA7081
:1016D000C6E900B00FB0BDE8F08F00203060FFF722
:1016E000A3FAC0F800901821084616E0B8F5FA7F72
:1016F00018DD002F02DAF748784401E0F648784414
:10170000D0E90010C6E9001040EACA707060FFF727
:101710008BFAC0F80090142108460FB0BDE8F04FD6
:1017200033F023BC002108464FF00000B8F100015F
:10173000099002DAC7F1000200E03A4601DAC8F186
:10174000000106A8FFF7C4FE06AB93E8070003AB51
:1017500083E8070044F23E005BEA0401009058462B
:1017600004D144F21E012C465D460091210C09046F
:10177000014306D10099240444EA15442D0410398C
:10178000009104F07F41014306D10099240244EA0C
:1017900015642D020839009104F07041014306D10F
:1017A0000099240144EA15742D01091F009104F0E9
:1017B0004041014306D10099A40044EA9574AD006C
:1017C000891E009104F00041084304D100986D196E
:1017D0006441401E00904FF001033A466846B8F15C
:1017E000000FCDE9014503A902DD00F0CEFE01E0C6
:1017F00000F0A1FEBAF1000F04460D4601D084F0BE
:101800000044002108464FF00000099940F2FF779C
:10181000484010F00C0F07D124F00040284303D0BB
:10182000C4F30A50B84212D1FFF7FEF9C0F8009095
:10183000C4F30A50B8420AD1A8487844D0E900104D
:10184000C6E9001004F000410843706042E7C6E9B1
:1018500000543FE72DE9FF4F1F464FF0000A4FF0BD
:10186000FF38454691B0D7E90146CDF83CA0FFF7D7
:10187000D7F9C0680168405C1090B96912986D1C76
:101880008847396A814688470028F6D1B9F1FF3F79
:101890000AD0002E24F4D06411DDB9F12B0F08D04A
:1018A000B9F12D0F0BD102E0404615B013E744F417
:1018B0008064B96912986D1C8847761E8146600560
:1018C00004A901D52D2000E02B20002E01F1010BF1
:1018D0000DF130088DF810003FDDB9F1690F08D027
:1018E000B9F1490F05D0B9F16E0F02D0B9F14E0F21
:1018F0001CD13B4601A8009580E85002DDE9121298
:101900006FF0020033F09AFBC11CCED10EE0B96932
:1019100012986D1C884781461398761E44F4007413
:1019200005600F98401C002E0F9016DDB9F1300FA6
:10193000EDD0B9F1780F02D0B9F1580F0DD10F9851
:1019400001280AD13B46CDE90054DDE91212001FFF
:10195000029633F071FBC11CA7D1109989453ED185
:1019600044F0800406E01399681CAAF1010A44F4CB
:1019700000740860B9696D1C1298761E884730287B
:101980008146F0D02BE01099894505D1200603D47B
:10199000761E44F0800418E048462CF033FB08B370
:1019A000761E0DF123018B4544F4007408D2A9F191
:1019B00030000BF8010B200607D5AAF1010003E067
:1019C000200602D40AF101008246A00502D513992F
:1019D000681C0860B96912986D1C88478146002E02
:1019E000D1DC53E0002E51DDB9F1650F02D0B9F121
:1019F000450F4BD1A00549D5B9696D1C1298761ECB
:101A000024F440748847002E81460CDD2B2804D036
:101A1000B9F12D0F07D144F48074B96912986D1C87
:101A20008847761E8146E00501D52D2100E02B2157
:101A300008F8011BCDF8008021E0761E0DF1390178
:101A4000884544F400740CD2A9F1300010F0FF0076
:101A500088F8000002D10099884509D908F10108E9
:101A600006E0E00501D51E4801E042F20F70824613
:101A7000B96912986D1C8847814613980560002E3D
:101A800004DD48462CF0BEFA0028D6D1F969129838
:101A90008847FF2053468BF8000088F8000000209C
:101AA0000A900B9004AA0CA90AA8FFF7ADFDA005A7
:101AB00002D46FF00100F8E614F0240F12D0E00712
:101AC0001CD13868DDE90A12031D3B600068C0E9DB
:101AD000001213E0486A04003A6A0400FE68040039
:101AE000F1D8FFFF0AA968462AF06EFFE00705D18A
:101AF0003868009A011D3960006802602846D4E603
:101B000010B50446AFF300802046BDE81040FEF754
:101B1000DBBB00002DE9FF4F1F464FF03C0987B0AB
:101B20004FF00042DDE9141001F10108DDF858A082
:101B300002EA405003900020059083460546044683
:101B40000490B969461E08988847AAF1010A0290D4
:101B5000BAF1000F3BDD02982E2815D01021FFF7B7
:101B600089FC00282EDB4FF0010B0599014317D0AB
:101B7000B9F1000F0BDB4A46C11700F0F5F9054338
:101B80000C43A9F1040905E0012004900BE008B121
:101B900045F0010501200590049820B9361D02E0AA
:101BA000049800B1361FB969089808F10108884700
:101BB000BBF1000FAAF1010A0290C9D00999C1F83E
:101BC0000080C5E70298702808D0502806D0F9692F
:101BD00008988847BBF1000F14D04FE00020029016
:101BE0000120BBF1000F049009D0B969089808F1F1
:101BF00001088847AAF10109B9F1000F07DCF9696A
:101C0000089888476FF001000BB0BDE8F08F2B28D3
:101C100004D02D280CD14FF0FF300490B9690898FA
:101C200008F101088847A9F10109B9F1000FE6DDC3
:101C3000411CE4D00A21FFF71DFC0028DFDB0299DC
:101C400008F1010801EB810100EB41000290B96944
:101C5000089888470A21FFF70DFC099AA9F10109A4
:101C6000B9F1000FC2F8008001DD0028E7DAF96958
:101C7000089888470499029800FB016655EA040019
:101C800004D004F04041090002D006E0039898E037
:101C9000A40044EA9574AD00B61E04F000410800AB
:101CA00002D16D196441761E159810F0240F03D0EF
:101CB0004FF00B095C4803E04FF028096FF07D00FE
:101CC0008246564507DAAAEB06018944B9F1410F6D
:101CD00001DD4FF0410901200021A9F1010200F0CE
:101CE00043F9024628400B462140084301D0012118
:101CF00000E00021501E029143F1FF3128402140B5
:101D0000084301D0012000E000200299834651EAF7
:101D10000B014FD0002108464FF00000039900F45A
:101D2000400039B100EB80004FF4400100EBD0706F
:101D300001EA60008015012802DD4FF0FF3000E06D
:101D400013D0401C36D0029860B3BBF1000F0CD109
:101D50004A460120002100F007F9284021400843AD
:101D600001D0012000E00020E0B101204A4600211E
:101D700000F0FAF8034640190A4661412D1A8C41D9
:101D800011D3B9F1400F09DD159810F0240F02D0DE
:101D9000AAF1340603E0AAF1170600E0761C00253C
:101DA0004FF0004406E05B1E42F1FF3220EA0305DB
:101DB00021EA0204CAF10100B04206DA1B49039885
:101DC00008430190002000900EE0039AC4F3D32151
:101DD000E80A0A43164940EA44500A433146CDE92D
:101DE000000268462AF0F9FD159810F0240F0BD078
:101DF0001598C00715D13868DDE90012031D3B6056
:101E00000068C0E900120CE002A869462AF0DCFD77
:101E10001598C00705D13868029A011D396000681D
:101E200002604046F0E6000002FCFFFF0000F07F89
:101E30000000F03F2DE9FF4F92461D4685B04FF060
:101E40000041DDE9124BDDE914727F1E01EA4B50BF
:101E5000414940F0FF4940EA0108002122F02000FA
:101E60004928049102D04E2828D04CE03BA00126FE
:101E700007C88DE80700A9690698641C88477F1E7B
:101E8000014606D41DF8060018B121F02001814258
:101E90000BD0E96906988847032E34D0082E32D03B
:101EA0006FF0010009B0BDE8F08F761C032E01D061
:101EB000082EE0D1601CCAF80000DCE7A96906988A
:101EC000641C88477F1E2AD420F02000412826D198
:101ED000A9690698641C88477F1E20D420F0200042
:101EE0004E281CD1A9690698641C88477F1E48F4B7
:101EF000002849F48009CAF8004001D4282806D0F7
:101F0000E969069888475FEACB7012D022E0A96998
:101F10000698641C88477F1E01D4002803DAE9690B
:101F200006988847BCE72928F1D1641CCAF800400C
:101F3000E9E71BF0240F07D028680499031D2B60E4
:101F40000068C0E9001805E02868021D2A600068E2
:101F5000C0F800902046A5E70000F07F494E4649B2
:101F60004E49545900000000B2F120030AD5C2F1D5
:101F7000200301FA02F120FA03F300FA02F041EA29
:101F80000301704700FA03F14FF0000070475FEA69
:101F9000400C08BF91F0000F4FEA8C234FEAC1229A
:101FA00043EA51514FEA1C5018BF00F5F0404FEA88
:101FB000300018BF41F000415FEA6C5C00F02980FE
:101FC000BCF1FF3F08BF40F080407047130C06BFD4
:101FD00012044FF0100C4FF0000C130E04BF12024D
:101FE0000CF1080C130F04BF12010CF1040C930F39
:101FF00004BF92000CF1020CD30F04BF52000CF18D
:10200000010C11464FF00002A0F11F00A0EB0C00E4
:10201000704711F0004F08BF704731F000413FF4A6
:10202000D5AF0B0C06BF09044FF0100C4FF0000C9D
:102030000B0E04BF09020CF1080C0B0F04BF0901C1
:102040000CF1040C8B0F04BF89000CF1020CCB0FB8
:1020500004BF49000CF1010CCCF12003A0EB0C00F3
:1020600022FA03F302FA0CF241EA030100F1010043
:10207000704720F07F4C80EA030023F07F47ACEBF1
:10208000070303F57C5300F0004003F1FF032DE943
:1020900080494FEA154B09B44FEA144325EA0B4E29
:1020A00024EA03480FF2042606EB132749083E787A
:1020B0005FEA320203FB0667C7F5000707FB06F677
:1020C0004FEA54374FEAD64606F1020607FB066C84
:1020D000CCF1005C4FEA1C472CEA074C07FB06F4E6
:1020E0000CFB06F504EB15464FEA961634BF0020AC
:1020F0004FF000404FEAD13706FB07FC4FEA1C4C7B
:102100000CFB0BF7D21B03FB0CF761EB07010CFB7D
:102110000EF7B0EB074072EB17420CFB08F734BF29
:10212000A2EB0742B2EB074261EB17414FEA0C44C6
:102130004FEA910706FB07FC4FEA1C4C0CFB0BF720
:10214000B0EBC74072EB573203FB0CF734BFA2EB86
:10215000C742B2EBC74261EB57310CFB0EF7B0EB55
:10216000C70072EB57720CFB08F734BFA2EBC70233
:10217000B2EBC70261EB5771039F4FEA816141EAFD
:10218000921104EBCC044FEAD1374FEA826206FB8E
:1021900007FC42EA90124FEA80604FEA1C4C0CFBAD
:1021A0000BF7D21B03FB0CF761EB07010CFB0EF7DF
:1021B000B0EB074072EB17420CFB08F734BFA2EB01
:1021C0000742B2EB074261EB17414FEA8C554FEAE9
:1021D000910704EB9C2406FB07FC4FEA1C4C0CFB0C
:1021E0000BF7B0EBC74072EB573203FB0CF734BF71
:1021F000A2EBC742B2EBC74261EB57310CFB0EF7C3
:10220000B0EBC70072EB57720CFB08F734BFA2EBC0
:10221000C702B2EBC70261EB577115EB4C254FEAD1
:10222000816141EA92114FEA82624FEAD13742EA74
:10223000901206FB07FC44F100044FEA80604FEA6D
:102240001C4C0CFB0BF7D21B03FB0CF761EB0701DB
:102250000CFB0EF7B0EB074072EB17420CFB08F7D4
:1022600034BFA2EB0742B2EB074261EB174115EB1B
:102270001C154FEA813141EA92414FEA823242EA2B
:1022800090424FEA80304FEA0C7644F1000448EA6D
:1022900003434EEA0B484FF0000EB2EB080C71EB13
:1022A000030724BF624639464EEB0E0E4FF0000B7B
:1022B0000018524149414BEB0B0BB2EB080C71EB90
:1022C00003077BF1000B24BF624639464EEB0E0E2E
:1022D0004FF0000B0018524149414BEB0B0BB2EB96
:1022E000080C71EB03077BF1000B24BF62463946F3
:1022F0004EEB0E0E51EA020718BF46F0010616EB30
:102300000E7655F1000254F1000103D5BDE88901B4
:10231000BDE80088BDE88901BDE80048B619524112
:1023200041EB0101A3F10103704780807F7E7D7C3A
:102330007B7A7978777676757473727171706F6E57
:102340006E6D6C6C6B6A6A69686867666665646402
:10235000636362616160605F5F5E5E5D5D5C5C5B8C
:102360005B5A5A59595858575756565555555454FB
:10237000535352525251515050504F4F4F4E4E4D59
:102380004D4D4C4C4C4B4B4B4A4A4A4949494848A5
:1023900048474747474646464545454444444443E5
:1023A00043434342424242414141000046EA06461D
:1023B000A3F570534FEA164646EA42564FEAD22238
:1023C00042EA415210B54FEAD121A3F1010300F0D6
:1023D0002FF820F0004000F1020C00F0004701EB64
:1023E00000501146BCF5006F40EA070000D210BD56
:1023F000BAF1000F0AD01CB503B44FF004004FF03F
:1024000004014FF000000FBCBDE810404FF0000188
:10241000BBF1010FB9BF04484FF0FF310348002161
:1024200040EA070010BD00BFFFFFEF7F0000F07F14
:10243000002B9C4630D477002BD01CB54FEA3707D1
:1024400003B44FF010004FF01001BAF1000F06D0A6
:10245000BCF1000FDCBF40F0080040F008014FF075
:1024600000000FBCBDE810400BF1010BBBF1010FE8
:1024700008BF5FEA170722BF12F1010211F1010143
:102480004FF0004143F1000300F0004043EA000038
:102490007047F9D35708D0E746EA064613F1400FD4
:1024A0004FEA16461FDD13F1200FDFBF16430A4621
:1024B000002120335B42BED0C3F1200746EA064626
:1024C00002FA07F74FEA164646EA0706C3F1200765
:1024D00022FA03F201FA07F721FA03F14FF00003A1
:1024E00042EA0702A7E746EA020646EA06464FEA3C
:1024F000164646EA0106BCBF46EA0646360C4FF0D1
:1025000000034FF000024FF0000194E72DE9804CEA
:102510009A46934670B491E8380007C831EA400CF7
:1025200048BF34EA430C03D5FFF7A3FDFFF780FF54
:10253000F0BCBDE8008C2DE9804C9A46934670B4FF
:1025400091E8380007C831EA400C48BF34EA430C30
:1025500003D5FFF78EFDFFF729FFF0BCBDE8008C27
:102560002DE9804C9A46934670B491E8380007C82C
:1025700010F0804F08BF13F0804F03D100F01AF81D
:10258000FFF756FFF0BCBDE8008C2DE9804C9A4661
:10259000934670B491E8380007C810F0804F08BF28
:1025A00013F0804F03D100F005F8FFF7FFFEF0BCF9
:1025B000BDE8008C20F07F4780EA030023F07F4CC9
:1025C00007EB0C03A3F57C5300F00040A3F1FE03DE
:1025D00092F0000F00F0B38095F0000F00F07780CC
:1025E0002DE901494FEA11404FEA144621EA00481B
:1025F00000FB06FC24EA064708FB06F607FB08F882
:1026000000FB07F718EB06484CEB164C4FEA124B51
:1026100018EB07484FEA15464CEB174022EA0B4EE1
:102620000BFB06FC25EA06470EFB06F607FB0EFE33
:102630000BFB07F71EEB064E4CEB164C4FF000065B
:102640001EEB074E4CEB174B18EB0B0840F100004C
:1026500018EB0E0B58EB000840F100008F1A4FF0FA
:1026600000013CBFC943661B14BFB5EB040C00213D
:102670003CBFC943F61B4FEA17444EEA8E0E27EAC9
:1026800004454FEA1C4704FB07622CEA074C05FB94
:1026900007F70CFB05F604FB0CFC16EB074642EBB8
:1026A000174216EB0C4642EB1C421BEB060658EB9E
:1026B0000202414146EA9E0601D5BDE80189B619EC
:1026C000524141EB0101A3F10103BDE801894FEA49
:1026D00014454FEA114724EA054621EA074C05FB59
:1026E00007F406FB07F70CFB06F105FB0CFC11EBEE
:1026F000074144EB17444FEA124711EB0C4144EBFE
:102700001C4422EA074C05FB07F206FB07F70CFB0B
:1027100006F605FB0CFC16EB074642EB174216EBE0
:102720000C4642EB1C456A1854F1000148BF704743
:10273000B619524141EB0101A3F10103704795F035
:10274000000F37D04FEA11424FEA144721EA024600
:1027500024EA074C02FB07F106FB07F70CFB06F423
:1027600002FB0CFC14EB074441EB17414FEA154701
:1027700014EB0C4441EB1C4125EA074C02FB07F526
:1027800006FB07F70CFB06F602FB0CFC16EB0746F4
:1027900045EB174516EB0C4645EB1C42121951F15F
:1027A000000148BF7047B619524141EB0101A3F146
:1027B000010370474FEA14454FEA114724EA0546E2
:1027C00021EA074C05FB07F106FB07F70CFB06F2B5
:1027D0004FF0000605FB0CFC12EB074241EB1741E2
:1027E00012EB0C4251EB1C4148BF7047921841EB71
:1027F0000101A3F101037047EFF3098141B1F1EE4B
:10280000101A40F8041D20ED200A3E490A681060A5
:102810007047B0EC200A02C8E1EE101A3A490A6883
:102820001060704772B64EF62250CEF2000040F2B1
:10283000FF01C0F2000101704FF0000080F3098831
:1028400011F02EFE40F27430C2F20000016881F3F4
:10285000088840F2FE20C2F2000040F2FF21C2F2DE
:1028600000010A78027040F26C35C2F2000540F2B5
:102870007031C2F200010A682A60106880F309888A
:10288000EFF3148040F0020080F31488BFF36F8FE1
:10289000BDE8F00F0FBCBDE8005006BC62B60847AB
:1028A0001A484FF080510160704718484FF080512E
:1028B0000160704772B6EFF3098020E9F00F40F233
:1028C0006C35C2F200052E683060744611F0E8FDE8
:1028D00040F2FE20C2F2000040F2FF21C2F20001ED
:1028E0000A78027040F27031C2F200010A682A6070
:1028F00044F0F40E1068B0E8F00F80F3098862B677
:10290000704700006C0300207003002004ED00E01D
:102910002DE9F0410D460146002004464E1908E01D
:102920000702301B401E80B200F007F8641C3844D8
:10293000E4B2AC42F4D3BDE8F08110B504460BF02C
:102940007DFF200AA02101EB4000C0B20BF046FF42
:102950000BF0B6FFE0B20BF041FF0BF0B1FF0BF054
:102960006DFFA1200BF03AFF0BF0AAFF00200BF047
:1029700001FF04460BF082FF204610BD2DE9F04117
:1029800016460D460746002409E0E00025FA00F04F
:10299000C1B2381980B200F006F8641CE4B2B44247
:1029A000F3D3BDE8F08170B50D4604460BF046FF49
:1029B000200AA02101EB4000C0B20BF00FFF0BF08A
:1029C0007FFFE0B20BF00AFF0BF07AFF28460BF016
:1029D00005FF0BF075FF0BF051FFBDE870400A20BA
:1029E0002BF0F6BD38B5456804460146284618F078
:1029F00013FD00282BD02068304A11280DD006DCAA
:102A00000B2825D00E2833D00F2852D112E02828C9
:102A100049D0B0F5107F4CD108E09268002A16D05A
:102A20002146284601B0BDE83040104721462846DF
:102A30005268F7E7284604F007FA0090406E0468F1
:102A4000684604F06BFA002C01D02846A04738BD38
:102A5000284604F0F9F90090683004F04BF900982A
:102A600003216C3004F054F9684604F057FA20E072
:102A7000E168486809680D2902D0202913D105E0D2
:102A8000002810DD284626F0BBF906E0002804DD0A
:102A90002846BDE8384026F0B3B92846BDE838409E
:102AA000022126F0C3B9E06818B90021284600F0D9
:102AB00097F92046BDE8384019F0EAB8E80500204B
:102AC000F0B5044685B08069B4F90850668A0027DD
:102AD000CDE90265CDE900170490B4F90C00B4F912
:102AE0001060C118B4F90A00B4F90E50104433460E
:102AF0002A4600F007F80546616800F07AF905B04B
:102B00002846F0BD2DE9F04F85B01F46DDE911B430
:102B1000DDE90E5690468946824605F095FF164837
:102B20004C34CDE90204CDE900563B4642464946C5
:102B3000504618F0F5FF040018D004F085F9102273
:102B40005946049018F03AFE049830220B4934306C
:102B5000FDF79EFF094D04990C3D2868486604A8BE
:102B600004F0DCF9286841682046884707F0D8FB64
:102B700005B02046BDE8F08FE5290008F4050020E7
:102B8000F0B5044680688B4989B051F820506068E0
:102B900000287DD0052804D006287AD0122879D1C3
:102BA000AEE0E86900284FD095E80E008DE80F00F0
:102BB00004F110010FC908F04FF8002655F826005F
:102BC00006F001FEA169E8690A1A216901446069F9
:102BD000304405F057F8A169E8690A1A21690144EF
:102BE000E069801B05F04EF8E169E8690A1A61693D
:102BF00001442069304405F0D7F8E169E8690A1A10
:102C000061690144A069801B05F0CEF8761C022E94
:102C1000D4DBA86806F0D7FDE069E9696669431A64
:102C2000206942183144801C521E05F019F9E169EF
:102C3000E869A2690B1A61690144101A401C921ECE
:102C400005F00EF9EE6913E05FF0000655F8260076
:102C500006F0B9FDE069831BA069821B60698119D8
:102C60002069304405F060F8761C022EEEDB022667
:102C7000D5E90301CDE900016169E0690844431029
:102C8000A069891C821B2069304404F0BFFF02E068
:102C900089E012E08AE0D5E90501CDE90001E369A8
:102CA00060690121184401EB6001A0699B1E821B31
:102CB0002069304404F0AAFF78E0206804F0C4F8EA
:102CC000049020681AF02EFC40B1A06808B10020E2
:102CD00008E00498006F28B1012003E00498406FD9
:102CE00000B10220049901EB8000C56E04A804F035
:102CF00015F900231A462846216804F0CFFC55E058
:102D0000206804F0A1F80490866EEEB3B0F95C7010
:102D1000A168D1B3032942D05FF0000100EB81012B
:102D2000406D0C6C06F06CFD204606F04CFD05A8CD
:102D300005F058F9BDF81410A88B0144ADF8141033
:102D4000BDF81810081AADF81800BDF81600801C60
:102D5000ADF81600BDF81A00801EADF81A000498F0
:102D6000B0F96020B0F95E1005A806F07BFB04A85E
:102D700004F0D4F8022006F0A7FE304604F064F810
:102D80003A4605A9079001E00BE006E004F0C6FD15
:102D90000DF11C0004F0C2F808E00121BEE7022199
:102DA000BCE704A8F6E7206819F0F2FF09B000209C
:102DB000F0BD0000D069040838B50D4604000ED0FF
:102DC00005F042FE204604F03FF800904565684655
:102DD00004F0A4F8204619F0C7FC07F0A1FA38BDAA
:102DE0004FF480720029114601D018F0A9BB18F0E9
:102DF000F3BA2DE9FF410E4605004FF0010421D042
:102E000005F022FE284604F01FF80190876E01A805
:102E1000009704F083F83146684608F001FA78B16B
:102E200000980024B84208D0284604F00DF801901C
:102E30000099816601A804F071F8284619F094FC05
:102E400007F06EFA04B02046BDE8F081FEE7F8B561
:102E5000446805460146204618F0DEFA002836D0C0
:102E600028680B2839D00E2805D00F2821D0B0F5BE
:102E7000107F3CD12CE0204603F0E6FF009010F8D4
:102E8000746F4778684604F049F820461AF04AFB08
:102E900010B3E8684168002929DD0068202826D1A0
:102EA0007F1CB7FBF6F006FB1071204600F045F9D9
:102EB0001DE02546204603F0C7FF0090006F046820
:102EC000684604F02BF8002C01D02846A047F8BD36
:102ED0002946204626F0EAFB09E0204603F0B4FF2D
:102EE0000090783003F006FF684604F017F8284693
:102EF000BDE8F84018F0CCBEF0B585B0B0F9085088
:102F0000468A84690296CDE903540027CDE900176B
:102F1000B0F90C10B0F91050B0F90E40B0F90A0039
:102F2000194410442B46224600F002F805B0F0BDCB
:102F30002DE9F04F85B01D46DDE90E9716468A460D
:102F40008346DDF8488005F07FFD254C0EB135B194
:102F50000AE020688068006880470646F7E7206836
:102F600080680068804705461D486FF07041001D6D
:102F7000C068884201D147F0010708F15400194A9E
:102F8000CDE90220CDE900972B46324651465846FE
:102F900018F0C6FD05001CD003F056FF1022049067
:102FA000119918F00BFC0E4904983C22091D34308D
:102FB000FDF76EFD049821680167022180F8741006
:102FC0000F21C16704A803F0A9FF206841682846C3
:102FD000884707F0A5F905B02846BDE8F08F000046
:102FE000A80800204F2E00082DE9FF47044600687E
:102FF00010B11AF097FA68B10022314850F8221047
:1030000060680A2841D007DCF0B306280DD00728F5
:1030100054D106E00122F0E712280AD019284DD138
:1030200037E020461DF096FD48E0204620F084F968
:1030300044E0206803F008FF0290B0F9548090F853
:103040005650476C466B02A803F068FF206800F0FA
:1030500039F88146684618F03BFFBDF8001009EBCF
:1030600005000844ADF80000246A304606F0C8FBAD
:10307000022006F029FD384606F0A5FB42466946C7
:10308000204604F04BFC19E007E0204620F0A6FDA6
:1030900014E0886904B0BDE8F087206819F078FE74
:1030A000206803F0D1FE0390B0F90610B0F90220B9
:1030B000891A491CC16703A803F030FF0020E9E723
:1030C000AC73040838B5044605F0BEFC204603F096
:1030D000BBFE0090C46F684603F020FF07F020F9A4
:1030E000204638BD38B505004FF000040CD005F07F
:1030F000ABFC284603F0A8FE009090F875406846A7
:1031000003F00CFF07F00CF9204638BD38B50C462B
:10311000050011D005F098FC284603F095FE0090BC
:10312000416BA14203D04463284619F01DFB684659
:1031300003F0F4FE07F0F4F838BD38B50C4605008E
:103140001BD005F081FC284603F07EFE009090F82D
:103150007410A1420CD980F87540684603F0DEFE79
:10316000284619F001FB0521284619F0BDFB02E0B5
:10317000684603F0D3FE07F0D3F838BDFEB50D4620
:10318000040022D0002D20D005F05EFC204603F084
:103190005BFE0190866F01A8009603F0BFFE2946F2
:1031A000684608F03DF870B10098B04208D020465B
:1031B00003F04AFE01900099816701A803F0AEFE7A
:1031C000204619F0D1FA07F0ABF8FEBD00B589B082
:1031D00024216846FDF7B8FC1920019003480068D7
:1031E000806841686846884709B000BDA80800208B
:1031F0007CB5214C0546216831F8220F4A8D1044D8
:1032000008804888CA8D10444880284604F0C4FECF
:103210002168498CADF800104618284607F0C6FE14
:103220003044401EADF8040004F0FEFF2168898C94
:10323000ADF802100844401EADF80600684619F0CB
:10324000FDFF04E0284603F01BF819F0ABFF00284F
:10325000F8D10A2D04D0BDF804002168401C488430
:10326000206830F8221F428D891A01804188C28D62
:10327000891A41807CBD000018050020054910B561
:103280000020486000F0A6F800F006F8BDE8104005
:1032900000F086B8840200202DE9F041104F00268E
:1032A00035463E807E80BE60FE607E61BE613E61CE
:1032B000FDF750F8804600247E6100F049F800F0E8
:1032C00057F87869641C24040544240CF4D0C7E939
:1032D00004564046BE61BDE8F041FDF73FB800002E
:1032E0008402002003490969884201D9401A7047C5
:1032F000002070478402002010B5FDF72BF8044928
:103300004C69FDF72BF82046BDE81040FFF7EABFF7
:103310008402002010B5FFF7EFFF0446FDF71AF80E
:10332000034A00215161FDF719F8204610BD000045
:103330008402002010B5FDF70DF804498C69FDF7F3
:103340000DF82046BDE81040FFF7CCBF84020020F6
:1033500010B5064C2088401C2080608810B900F011
:1033600051F8A0606088401C608010BD840200207D
:1033700010B50A4C6088401E0004000C60800CD11F
:1033800000F040F8E060A168401A6169814200D213
:103390006061A169814200D2A06110BD8402002059
:1033A00010B5FCF7D7FF0446FFF7D2FF1021054800
:1033B0000FF013FAFFF7DCFF2046BDE81040FCF7E2
:1033C000CDBF000028190120014948607047000066
:1033D0008402002010B509F0F5F808490A6842F0A7
:1033E00080720A60064900224A600A6842F00102BF
:1033F0000A60BDE81040FFF7E7BF0000FCED00E009
:10340000001000E00148406870470000001000E034
:1034100070B50E4C0025C4F898520D48016821F093
:10342000C0010160016841F0400101600948C0F835
:103430008C52022004F526742BF0F2F80120206053
:1034400002202BF0EDF8256070BD000000804342A3
:103450000020024000004442154810B5016886B0C3
:1034600041F080010160016801F08001059101686F
:1034700041F4807101600068012400F480700590BF
:103480004020CDE900040320CDE902406946094807
:1034900008F0EEF8082000906946074808F0E8F8C0
:1034A0000648C0F88C420648C0F8984206B010BDE5
:1034B00030380240001C024000200240000044421C
:1034C0000080434270B50E4C0026C4F898620D4847
:1034D000016821F0C0010160016841F04001016014
:1034E00009480125C0F88C52022004F526742BF0FF
:1034F00097F8256002202BF093F8266070BD00003D
:103500000080434200200240000044422DE9F04781
:10351000824619480024016821F0C0010160016859
:1035200001601E202BF07CF80025144EDFF850902F
:103530002F464FF00108C6F8987202202BF070F861
:10354000C6F898826006040ED9F80C0208B1641C13
:10355000E4B202202BF064F86D1CEDB2082DEAD322
:10356000BAF1000F04D0FFF753FF2046BDE8F08703
:10357000FFF7A8FFF9E70000002002400080434267
:10358000000044422DE9F04705461648016821F045
:10359000C0010160016841F040010160124E002746
:1035A000C6F8987202202BF03BF8DFF84080002428
:1035B0004FF00109E909C8F88C126806050E0220CF
:1035C0002BF02EF8C6F8989202202BF029F8C6F8B6
:1035D000987202202BF024F8641CE4B2082CE9D382
:1035E000BDE8F087002002400080434200004442D2
:1035F00070B50F48016821F0C0010160016841F019
:10360000400101600B4E0120C6F88C020A4DC5F83E
:1036100098021E2005F5267506F523762BF000F896
:103620000024346002202AF0FBFF2C6070BD0000F3
:1036300000200240000044420080434270B50F4821
:10364000016821F0C0010160016841F040010160A2
:103650000B4E0020C6F898020A4DC5F88C021E20B9
:1036600005F5237506F526762AF0DAFF0124346085
:1036700002202AF0D5FF2C6070BD0000002002401F
:10368000008043420000444270B5114800240168A4
:1036900021F0C0010160016801600E4D0120C5F8F4
:1036A0008C020D4EC6F8980207E0641CE4B2FA2CB6
:1036B00003D9FFF7C3FF012070BD02202AF0B0FF3D
:1036C000D5F80C020028F0D1C6F8980270BD0000B1
:1036D000002002400000444200804342FEB51546EF
:1036E0000C46064607F08CFE0B4FC6EBC60257F899
:1036F000223000FB043100FB053007EB820400237D
:103700002269CDE90023029302463046E36800F0C7
:1037100085F9A560FEBD0000643601202DE9FE4F4D
:103720009846DDE90C9416460F460546DDF838A0AC
:1037300007F066FE02461149C5EBC50051F820C0EE
:1037400001EB80004168C36802FB01C106FB0377FF
:103750004669406807FB061102FB00C709FB0380AE
:1037600000FB0672181B0026CDF800A0CDE901066B
:103770002346284600F052F9BDE8FE8F643601204A
:103780002DE9F0471D46DDE9086A14460F468046DC
:1037900004F030FD012831D0ED1B361B40466D1C76
:1037A000761C07F02DFE0146214BC8EBC80053F8EC
:1037B000202003EB8000836801FB0322C16840697D
:1037C00004FB017303FB00274046A1EB0509D0462B
:1037D00000240BF06FFF1849164A0A60C1F83880C0
:1037E000CF63C1F84090486365F31F464E64086894
:1037F00040F0010008604FF4001214E0002219218B
:1038000040460CF057FB33462A46214638460BF01B
:103810005BFD4046BDE8F047084A19210CF04ABB61
:10382000641C944202D20868C007F9D1BDE8F08751
:10383000643601200002030000B002408137000816
:1038400038B50324009400F0B5F838BD38B5042429
:10385000009400F0AFF838BD38B50024009400F0B3
:10386000A9F838BD38B50024009400F0A3F838BD9D
:103870001CB518F05BFB0346002000900190034A42
:103880001021034803F0E0FD1CBD0000CDCC020870
:10389000FCD303081CB518F049FB03460020009038
:1038A0000190034A0D21034803F0CEFD1CBD00002A
:1038B000B5CE0208BCD503081CB518F037FB03468B
:1038C000002000900190034A0921034803F0BCFD49
:1038D0001CBD000085D0020828D703081CB518F0CD
:1038E00025FB0346002000900190044A1221044861
:1038F00003F0AAFD034988601CBD000089D10208BD
:1039000024D80308B00400201CB518F00FFB0346B0
:10391000002000900190034A4921034803F094FDE0
:103920001CBD0000C9D302081CDA030870B5154697
:103930000E461C461A460A490BF004F8224609496D
:1039400030460AF0FFFF2346074A0649044800F0C4
:103950000DF822462946BDE8704003480AF0F2BF40
:103960008076012080B601208036012070B5104D90
:103970000E4E00242E60E8606961EA632C61AC6140
:103980002C64EC616C626C63012000EB03406864A2
:10399000286840F0010028604FF4001102E0641C28
:1039A0008C4202D22868C007F9D170BD0002020023
:1039B00000B00240F8B50E4614460649069D0AF0CE
:1039C000C8FF2B46002231460248009400F004F85C
:1039D000F8BD000080360120F0B50F4D4FF481375F
:1039E000059E00242F60E860E9632C612C64EA6185
:1039F0006B63012000EB06406864286840F001001A
:103A000028604FF4001102E0641C8C4202D2286846
:103A1000C007F9D1F0BD000000B002402DE9F04729
:103A20000F4608A91D4691E80007164600240BF032
:103A300041FE0E494FF400720A60CF60CE63C1F8B8
:103A40001090C1F840A0C861404665F31F4048642B
:103A5000086840F001000860120302E0641C944210
:103A600002D20868C007F9D1BDE8F08700B0024073
:103A700038B514460D46049A002305490094FFF713
:103A8000ABFF22462946BDE8384001480AF061BF35
:103A9000803601201EB50023FF24B4EB116F2CD01B
:103AA00080F07F40009081F07F40019014481349DE
:103AB0000160C0F80CD001A9416102A9C1634FF4B3
:103AC000803141EA0261C161C2F1FF010906416230
:103AD000002141634FF001114164016841F001018F
:103AE00001604FF4001202E05B1C934202D20168B5
:103AF000C907F9D1029880F07F401EBD0002020084
:103B000000B002402DE9FC410C46050038D004F01D
:103B10009BFF112C14D0132C28460ED003F094F9DF
:103B2000009000F0DBFB0646684603F0F7F92046FC
:103B300027F0BAFE074600241CE000F006FB1BE05D
:103B4000284600F087F917E02146284600F0C9FB17
:103B5000019070B1007827F0A7FE00F0FF0801A8DF
:103B600003F0DCF9B84504D12146284600F06DFB8E
:103B700002E0641CB442E7DBBDE8FC4106F0D0BBC8
:103B8000BDE8FC81F8B50C46050018D0002C16D015
:103B900004F05AFF284603F057F90090C66B6846B8
:103BA00003F0BCF92046FCF7C1FE421C214630461A
:103BB00003F0D8F9284618F0D7FD06F0B1FBF8BDA0
:103BC0002DE9FF4145680446284603F03DF9019080
:103BD000D0F8886001A803F0A1F90EB1012700E038
:103BE00000272146284617F017FC002856D02068E9
:103BF000112844D006DC0B2863D00E2878D00F287B
:103C00002BD14FE0212805D026281AD0B0F5107FFF
:103C100023D139E0E068416800291EDD00680D28E5
:103C20001BD130460DF039F8002806DB30460DF088
:103C300034F80146284600F008FB284600F07EF8DC
:103C400075E0E068012809D00A2802D00B2871D15C
:103C500011E00A21284618F047FE6BE030460DF0CF
:103C60001CF8002866DB30460DF017F801462846A0
:103C700000F0EBFA5BE0284600F060F85AE0FFB98C
:103C8000E068007A98BB55E0E06848B1007A08B176
:103C9000012100E00221284618F026FEBDE8FF8140
:103CA0000321F8E72E46284603F0CEF80290D0F81C
:103CB0008400056802A803F031F90DB13046A84729
:103CC00038E0284603F0C0F80090C06B03F08AF992
:103CD0000098D0F8880018F013F80098D0F89400F5
:103CE00002F0DEFF684603F019F923E000E016E079
:103CF000E068416800291DDD016820290FD006DC3D
:103D0000092910D00A2915D01B2904D112E0212934
:103D100010D022290ED02846FFF7F4FEBEE7284631
:103D200000F0FAF806E018F045F9B04202D1284652
:103D300018F0A8FF204617F0ABFFAFE738B5040036
:103D400016D004F081FE204603F07EF80090D0F8F3
:103D5000880040B117F0D4FF00990020C1F8880016
:103D6000204618F001FD684603F0D8F806F0D8FAAE
:103D700038BDF0B585B0B0F90850468A846902961E
:103D8000CDE903540027CDE90017B0F90C10B0F9C4
:103D90001050B0F90E40B0F90A00194410442B46F7
:103DA000224600F003F805B0F0BD00002DE9FF5FEA
:103DB0001D46DDE90F8691468A4683460E9F129C7A
:103DC00004F042FE21496C34CDE90214CDE90078BB
:103DD0004FF0FF334A465146584617F0A1FE040003
:103DE0002DD003F031F810220090119917F0E6FC65
:103DF00000983822164980F88C604C30FCF748FE59
:103E0000134E0098361F3168C0F88410002180F8E6
:103E10009010C586204600F040FA684603F07EF810
:103E200003F0DDF80546204603F00EF80090C56368
:103E3000684603F073F8306841682046884706F00A
:103E40006FFA04B02046BDE8F09F0000C13B0008B7
:103E50002806002010B5044600F063F9010000D0E8
:103E6000411E2046BDE8104000F0EFB9F8B5054608
:103E7000006802F0E9FF0090448ED0F88860684640
:103E800003F04CF806B1012604F00104286819F08B
:103E900049FB0EB1002006E00CB1012003E008B19F
:103EA000022000E003201B4951F82010686858B335
:103EB00002280CD0052802D0122828D103E0284679
:103EC0001CF07EFD23E0284620F03EFB1FE06A69DF
:103ED000E8694FF0FF33801AA0F1080203EB620497
:103EE000421CAB69001B4510A3EB6206C86905F0D4
:103EF0006AFC06E03219311B284603F0C3FE641E3B
:103F00006D1C002CF6DA02E0286818F041FF002052
:103F1000F8BD0000E06904082DE9F14F9EB01E983D
:103F200000287DD004F090FD1E9802F08DFF0B90CC
:103F30001E9818F04AF903900B98B0F9367090F873
:103F400090101891C16B0A9190F88C90B0F93410D0
:103F5000159100F0C3F982460B9804ACB0F88E10AE
:103F60001491B0F982101391C16C1291D0E9001232
:103F7000CDE90C12D0F894B0002100BF00EB810213
:103F8000126D44F82120491C0329F7D3002107AD05
:103F900000EB8102D26D45F82120491C0329F7D39B
:103FA00000210EAE00EB8102126F46F82120491C61
:103FB0000329F7D30BA802F0B1FF1E9818F097F869
:103FC00002F042FF1190D0F8008011A802F0A6FF85
:103FD0004FEA284042420FFA88F041420CA805F00F
:103FE00041FA5FEA897003D5BDF83200C01B01E0D9
:103FF000BDF83600ADF832001E9818F078F801468A
:1040000003980222CDE900070292BDF93230BDF9D2
:10401000302000200CF0C5FD80465FEAC97000E04A
:104020007CE007D0404618990DF085F80121404604
:104030000CF0A6FF002708E039460A9803F033F891
:10404000014640460CF068FC7F1C5745F4D300271E
:10405000394654F8272040460CF0BCFF7F1C032F44
:10406000F6D30024214655F8242040460DF0FCF8F4
:10407000641C032CF6D30024214656F82420404625
:104080000DF039F8641C032CF6D35FEA0B001FD047
:1040900002F0DAFE169030F8025B00240646012793
:1040A00011E000BF06EBD40004F00701007807FA26
:1040B00001F1084201D0012200E0002221464046E1
:1040C0000CF0BAFF641CAC42ECDB16A802F026FF31
:1040D000404614990CF0E3FF404612990CF093FF10
:1040E000404613990DF0ABF8404618F0CBFD404622
:1040F0001E990CF0EBFF404615990DF039F801219F
:104100001E9818F0F1FB1E9802F09EFE0B90C0F86E
:1041100088800BA802F002FF06F002F91FB0BDE88C
:10412000F08F38B505004FF000040CD004F08CFC83
:10413000284602F089FE0090B0F93440684602F04B
:10414000EDFE06F0EDF8204638BD10B50446FFF749
:10415000E8FF411C2046BDE8104000F076B8F8B5F5
:104160000E46040021D004F06FFC204602F06CFEE5
:10417000009090F88C10D0F8885021F001040EB116
:1041800044F00104A1420BD080F88C40684602F054
:10419000C5FE45B104F0010128460CF0F1FE02E035
:1041A000684602F0BBFE06F0BBF8F8BDF8B50C4659
:1041B000060028D004F048FC304602F045FE00908E
:1041C000D0F88850C06C04F083F807460098C464A7
:1041D000684602F0A3FE304600F05FF8304618F063
:1041E000C3FA75B1204604F073F8B84205D03046E2
:1041F000FFF7A4FD3046FFF78FFE214628460CF05E
:1042000002FF06F08DF8F8BDF8B50C4605004FF03A
:10421000000618D004F018FC284602F015FE0090A5
:10422000B0F93660D0F88850C486684602F076FE51
:104230003DB1284617F0C9FF01462246284618F02E
:10424000FCFD06F06DF83046F8BD38B50C460500AB
:1042500022D004F0F9FB284602F0F6FD009000F0B1
:104260003DF800B1401E844200DD04460098B0F9DC
:104270003410A1420BD08486684602F04FFE2846D7
:1042800018F072FA0421284618F02EFB02E0684666
:1042900002F044FE06F044F838BDF8B5044602F0DA
:1042A000D3FD01460090B0F9380010B9C86C04F095
:1042B0000FF80099CA6AB1F98030126800EB430028
:1042C0001618084618F0ACFF0546684602F026FEB0
:1042D00032462946204618F0B0FDF8BDC06B02F00A
:1042E000D6BE38B50D46002402F0AEFD0090C06B7E
:1042F000294602F0D8FE0546684602F00FFE1DB1C1
:10430000284602F0A1FD0446204638BD2DE9FE4FA7
:1043100053A36F4638CB8DE83800D378C578002199
:104320007E1E4FF064094FF4C87AAB4231D192F847
:1043300001C04578AC4504D191788078081ABDE871
:10434000FE8F2C46ACF1010C04E017F80480641CCD
:104350004144E4B2A445F8DC9278AC5D22440A44BE
:104360008178501A022DEAD11D29E8D0990706D18B
:1043700003F5FA61B1FBF9F409FB141139B903F53E
:10438000FA63B3FBFAF20AFB12310029D7D1401CC1
:10439000D5E792F801C00024ACF10108BB4604E067
:1043A0001BF80470641C3944E4B2A045F8D8927834
:1043B0000A44990706D103F5FA61B1FBF9F709FB45
:1043C000171101B91BB9BCF1020F00D9521C417879
:1043D0005C460F4604E014F801C0491C6244C9B2AF
:1043E0000C29F8D3B95D8078081A1044A90706D1C2
:1043F00005F5FA61B1FBF9F409FB141131B905F5C2
:10440000FA61B1FBFAF40AFB141111B9022F00D8BA
:10441000401C591B4A1E002A91DD40F26D1211FB0F
:1044200002F108446D1CE9B24A465446A0F26D10F0
:1044300012E08D0706D101F5FA65B5FBF2F602FB35
:10444000165535B901F5FA65B5FBF4F604FB1655BA
:1044500005B9401C491CC9B28B42EAD86FE700007D
:104460001F1C1F1E1F1E1F1F1E1F1E1F70472DE912
:10447000FC470E465FEA00097FD004F0E5FA4846A3
:1044800002F0E2FC009090F85470D0F85880456B30
:10449000C46C684602F042FDB8F1000F04D031460A
:1044A00048464246904761E0122E18D006DC082E9E
:1044B00043D0102E3CD0112E06D112E0132E21D065
:1044C0001D2E43D01E2E3DD0202E4FDB17B1484667
:1044D0001BF072FFB1B2484623F0EFFD60B3611CE0
:1044E00027E04DB3284602F0AFFC05462146019077
:1044F00005F004FE4419204605F0AEFD01462346B2
:10450000012210E0C5B1284602F09EFC0546214676
:10451000019005F0F3FD4419204605F09DFD01468C
:1045200023464FF0FF3248461AF02BFA01A81BE051
:10453000611E484600F0FEF918E0BCB1611E484615
:1045400000F0F8F948461BF037FF0FE0484602F04C
:104550007BFC0090012F12D0012180F854102146DD
:10456000484600F0E7F9684602F0D8FC484618F0E3
:10457000FBF800E001E005F0D3FEBDE8FC87002178
:1045800080F85410EFE7FEB544680546204618F061
:10459000C9FF06462946204616F03EFF002837D0C0
:1045A00028680F2830D004DC0B2832D00E2853D1D5
:1045B0003AE0A0F58070133804D0A0F580702D3853
:1045C0004AD110E0204618F06FFA2046002125F06D
:1045D000CAF9204602F038FC0190C06F002118F0A3
:1045E0003AFA01A81DE0E86860B1017A29B10168D2
:1045F000204600F0AFF8012100E00221204618F02B
:1046000073F929E00321F9E70121204625F0ABF9F0
:10461000FEBD204602F018FC0090343002F06AFB28
:10462000684602F07BFC17E0B6B1E86841680029F3
:1046300012DD01681B290FD006DC09290CD00A29DC
:104640000AD00D2904D107E0212905D0222903D061
:104650002046FFF70CFFFEBD284617F019FBFEBDF4
:10466000F0B587B004460DF1080CD4E90567B0F940
:104670000850408A8CE8E1000020CDE90010B4F930
:104680000C00B4F91060C118B4F90A00B4F90E5066
:10469000104433462A4600F009F8050002D0618A2A
:1046A00000F033F907B02846F0BD00002DE9F04FC7
:1046B00085B01F46DDE91254DDE90E6A9046894651
:1046C000834604F0C1F90DF1040C4AF480501F49EF
:1046D000583400968CE813003B46424649465846FB
:1046E00017F01EFA04002AD002F0AEFB102204904C
:1046F000119917F063F804981C2215496030FCF7F3
:10470000C7F9049A012082F85500681C00D00120E6
:1047100082F88000002D00DC08252DB215870020CE
:104720005087506304A86D1C02F0F8FB2946204610
:1047300023F005F918B9204617F0E2FA002405F035
:10474000EFFD05B02046BDE8F08F0000874500086A
:10475000600600202DE9F04186B00C46060055D0D9
:1047600004F072F9304602F06FFB0090406B98B392
:1047700002F06AFB03900098806E05F041F88046D5
:10478000304617F022FD0746039803F077FD0546F3
:10479000009890F8601001F00301012916D0022959
:1047A0000DD0416EC06A00680844241A641E039844
:1047B00006F0E0FB0146002C0FDA002115E0781B23
:1047C000401C00EBD070A4EB6004F0E7406E791B56
:1047D000081A241A641CEAE713E0AC4205DC02461E
:1047E0002146039806F066FB0146304600F0A2F829
:1047F00003A802F093FB404605F002F8304617F09C
:10480000B3FF684602F08AFB05F08AFD06B0BDE8FA
:10481000F08138B50D4604000ED004F015F920469D
:1048200002F012FB00908566204617F09DFF684657
:1048300002F074FB05F074FD38BD2DE9FC47884695
:104840005FEA00094FF0000652D004F0FDF8484638
:1048500002F0FAFA0090B0F93850446B684602F062
:104860005DFB0027B8F1000F44D04CB1204602F0A8
:10487000EBFA0190FCF75AF8461C01A802F04EFB37
:10488000404606F077FB0446A84200DD2C46214650
:10489000404605F033FC451CA91B484623F0BDFDEE
:1048A00008B3484602F0D0FA0090406B02F0CCFA10
:1048B0002A4641460190FCF764F80198284400F824
:1048C000017C0098C464B0F938108C4205D190F88E
:1048D0005410012901D1641EC46401A802F01EFB1A
:1048E000684602F01BFB484617F03EFF05F018FD36
:1048F000BDE8FC87484602F0A7FA0090343002F089
:10490000F9F900984787C764EAE738B50C4605000F
:104910000FD004F099F8284602F096FA009018B1EA
:104920000466284617F020FF684602F0F7FA05F003
:10493000F7FC38BD1CB50C4602F086FA0090406BBF
:10494000F0B102F081FA019006F014FB009991F8A1
:10495000542002B10122002C00DA0024844200DD40
:104960000446B1F93800801AA04200DA0446C86C47
:10497000A04200D0CC640020086501A802F0CEFA65
:10498000684602F0CBFA1CBD70B5044600680F28DB
:1049900006D01D280CD02046BDE8704017F078B92D
:1049A0006FF07F4004F00FFFBDE8704002F000BDE3
:1049B00040F60111606817F0CFFA0546154913F06B
:1049C000F9F815A1284613F00CF940F602116068B9
:1049D00017F0C2FA0546184913F0ECF817A128465B
:1049E00013F0FFF8FF21284613F025F940F60311D4
:1049F000606817F0B1FA04460F4913F0DBF814A110
:104A0000204613F0EEF82046BDE87040FF2113F079
:104A100012B90000CC3F0408466F6E7420557064D4
:104A2000617461696E672C506C65617365205761B4
:104A300069742E2E2E000000ACF6030865726173B7
:104A40006520636869702E2E2E2E2E2E0000000029
:104A500030250000102A0FD0C26AD1E9002342EAB3
:104A600003220B89097B4FEA034343EA016142EACF
:104A7000010203D1C26002E0C268EEE7C2624FF0F9
:104A800000007047102A0FD0826AD1E9002342EA61
:104A900003220B89097B4FEA034343EA016142EA9F
:104AA000010203D1826002E08268EEE782624FF089
:104AB0000000704730B50A68102A1AD0026A104BFD
:104AC00002EA0302D1E9013443EA0403D1E90345D0
:104AD00044EA050443EA04034C69896943EA442330
:104AE00043EA413141EA020141F0080103D101608A
:104AF00002E00268E3E701624FF0000030BD000011
:104B00008101F0FF70B5B3F5804F05D06FF07041B3
:104B100040F82210002070BD50F82230084C23408D
:104B2000D1E9004544EA05148D688E892D0245EAD5
:104B3000064589692C430C431C4340F82240E9E7B1
:104B40000000F0CFF0B50C6850F82450194A154019
:104B5000D1E90123D1E903671A433E4332434E6949
:104B600032438E693243CE6932430E6A32434E6A13
:104B700032438E6A3243CE6A3243CE6B32430E6B7F
:104B800032434E6B32432A43082B01D142F040029C
:104B900040F824204A6BB2F5801F08D10A6832B170
:104BA0004FF480720A6104490268114301600020D9
:104BB000F0BD00008000E0FF00011000F0B500EB48
:104BC000820253688E8903F04044D1E9003543EAFC
:104BD00005138D682D0245EA06452B430E8A0D4DBF
:104BE00005EB065633430E7D6F0107EB0666334334
:104BF0008E693343234353600268D20207D542686B
:104C0000098A22F4700205EB015111434160002032
:104C1000F0BD00000000F0FF30B5D1E901231A43D8
:104C2000D1E9033423431A434B690D681A438B6956
:104C30001A43D1E90734012D496A05686FF30E055F
:104C400005D01A4322430A432A43026008E0234363
:104C500029430B43416803606FF30E010A4342602E
:104C6000002030BD426942EA4101416100207047A5
:104C7000F8B514460546D1E9000210438A686FF082
:104C80001F03C96803EB421242EA41210843009026
:104C9000286106F0E1FD064609E0601C07D024B15A
:104CA00006F0DAFD801BA04201D90320F8BDA869F7
:104CB0008006F2D40020F8BDF0B56FF00F05D1E901
:104CC000003405EB04145B1E2E0123438C682F0374
:104CD00006EB04244FEA054C23430D8A8E8ACC68E8
:104CE000097E4FF07F4E07EB05450CEB06560EEBA9
:104CF0000161012A0CD082683F1107EB0434234381
:104D00002B43334302F070420B43134383600FE0A5
:104D1000C2682B430B4302F070428168134301F0D9
:104D200070422103A1F5805131431143C36081607A
:104D30000020F0BD2DE9F047044640688EB0002702
:104D4000804602F081F80090B0F87CA0D0F868901E
:104D5000D0F88060D0F88850C06D00B10768684610
:104D600002F0DCF805E0696820468847002843D156
:104D70002D68002DF7D12068172853D00CDC0F28A0
:104D80003DD004DC0B2877D00D2825D18BE01128ED
:104D900010D0142820D13BE0262846D004DC1E2861
:104DA00051D0202818D18AE02A2816D0B0F5107FDB
:104DB00012D128E04046E56802F046F80290697A90
:104DC00039B9297A012904D130F87C1F41F4807166
:104DD000018002A802F0A2F875E0404602F034F823
:104DE0000090E16811B1C0F8841002E0D0F88400AE
:104DF000E060684602F092F80EB0BDE8F087D7B3E5
:104E00004046B8475FE02146404624F017FCF3E7F0
:104E100005A9404600F0B3FBE068069901600799D8
:104E20004160E9E7C4F80C90E6E7E0680228E3D1C6
:104E3000CDF83080E0680D9027200A900AA9A0687C
:104E400018F06AFDD8E7E068012804D00021404648
:104E500000F0BBFAD0E7304617F0EFFC68B13046FF
:104E600017F010FF304617F0ABFB98B10121304628
:104E700016F066FB0EE026E02FE0484617F056FFDE
:104E80000646404601F0E0FF0090C0F880606846AA
:104E900002F044F80121404600F097FA002EABD111
:104EA0000020E060A8E75FEA0A700CD4E068C06800
:104EB00048B1007A38B1404617F0E4FE03E02146DD
:104EC000404623F0D0FF2146404616F0A5FA0028C0
:104ED00092D0204616F0DCFE8EE7404601F0B4FF8B
:104EE0000090703001F006FF684673E7F0B587B0B8
:104EF000B0F908400DF10C0C0C9E876945688CE8F0
:104F0000F000448A0025CDE900150294B0F90C1098
:104F1000B0F91050B0F90E40B0F90A00194410442D
:104F20002B46224600F002F807B0F0BD2DE9F04F05
:104F30008BB09846DDE9155691468A468346149F04
:104F40001A9C03F081FD3348603445F48055CDE967
:104F50000204CDE9007543464A465146584616F0CC
:104F6000DFFD04004FD001F06FFF3022049017994D
:104F700016F024FC0498282227493430FBF788FDDA
:104F800004981999244F4166A0F87C600026C0F867
:104F90008060C666083FC0F888607968C16504A86B
:104FA00001F0BCFF05A9204600F0E9FA1B4841F2D8
:104FB000827103960094CDE90110BDF91E00BDF980
:104FC0001A10BDF91C20431ABDF918005B1C121AF7
:104FD000521C16F0A5FD06467868416820468847B1
:104FE000204601F031FF0490866604A801F096FF88
:104FF00042F20400054202D1204616F0F9FE204696
:10500000189900F027FA05F08BF90BB02046BDE89F
:10501000F08F0000354D00088406002085580008F8
:105020002DE9F041044694B0006800F0B7F908B1EA
:10503000D94D01E0D84D2C35606815281ED00CDC08
:105040000B281FD004DC00287ED005287DD12FE15D
:105050000E287BD01228F9D141E1162806D0172856
:1050600008D0182808D01C28F0D109E0E86914B04D
:10507000BDE8F081286AFAE7686AF8E7A86AF6E707
:105080006869F4E720680B901C200C90206801F000
:10509000DBFE0390016D0BA88847064603A801F0CC
:1050A0003DFF022E0FDB95E807008DE80700D4E9ED
:1050B00004023346A16905F095FD20698719A069AE
:1050C000A0EB06082CE0286804F07DFB2169E86964
:1050D0000A18521E606902F0D5FDA269E869111A2A
:1050E000491C606902F0CEFDD4E904077F1C3946F3
:1050F00002F0F4FD3946A06902F0F0FD686804F0A2
:1051000062FB20693946401C02F0E8FDA06939467F
:10511000401E02F0E3FDA0692769A0F10208BF1C50
:10512000286804F050FB42463946606902F0AAFD47
:10513000686804F048FB606942463946401C02F04A
:10514000A1FD686A022802E015E1B0E000E10BDD94
:10515000A86804F038FB61696A6A881C8B180146EC
:10516000424638465B1E27E0296AB14226DD606967
:10517000022E074600F1020801DB374401E007F187
:105180000207206901DB304401E000F102002269DE
:105190003B460A444146A2F1010202F061FE022EA2
:1051A00002DBA069821B01E0A269921EA069E96985
:1051B0003B46401A4146401C02F052FE022E02DBE2
:1051C0006069064401E06669B61CE76928687F1ECD
:1051D00004F0F9FA3A463146206902F0E5FD3A4614
:1051E0003146A06902F0E0FDE7696868BF1E04F07F
:1051F000EAFA20693A463146401C02F0D5FDA06922
:105200003A463146401E02F0CFFDE869022802DC32
:10521000286A022823DDA86A022802DDE1690F1A44
:1052200001E0E769BF1EA86804F0CDFAE969022928
:1052300009DD20693B46421800F1020C3146604608
:10524000521E02F00DFE286A022808DDA269E869F4
:105250003B46101A3146401C921E02F001FE28689F
:1052600004F0B1FAD4E90620216902F00BFD686868
:1052700004F0A9FAD4E906202169401E491C521EF7
:1052800002F000FDA86A022811DDA1692669E4691F
:10529000A1F10208271AA41EB61C7F1CA86804F0FE
:1052A00092FA234642463946304602F0D9FD71E073
:1052B000208A00B2ADF81400A18A09B2ADF8161028
:1052C000228B12B2ADF81820A38B1BB2ADF81A30A6
:1052D0002C69ED68CDE9005402F098FC5AE0208A70
:1052E000298B0844ADF81400A08AADF81600208B75
:1052F000298B401AADF81800A08BADF81A00206871
:1053000001F0A2FD0390006FF0B1022004F0DCFB7D
:10531000039890F87C10C1F3C00100EB8100006C91
:1053200004F051FA0398406B04F06AFA0398006F96
:1053300001F08AFD03990990B1F95A2005A902F0FC
:10534000EDFA09A801F0EAFD03A801F0E7FD21E06C
:10535000208AADF81400A08AADF81600208BADF8B5
:105360001800A08BADF81A00A86804F02CFA05A864
:1053700002F0A2FD0EE0206801F066FD039030F817
:105380005A1F41F00C01018003A801F0C7FD2068FD
:1053900017F0FEFC00206AE6B809002038B50500C9
:1053A0004FF000040FD003F04FFB284601F04CFDF6
:1053B000009090F87C00000700D50124684601F0B9
:1053C000ADFD04F0ADFF204638BD70B50D460400BC
:1053D00009D003F039FB2946204625F075F8BDE8D1
:1053E000704004F09DBF70BD2DE9FC410D46804624
:1053F00003F02AFB5FEA080028D001F025FD0190A8
:10540000C16D8C6800F022F907460198456301A838
:1054100001F084FD2268012140469047064622683B
:1054200003214046904705462268002140469047A8
:105430000446404600F0EFF92B46324639464046D6
:10544000009400F078F9404617F08EF904F068FFF8
:10545000BDE8FC817CB50D4604001DD003F0F4FAD4
:10546000204601F0F1FC0090006F0190684601F0C9
:1054700055FD294601A805F0D3FE58B1204601F09C
:10548000E3FC009001990167684601F047FD204662
:1054900017F06AF904F044FF7CBD38B50C460500EE
:1054A00013D003F0D1FA284601F0CEFC0090B0F9F9
:1054B0005A10A14204D0A0F85A40284617F054F9D7
:1054C000684601F02BFD04F02BFF38BD38B50C46C3
:1054D000050015D003F0B8FA284601F0B5FC00220B
:1054E000CDF8000000EB8201521C0C64022AF9D3B3
:1054F000684601F013FD284617F036F904F010FF56
:1055000038BD2DE9FC470D465FEA00094FF0000465
:1055100032D003F099FA484601F096FC0190B0F9B8
:105520005440A54223D000F091F880460198012113
:10553000A0F85450C06D856848462A6890470746D1
:105540002A6803214846904706462A6800214846B3
:1055500090470546484600F05EF933463A464146D4
:105560004846009500F0E7F8484617F0FDF801A816
:1055700001F0D4FC04F0D4FE2046BDE8FC872DE900
:10558000F34F85B000270C46B846059801F05CFC47
:105590000090C06D0121856805982A689047824671
:1055A0002A6803210598904704902A6802210598EB
:1055B000904703902A680021059890470646009876
:1055C00017F02EFE8346009817F031FE81460098B2
:1055D00090F83210890601D5B0F9588000F036F8FD
:1055E00005460098C06E10B116F006FE07462580ED
:1055F0006780A4F804A0049AABEB020006EB080253
:10560000401E2A4420813A44E280039BA9EB030216
:10561000521E6281A4F80CA020827019E681401EFF
:105620006082684601F07AFCB4F90C000190B4F98C
:105630001000029002AA01A9059800F039F801981B
:10564000A0810298208207B0BDE8F08F10B5014616
:10565000002091F83220920607D5B1F954000028B5
:1056600003D1486B02F039FE801C10BD70B58AB0C2
:105670000C46054601F0E8FB0990C06D866809A854
:1056800001F04CFC009534B1012C06D0022C0BD05B
:10569000032C04D10AE0182000E016200190716864
:1056A000684688470AB070BD1520F7E71720F5E770
:1056B0002DE9FC4117468846044601F0C5FB0090E1
:1056C000C16D056868468E6801F028FC32680021CB
:1056D000204690470646204616F04FFC27E000BFC4
:1056E00001F0B2FB0190B0F900102AB2B0F9043019
:1056F000891A9A1AB0F90230A3EB2543B34210D1AC
:1057000090F82800000605D53868884209DB491E54
:10571000396006E0D8F80000904202DC521CC8F85C
:10572000002001A801F0FAFB204616F0D3FC04008B
:10573000D6D1BDE8FC812DE9FF4F83B00E46074668
:10574000DDF8409001F080FB0190C16D8D68FFF79E
:105750007DFF044601A801F0E1FB2A6801213846DB
:10576000904783462A6803213846904782462A6834
:105770000021384690470546B44207D105998B452C
:1057800004D106998A4501D14D4541D0A41B00267C
:10579000B046384616F0F1FB38E001F055FB0090BA
:1057A000806A010601D5800502E0810528D5000642
:1057B000002825DB24B122461146384617F0D1F8DF
:1057C000009890F8280000060AD50698A5EB090273
:1057D000A0EB0A0004FB16013846761C17F075F89A
:1057E0000098008D80050BD50599A5EB0902ABEB60
:1057F000010004FB080108F10108384617F065F8BC
:10580000684601F08BFB384616F064FC0700C4D1F3
:1058100007B0BDE8F08F70B586B0064601F014FB06
:105820000590D0E91A4505A801F078FB54EA050077
:1058300026D069463046FFF7A2FEACB1BDF906207E
:10584000BDF90410204617F013F8BDF90A00BDF9A0
:105850000610421ABDF90800BDF90410521C411A85
:105860002046491C17F0E9FA002D09D0BDF90600C1
:10587000BDF90210421ABDF90410284616F0F8FFCF
:1058800006B070BD2DE9F0430446406889B0054676
:1058900016F02DFC814601F0D7FA0290D0F848802E
:1058A000D0F88070466E02A801F038FB20681728F7
:1058B00053D008DC0E283AD00F2811D014284CD031
:1058C00015283DD149E01E281ED01F282AD02228A5
:1058D00040D0312834D10020E06009B0BDE8F08329
:1058E0006FF070414046884503D00AF017FA01F086
:1058F0005FFD002EF1D0D4E902122068CDE9040545
:10590000CDE9061204A81FE0E0680028E5D02FB119
:10591000AF4203D0384617F0B5F9DEE7284617F056
:1059200005FADAE72146484615F076FDD5E7E06846
:105930004168002904DD00680928EFD00A2805D055
:105940005EB12046C4F80490B047C6E7284617F079
:10595000FCF9C2E7C4F80C80BFE7204616F098F9BE
:10596000BBE7000038B50446094D4FF0AA3000905F
:10597000A879042360436A4600210DF023FCA8792E
:10598000042360436A460021401C0DF01BFC38BD17
:10599000B04300202DE9FC47254F894606460025E7
:1059A00000240DF1040810E0CDF8008079887043E0
:1059B0008B084A4600210DF087FA7888BDF804105C
:1059C000B1EB900F04D1641CA4B2B879A042EBD81B
:1059D000B879A04202D10020BDE8FC8730460DF026
:1059E00097F820B1294613A0FAF754FD16E0B9F153
:1059F000FF3F13D000200AE07A8806FB00109308CE
:105A0000002211460DF0B6FBBDF80400401CADF8B5
:105A10000400B879BDF804108842EDD86D1CADB211
:105A2000032DBDD3314609A0FAF734FD0120D3E799
:105A3000B04300206572726F7220657261736520D9
:105A4000626C6F636B3A25640D0A0000626164202A
:105A5000626C6F636B20636865636B65643A256491
:105A60000D0A000038B50446104D00208DF80000E6
:105A7000A879012360436A4600210DF059FA9DF888
:105A80000000FF2801D0022038BDA879012360431F
:105A90006A460021401C0DF04BFA9DF80000FF28DB
:105AA00001D0012038BD002038BD0000B0430020E7
:105AB0002DE9F84F91462F4A8A461D469179B0FB51
:105AC000F1F3B0FBF1F801FB130B404600F0B8F81E
:105AD000284907464889B84202D20120BDE8F88F1C
