:020000040800F2
:1000000060130220BD020008F112010829C7000890
:10001000E30801080D1400084591010800000000E4
:10002000000000000000000000000000135A01085A
:100030009D28000800000000150E0008995A0108CC
:10004000F7020008F7020008F70200081549010846
:10005000F7020008F7020008F7020008F70200089C
:10006000F7020008F7020008F7020008F70200088C
:10007000F7020008F7020008F7020008F70200087C
:10008000F7020008F7020008F7020008F70200086C
:10009000F7020008F7020008F7020008F70200085C
:1000A000F7020008F7020008F7020008F70200084C
:1000B000F7020008918001089D800108F7020008FE
:1000C000F7020008F7020008F7020008F70200082C
:1000D000F7020008D1900108F7020008F7020008B3
:1000E000F7020008F5470108F7020008F7020008C8
:1000F000F7020008F7020008F7020008F7020008FC
:10010000F7020008F7020008F7020008F7020008EB
:10011000F7020008F7020008F7020008F7020008DB
:10012000F7020008F7020008F7020008F7020008CB
:10013000F7020008F7020008F7020008F7020008BB
:10014000F7020008F7020008F7020008F7020008AB
:10015000F7020008F7020008F7020008F70200089B
:10016000F7020008F7020008F7020008F70200088B
:10017000F7020008F7020008F7020008000000007C
:10018000F7020008F7020008F7020008F70200086B
:10019000F7020008F7020008F7020008F70200085B
:1001A000F1000108F7020008F702000800F002F869
:1001B00000F06DF80AA090E8000C82448344AAF194
:1001C0000107DA4501D100F062F8AFF2090EBAE892
:1001D0000F0013F0010F18BFFB1A43F0010318477B
:1001E000083E0400283E04000A444FF0000C10F8BA
:1001F000013B13F0070408BF10F8014B1D1108BFA5
:1002000010F8015B641E05D010F8016B641E01F844
:10021000016BF9D113F0080F1EBF10F8014BAD1C94
:100220000C1B09D16D1E58BF01F801CBFAD505E0B2
:1002300014F8016B01F8016B6D1EF9D59142D6D30C
:10024000704700000023002400250026103A28BF34
:1002500078C1FBD8520728BF30C148BF0B60704738
:10026000642900F06181752900F05E81782900F031
:100270009781632900F0D984732900F0DE8400207F
:1002800070471FB530F07DFA1FBD10B510BD00F0EE
:1002900035FD1146FFF7F5FF2EF092F900F053FD02
:1002A00003B4FFF7F2FF03BC2BF08FFC30BF72B634
:1002B000704762B6704780F30888704711488047DE
:1002C000DFF84400016841F470010160BFF34F8F13
:1002D000DFF83800016821F040410160BFF36F8F03
:1002E0000B480047FEE7FEE7FEE7FEE7FEE7FEE716
:1002F000FEE7FEE7FEE7FEE706480749074A084B28
:1003000070470000BD5A010888ED00E034EF00E0BE
:10031000AD0100086007022060130220600902207E
:100320006009022072B6704762B67047EFF3108022
:1003300072B6704780F31088704730BF704720BF97
:100340007047B0FA80F0704790FAA0F0B0FA80F0F1
:10035000704790FAA0F07047704753EA020C00F023
:1003600069802DE9F04B4FF00006002B1FBFB3FA58
:1003700083F503FA05F424FA05F65E4012BF16432E
:10038000B2FA82F502FA05F4C5F120051EBF22FA81
:1003900005FC44EA0C04203556EA044C4FEA1444A8
:1003A00018BF641C4FF000084FF00009904271EB39
:1003B000030C39D3002919BFB1FA81F701FA07F606
:1003C000B0FA80F700FA07F6C7F120071EBF20FA3F
:1003D00007FC46EA0C062037B6FBF4FCA7EB050742
:1003E000103F07F01F0BCBF120060CFA0BFB2CFA89
:1003F00006F644BFB3460026202FA4BF5E464FF04A
:10040000000B5BEA060C08BF4FF0010B19EB0B0960
:10041000ABFB027C48EB0608C01B06FB02CC0BFBC7
:1004200003CC71EB0C01C1E70B460246414648463E
:10043000BDE8F08B13B54FF000004FF00001AFF3B3
:100440000080BDE81C4070470FB4044910B503AAF2
:10045000029800F0F7FB10BC5DF814FB24000020AC
:100460000FB41CB5074B06AA7B446946009005985B
:1004700000F0B9FB0020694600F0C8FB1CBC5DF829
:1004800014FB0000A107000070B5044685690068F0
:10049000C10601D5302600E02026C00707D070BD78
:1004A000D4E9012130469047206A401C20626D1E2D
:1004B000F6D570BD70B5044685690078C00707D1D0
:1004C00070BDD4E9012120209047206A401C2062A1
:1004D0006D1EF6D570BD70B50C460546012A05D0D7
:1004E0002878800600D5EA69002302E0012305E0B0
:1004F0005B1C934202D2E05C0028F9D1A869E6189F
:10050000C01AA861286A184428622846FFF7BCFF71
:1005100004E0D5E9012114F8010B9047B442F8D367
:100520002846FFF7C7FF70BD2DE9F04106460024BD
:1005300010687529314616A510D0AFF30080002849
:1005400002DA404213A507E031688A0701D512A5F7
:1005500002E0490704D511A5012401E0AFF30080B2
:1005600000210A2206F1240709E0B0FBF2FCB0FBEF
:10057000F2F302FB1C00303078541846491C002866
:10058000F3D123462A463046BDE8F04100F0CDBA0B
:10059000000000002D0000002B00000020000000E3
:1005A00070B504460D4621461068AFF300802188DF
:1005B000090502D50F4A7A4402E00E4A7A440E3207
:1005C000002104F1240305E000F00F060009965D08
:1005D0005E54491C0028F7D120780023000704D579
:1005E000702D02D009B1022311322046BDE87040BF
:1005F00000F09BBA5A2E04002DE9F05F89460446AC
:100600004FF0000ADFF874B1FB44C0F820A0204688
:10061000E1688847002874D0252806D0D4E9012154
:100620009047206A401C2062F1E700265F46204682
:10063000E16888472028054607DB312D05D2781967
:1006400010F8200C08B10643F1E7B00701D526F0F9
:100650000406C4F81CA00027C4F818A02A2D09D04D
:1006600028462BF0ABFA38B304EB8708303DC8F8C6
:10067000185019E059F8041B204604EB87029161D9
:10068000E1688847012F054618D1E069002820DA83
:1006900026F020061DE0D8F8180000EB800005EBDE
:1006A00040003038C8F818002046E1688847054601
:1006B0002BF084FA0028EED1012F0AD02E2D08D17C
:1006C0002046E16888477F1C0546022F46F0200639
:1006D000C4DBA069002803DA404246F00106A061AD
:1006E000F00701D026F010066C2D0BD0682D09D034
:1006F0004C2D39D06A2D35D0742D35D07A2D33D08C
:1007000016E038E0E1682F4620468847B8420546A3
:1007100009D16C2F26D04FF48060E1680643204653
:100720008847054604E06C2F1AD04FF480700643CA
:100730000DB3A5F14100192802D8203546F4006612
:100740004A462946204626604E46FFF789FD80B17D
:1007500001280BD0F61D26F0070000F1080956E726
:100760004020E4E78020D8E70020D6E706F104091E
:100770004DE7284652E7206ABDE8F09F302E04007E
:1007800040EA010310B59B070FD1042A0DD310C80E
:1007900008C9121F9C42F8D020BA19BA884201D960
:1007A000012010BD4FF0FF3010BD1AB1D30703D0A8
:1007B000521C07E0002010BD10F8013B11F8014B5E
:1007C0001B1B07D110F8013B11F8014B1B1B01D17A
:1007D000921EF1D1184610BD40EA0103024630B521
:1007E0009B0710D14FF0013400E008C208C91D1B5F
:1007F0009D4315EAC41FF8D013F0FF0102F8011B56
:100800000DD01B0AF8E711F8013B002B02F8013B61
:1008100005D011F8013B002B02F8013BF3D130BDAC
:1008200010B5431C02E010F8011B71B18107FAD129
:100830004FF0013202C88C1A8C4314EAC211F9D06D
:10084000C01A0A0603D0C01E10BDC01A10BD0A048B
:1008500001D0801E10BD0902FCD0401E10BD421EFA
:1008600012F8013F002BFBD111F8013B002B02F8DD
:10087000013BF9D17047032A40F2308010F0030C9D
:1008800000F0158011F8013BBCF1020F624498BFE3
:1008900011F801CB00F8013B38BF11F8013BA2F180
:1008A000040298BF00F801CB38BF00F8013B11F0FB
:1008B000030300F06780083AC0F0088051F8043B59
:1008C000083A51F804CBA0E80810F5E7121D5CBF08
:1008D00051F8043B40F8043BAFF30080D20724BF3B
:1008E00011F8013B11F801CB48BF11F8012B24BFCF
:1008F00000F8013B00F801CB48BF00F8012B70471E
:10090000431A28BF9A427FF6B6AF032A1044114417
:1009100040F2268010F0030F1EBF11F8013D521E59
:1009200000F8013D10F0030F7FF4F6AF11F0030360
:1009300000F0AD81083AC0F00B8051F8043D083A50
:1009400051F804CD40F8043D40F804CDFFF7F3BF63
:10095000121D5CBF51F8043D40F8043DAFF3008028
:10096000D20724BF11F8013D11F801CD48BF11F89D
:10097000012C24BF00F8013D00F801CD48BF00F86C
:10098000012C704710B5203AC0F00B80B1E8185028
:10099000203AA0E81850B1E81850A0E81850BFF469
:1009A000F5AF5FEA027C24BFB1E81850A0E8185008
:1009B00044BF18C918C0BDE810405FEA827C24BF5C
:1009C00051F8043B40F8043B08BF7047D20728BFEA
:1009D00031F8023B48BF11F8012B28BF20F8023B39
:1009E00048BF00F8012B704702F0FF0343EA0322DF
:1009F00042EA024200F002B84FF000020429C0F0BF
:100A0000128010F0030C00F01B80CCF1040CBCF140
:100A1000020F18BF00F8012BA8BF20F8022BA1EB92
:100A20000C0100F00DB85FEAC17C24BF00F8012B77
:100A300000F8012B48BF00F8012B70474FF000026F
:100A400000B5134694469646203922BFA0E80C50C4
:100A5000A0E80C50B1F12001BFF4F7AF090728BF9F
:100A6000A0E80C5048BF0CC05DF804EB890028BF1B
:100A700040F8042B08BF704748BF20F8022B11F044
:100A8000804F18BF00F8012B704700004FF0013C69
:100A900050F8042B51F8043B9A4221D1A2EB0C03ED
:100AA000934313EACC1317D150F8042B51F8043BAD
:100AB0009A4215D1A2EB0C03934313EACC130BD14A
:100AC00050F8042B51F8043B9A4209D1A2EB0C03D5
:100AD000934313EACC13DBD04FF00000704700BF04
:100AE000D01A01BAB1FA81F101F0180122FA01F02D
:100AF000CB40C1F12001DBB2C0B2C01A2CFA01F325
:100B0000D11A914311EAC311E6D17047704770477B
:100B10007047704710B500F0E5F8006810BD10B5DB
:100B2000044600F0DFF8046010BD2DE9F0470D46E3
:100B300099469246044600F124080168880604D5C7
:100B4000E06921F01001216000E00120A84201DDF0
:100B5000471B00E00027A1697A1902EB0900081A77
:100B6000A0612078C00602D42046FFF78DFC002645
:100B700008E0D4E901211AF806009047206A401CD9
:100B8000761C20624E45F4DB2078C0060AD520464C
:100B9000FFF77AFC06E0D4E9012130209047206A73
:100BA000401C2062381EA7F10107F4DC07E0D4E9FD
:100BB000012118F805009047206A401C2062281E79
:100BC000A5F10105F3DC2046FFF774FC2078000650
:100BD00002D50220BDE8F0870120FBE701694A1C2D
:100BE00002610878704700B58FB0CDE9013100216E
:100BF000059105497944CDE9031011466846FFF790
:100C0000FBFC0FB000BD0000E5FFFFFF0A6802F823
:100C1000010B0A60704710B5436913B1AFF3008050
:100C200001E0FFF758FC012010BD127800F124010B
:100C30000A7000224A700122EDE711684FF0FF327E
:100C4000E9E70000074B70B50D467B44FFF7CBFF8B
:100C50000446284600F04AF810B14FF0FF3070BD4E
:100C6000204670BDAFCE0200431A28BF9A427FF6DD
:100C700089AE104410F0030F11441EBF11F8013D5E
:100C8000521E00F8013D10F0030F7FF4F6AF103A4A
:100C9000C0F00A8010B531E91850103A20E9185018
:100CA000BFF4F9AFBDE81040530724BF31E9081085
:100CB00020E9081044BF51F8043D40F8043D12F00B
:100CC000030F08BF7047D20728BF31F8023D48BF65
:100CD00011F8012C28BF20F8023D48BF00F8012C74
:100CE0007047000000487047FC060220007B00F0BF
:100CF0008000704700487047FC0602207546FFF7E9
:100D0000F9FFAE4605006946534620F007008546C8
:100D100018B020B5FFF7F0FABDE820404FF000060C
:100D20004FF000074FF000084FF0000B21F00701D3
:100D3000AC46ACE8C009ACE8C009ACE8C009ACE816
:100D4000C0098D46704710B50446AFF300802046B9
:100D5000BDE81040FFF7A4BAEFF3098141B1F1EE0D
:100D6000101A40F8041D20ED200A3E490A68106060
:100D70007047B0EC200A02C8E1EE101A3A490A683E
:100D80001060704772B64EF62250CEF2000040F26C
:100D9000FF01C0F2000101704FF0000080F30988EC
:100DA00011F004FC40F26C30C2F20000016881F3E3
:100DB000088840F2F620C2F2000040F2F721C2F2A9
:100DC00000010A78027040F26435C2F2000540F278
:100DD0006831C2F200010A682A60106880F309884D
:100DE000EFF3148040F0020080F31488BFF36F8F9C
:100DF000BDE8F00F0FBCBDE8005006BC62B6084766
:100E00001A484FF080510160704718484FF08051E8
:100E10000160704772B6EFF3098020E9F00F40F2ED
:100E20006435C2F200052E683060744611F0BEFBD6
:100E300040F2F620C2F2000040F2F721C2F20001B7
:100E40000A78027040F26831C2F200010A682A6032
:100E500044F0F40E1068B0E8F00F80F3098862B631
:100E600070470000640300206803002004ED00E0E8
:100E70002DE9F0410D460146002004464E1908E0D8
:100E80000702301B401E80B200F007F8641C384493
:100E9000E4B2AC42F4D3BDE8F08110B504460BF0E7
:100EA0003FFD200AA02101EB4000C0B20BF008FD7D
:100EB0000BF078FDE0B20BF003FD0BF073FD0BF0CF
:100EC0002FFDA1200BF0FCFC0BF06CFD00200BF0C3
:100ED000C3FC04460BF044FD204610BD2DE9F04153
:100EE00016460D460746002409E0E00025FA00F00A
:100EF000C1B2381980B200F006F8641CE4B2B44202
:100F0000F3D3BDE8F08170B50D4604460BF008FD43
:100F1000200AA02101EB4000C0B20BF0D1FC0BF085
:100F200041FDE0B20BF0CCFC0BF03CFD28460BF091
:100F3000C7FC0BF037FD0BF013FDBDE870400A2035
:100F40002BF022B9154810B5016886B041F00101B7
:100F500001600068124C00F00100059040200090F4
:100F6000012001900290032003906946204608F07A
:100F700003FC00224021204608F0ECFC0122402125
:100F8000204608F0E7FC4FF496702BF0FDF80022A5
:100F90004021204608F0DEFC06B010BD303802408B
:100FA0000000024038B5456804460146284618F05E
:100FB00083FA00282BD02068304A11280DD006DC97
:100FC0000B2825D00E2833D00F2852D112E0282824
:100FD00049D0B0F5107F4CD108E09268002A16D0B5
:100FE0002146284601B0BDE830401047214628463A
:100FF0005268F7E7284604F069F80090406E0468EC
:10100000684604F0CDF8002C01D02846A04738BD32
:10101000284604F05BF80090683003F0ADFF0098BC
:1010200003216C3003F0B6FF684604F0B9F820E005
:10103000E168486809680D2902D0202913D105E02C
:10104000002810DD284625F02BFF06E0002804DDEF
:101050002846BDE8384025F023BF2846BDE8384083
:10106000022125F033BFE06818B90021284600F0BE
:1010700097F92046BDE8384018F05ABE48050020D0
:10108000F0B5044685B08069B4F90850668A002737
:10109000CDE90265CDE900170490B4F90C00B4F96C
:1010A0001060C118B4F90A00B4F90E501044334668
:1010B0002A4600F007F80546616800F07AF905B0A5
:1010C0002846F0BD2DE9F04F85B01F46DDE911B48B
:1010D000DDE90E5690468946824605F0EBFD16483E
:1010E0004C34CDE90204CDE900563B464246494620
:1010F000504618F065FD040018D003F0E7FF1022F9
:101100005946049018F0AAFB049830220B49343059
:10111000FFF738FC094D04990C3D2868486604A87F
:1011200004F03EF8286841682046884707F02EFA08
:1011300005B02046BDE8F08FA50F0008540500203B
:10114000F0B5044680688B4989B051F8205060683A
:1011500000287DD0052804D006287AD0122879D11D
:10116000AEE0E86900284FD095E80E008DE80F004A
:1011700004F110010FC907F0A5FE002655F826005E
:1011800006F057FCA169E8690A1A216901446069FF
:10119000304404F0ADFEA169E8690A1A21690144EE
:1011A000E069801B04F0A4FEE169E8690A1A61693C
:1011B00001442069304404F02DFFE169E8690A1A0E
:1011C00061690144A069801B04F024FF761C022E93
:1011D000D4DBA86806F02DFCE069E9696669431A6A
:1011E000206942183144801C521E04F06FFFE169EF
:1011F000E869A2690B1A61690144101A401C921E29
:1012000004F064FFEE6913E05FF0000655F8260075
:1012100006F00FFCE069831BA069821B60698119DD
:101220002069304404F0B6FE761C022EEEDB022666
:10123000D5E90301CDE900016169E0690844431083
:10124000A069891C821B2069304404F015FE02E06D
:1012500089E012E08AE0D5E90501CDE90001E36902
:1012600060690121184401EB6001A0699B1E821B8B
:101270002069304404F000FE78E0206803F026FF87
:10128000049020681AF09EF940B1A06808B10020CF
:1012900008E00498006F28B1012003E00498406F33
:1012A00000B10220049901EB8000C56E04A803F090
:1012B00077FF00231A462846216804F025FB55E0F5
:1012C000206803F003FF0490866EEEB3B0F95C7003
:1012D000A168D1B3032942D05FF0000100EB810186
:1012E000406D0C6C06F0C2FB204606F0A2FB05A880
:1012F00004F0AEFFBDF81410A88B0144ADF8141033
:10130000BDF81810081AADF81800BDF81600801CBA
:10131000ADF81600BDF81A00801EADF81A0004984A
:10132000B0F96020B0F95E1005A806F0D1F904A864
:1013300003F036FF022006F0FDFC304603F0C6FE47
:101340003A4605A9079001E00BE006E004F01CFC1A
:101350000DF11C0003F024FF08E00121BEE702218B
:10136000BCE704A8F6E7206819F062FD09B0002088
:10137000F0BD0000142A040838B50D4604000ED054
:1013800005F098FC204603F0A1FE009045656846F4
:1013900003F006FF204619F037FA07F0F7F838BDDA
:1013A0004FF480720029114601D018F019B918F0D5
:1013B00063B82DE9FF410E4605004FF0010421D02E
:1013C00005F078FC284603F081FE0190876E01A8A5
:1013D000009703F0E5FE3146684608F057F878B10B
:1013E00000980024B84208D0284603F06FFE019010
:1013F0000099816601A803F0D3FE284619F004FA8B
:1014000007F0C4F804B02046BDE8F081FEE7F8B567
:10141000446805460146204618F04EF8002836D0AC
:1014200028680B2839D00E2805D00F2821D0B0F518
:10143000107F3CD12CE0204603F048FE009010F8CD
:10144000746F4778684603F0ABFE20461AF0BAF88E
:1014500010B3E8684168002929DD0068202826D1FA
:101460007F1CB7FBF6F006FB1071204600F031F947
:101470001DE02546204603F029FE0090006F046819
:10148000684603F08DFE002C01D02846A047F8BD29
:101490002946204626F05AF909E0204603F016FEB8
:1014A0000090783003F068FD684603F079FE284626
:1014B000BDE8F84018F03CBCF0B585B0B0F9085074
:1014C000468A84690296CDE903540027CDE90017C6
:1014D000B0F90C10B0F91050B0F90E40B0F90A0094
:1014E000194410442B46224600F002F805B0F0BD26
:1014F0002DE9F04F85B01D46DDE90E9716468A4668
:101500008346DDF8488005F0D5FB254C0EB135B19A
:101510000AE020688068006880470646F7E7206890
:1015200080680068804705461D486FF07041001DC7
:10153000C068884201D147F0010708F15400194AF8
:10154000CDE90220CDE900972B4632465146584658
:1015500018F036FB05001CD003F0B8FD10220490F3
:10156000119918F07BF90E4904983C22091D34307A
:10157000FFF708FA049821680167022180F87410C7
:101580000F21C16704A803F00BFE206841682846BC
:10159000884706F0FBFF05B02846BDE8F08F000045
:1015A000080800200F1400082DE9FF4704460068D2
:1015B00010B11AF007F868B10022314850F8221033
:1015C00060680A2841D007DCF0B306280DD0072850
:1015D00054D106E00122F0E712280AD019284DD193
:1015E00037E020461DF006FB48E020461FF0F4FEE1
:1015F00044E0206803F06AFD0290B0F9548090F84E
:101600005650476C466B02A803F0CAFD206800F0F4
:1016100039F88146684618F0ABFCBDF8001009EBBC
:1016200005000844ADF80000246A304606F01EFAB2
:10163000022006F07FFB384606F0FBF94246694679
:10164000204604F0A1FA19E007E0204620F016FB3E
:1016500014E0886904B0BDE8F087206819F0E8FB61
:10166000206803F033FD0390B0F90610B0F90220B2
:10167000891A491CC16703A803F092FD0020E9E71D
:10168000F033040838B5044605F014FB204603F097
:101690001DFD0090C46F684603F082FD06F076FFE2
:1016A000204638BD38B50C46050011D005F002FBC8
:1016B000284603F00BFD0090416BA14203D0446328
:1016C000284619F0A1F8684603F06AFD06F05EFFAF
:1016D00038BD38B50C4605001BD005F0EBFA28469E
:1016E00003F0F4FC009090F87410A1420CD980F83B
:1016F0007540684603F054FD284619F085F8052129
:10170000284619F041F902E0684603F049FD06F069
:101710003DFF38BDFEB50D46040022D0002D20D07F
:1017200005F0C8FA204603F0D1FC0190866F01A8AD
:10173000009603F035FD2946684607F0A7FE70B114
:101740000098B04208D0204603F0C0FC01900099F8
:10175000816701A803F024FD204619F055F806F032
:1017600015FFFEBD00B589B024216846FFF766F974
:1017700019200190034800688068416868468847DE
:1017800009B000BD080800207CB5214C0546216841
:1017900031F8220F4A8D104408804888CA8D1044C1
:1017A0004880284604F02EFD2168498CADF80010D1
:1017B0004618284607F030FD3044401EADF80400BE
:1017C00004F068FE2168898CADF802100844401EC0
:1017D000ADF80600684619F081FD04E0284602F0E5
:1017E00091FE19F02FFD0028F8D10A2D04D0BDF884
:1017F00004002168401C4884206830F8221F428D74
:10180000891A01804188C28D891A41807CBD0000FF
:1018100078040020054910B50020486000F0A6F8C3
:1018200000F006F8BDE8104000F086B87C02002009
:101830002DE9F041104F002635463E807E80BE6087
:10184000FE607E61BE613E61FEF770FD8046002451
:101850007E6100F049F800F057F87869641C2404B0
:101860000544240CF4D0C7E904564046BE61BDE8E7
:10187000F041FEF75FBD00007C02002003490969CA
:10188000884201D9401A7047002070477C0200202E
:1018900010B5FEF74BFD04494C69FEF74BFD2046A1
:1018A000BDE81040FFF7EABF7C02002010B5FFF74B
:1018B000EFFF0446FEF73AFD034A00215161FEF7AF
:1018C00039FD204610BD00007C02002010B5FEF757
:1018D0002DFD04498C69FEF72DFD2046BDE8104022
:1018E000FFF7CCBF7C02002010B5064C2088401CBE
:1018F0002080608810B900F051F8A0606088401C1A
:10190000608010BD7C02002010B50A4C6088401E2B
:101910000004000C60800CD100F040F8E060A16889
:10192000401A6169814200D26061A169814200D29E
:10193000A06110BD7C02002010B5FEF7F7FC044644
:10194000FFF7D2FF102105480EF0CCFFFFF7DCFFB8
:101950002046BDE81040FEF7EDBC000088180120CD
:1019600001494860704700007C02002010B508F073
:10197000ADFE08490A6842F080720A6006490022FA
:101980004A600A6842F001020A60BDE81040FFF7B1
:10199000E7BF0000FCED00E0001000E001484068F7
:1019A00070470000001000E070B50E4C0025C4F830
:1019B00098520D48016821F0C0010160016841F0B2
:1019C000400101600948C0F88C52022004F52674D9
:1019D0002AF002FC0120206002202AF0FDFB256095
:1019E00070BD0000008043420020024000004442DD
:1019F000154810B5016886B041F0800101600168AA
:101A000001F080010591016841F480710160006876
:101A1000012400F4807005904020CDE900040320EB
:101A2000CDE902406946094807F0A6FE082000906B
:101A30006946074807F0A0FE0648C0F88C420648F1
:101A4000C0F8984206B010BD30380240001C024079
:101A500000200240000044420080434270B50E4C1A
:101A60000026C4F898620D48016821F0C0010160A9
:101A7000016841F04001016009480125C0F88C521D
:101A8000022004F526742AF0A7FB256002202AF024
:101A9000A3FB266070BD000000804342002002408E
:101AA000000044422DE9F0478246194800240168AD
:101AB00021F0C0010160016801601E202AF08CFB4A
:101AC0000025144EDFF850902F464FF00108C6F85D
:101AD000987202202AF080FBC6F898826006040EF5
:101AE000D9F80C0208B1641CE4B202202AF074FB9D
:101AF0006D1CEDB2082DEAD3BAF1000F04D0FFF748
:101B000053FF2046BDE8F087FFF7A8FFF9E7000084
:101B10000020024000804342000044422DE9F0478B
:101B200005461648016821F0C0010160016841F0D6
:101B300040010160124E0027C6F8987202202AF078
:101B40004BFBDFF8408000244FF00109E909C8F899
:101B50008C126806050E02202AF03EFBC6F8989209
:101B600002202AF039FBC6F8987202202AF034FBD2
:101B7000641CE4B2082CE9D3BDE8F08700200240E1
:101B8000008043420000444270B50F48016821F0D4
:101B9000C0010160016841F0400101600B4E01206D
:101BA000C6F88C020A4DC5F898021E2005F5267568
:101BB00006F523762AF010FB0024346002202AF078
:101BC0000BFB2C6070BD000000200240000044426E
:101BD0000080434270B50F48016821F0C0010160E8
:101BE000016841F0400101600B4E0020C6F89802E8
:101BF0000A4DC5F88C021E2005F5237506F52676DC
:101C00002AF0EAFA0124346002202AF0E5FA2C6076
:101C100070BD0000002002400080434200004442AA
:101C200070B511480024016821F0C001016001680D
:101C300001600E4D0120C5F88C020D4EC6F89802C9
:101C400007E0641CE4B2FA2C03D9FFF7C3FF0120BC
:101C500070BD02202AF0C0FAD5F80C020028F0D19D
:101C6000C6F8980270BD0000002002400000444207
:101C700000804342FEB515460C46064607F0F6FCCA
:101C80000B4FC6EBC60257F8223000FB043100FBB5
:101C9000053007EB820400232269CDE9002302937B
:101CA00002463046E36800F081F9A560FEBD000001
:101CB000C43501202DE9FE4F9846DDE90C94164607
:101CC0000F460546DDF838A007F0D0FC0246114962
:101CD000C5EBC50051F820C001EB80004168C36826
:101CE00002FB01C106FB03774669406807FB06114A
:101CF00002FB00C709FB038000FB0672181B0026CD
:101D0000CDF800A0CDE901062346284600F04EF9A3
:101D1000BDE8FE8FC43501202DE9F0471D46DDE901
:101D2000086A14460F46804604F09AFB012831D019
:101D3000ED1B361B40466D1C761C07F097FC0146D8
:101D4000214BC8EBC80053F8202003EB80008368C8
:101D500001FB0322C168406904FB017303FB0027F8
:101D60004046A1EB0509D04600240BF015FD1849AB
:101D7000164A0A60C1F83880CF63C1F840904863C2
:101D800065F31F464E64086840F0010008604FF498
:101D9000001214E00022192140460CF0FDF83346F1
:101DA0002A46214638460BF001FB4046BDE8F04785
:101DB000084A19210CF0F0B8641C944202D2086859
:101DC000C007F9D1BDE8F087C43501200002030047
:101DD00000B00240191D000838B50324009400F03B
:101DE000B1F838BD38B50424009400F0ABF838BD24
:101DF00038B50024009400F0A5F838BD38B50024AB
:101E0000009400F09FF838BD1CB518F0DFF80346C9
:101E1000002000900190034A1021034803F04AFC7F
:101E20001CBD0000ADAD0208348B03081CB518F0D2
:101E3000CDF80346002000900190034A0D2103488D
:101E400003F038FC1CBD000029B00208F48C030824
:101E50001CB518F0BBF80346002000900190034A1F
:101E60000921034803F026FC1CBD0000C5B102088F
:101E7000608E03081CB518F0A9F8034600200090F6
:101E80000190034A1221034803F014FC1CBD00001A
:101E9000C9B202085C8F03081CB518F097F8034616
:101EA000002000900190034A4821034803F002FCFF
:101EB0001CBD0000F1B402085491030870B515462A
:101EC0000E461C461A460A490AF0AEFD224609494A
:101ED00030460AF0A9FD2346074A0649044800F0A7
:101EE0000DF822462946BDE8704003480AF09CBD23
:101EF000E0750120E0B50120E035012070B5104DFE
:101F00000E4E00242E60E8606961EA632C61AC61CA
:101F10002C64EC616C626C63012000EB034068642C
:101F2000286840F0010028604FF4001102E0641CB2
:101F30008C4202D22868C007F9D170BD00020200AD
:101F400000B00240F8B50E4614460649069D0AF058
:101F500072FD2B46002231460248009400F004F83E
:101F6000F8BD0000E0350120F0B50F4D4FF481378A
:101F7000059E00242F60E860E9632C612C64EA610F
:101F80006B63012000EB06406864286840F00100A4
:101F900028604FF4001102E0641C8C4202D22868D1
:101FA000C007F9D1F0BD000000B002402DE9F047B4
:101FB0000F4608A91D4691E80007164600240BF0BD
:101FC000EBFB0E494FF400720A60CF60CE63C1F89C
:101FD0001090C1F840A0C861404665F31F404864B6
:101FE000086840F001000860120302E0641C94429B
:101FF00002D20868C007F9D1BDE8F08700B00240FE
:1020000038B514460D46049A002305490094FFF79D
:10201000ABFF22462946BDE8384001480AF00BBD17
:10202000E03501201EB50023FF24B4EB116F2CD046
:1020300080F07F40009081F07F4001901448134968
:102040000160C0F80CD001A9416102A9C1634FF43D
:10205000803141EA0261C161C2F1FF0109064162BA
:10206000002141634FF001114164016841F0010119
:1020700001604FF4001202E05B1C934202D201683F
:10208000C907F9D1029880F07F401EBD000202000E
:1020900000B002402DE9FC410C46050038D004F0A8
:1020A00009FE112C14D0132C28460ED003F00EF884
:1020B000009000F0DBFB0646684603F071F820460E
:1020C00027F042FC074600241CE000F006FB1BE062
:1020D000284600F087F917E02146284600F0C9FBA2
:1020E000019070B1007827F02FFC00F0FF0801A8E4
:1020F00003F056F8B84504D12146284600F06DFBA0
:1021000002E0641CB442E7DBBDE8FC4106F03EBAE5
:10211000BDE8FC81F8B50C46050018D0002C16D09F
:1021200004F0C8FD284602F0D1FF0090C66B684657
:1021300003F036F82046FEF773FB421C214630467A
:1021400003F052F8284618F05FFB06F01FFAF8BDBE
:102150002DE9FF4145680446284602F0B7FF01908B
:10216000D0F8886001A803F01BF80EB1012700E049
:1021700000272146284617F09FF9002856D02068EE
:10218000112844D006DC0B2863D00E2878D00F2805
:102190002BD14FE0212805D026281AD0B0F5107F8A
:1021A00023D139E0E068416800291EDD00680D2870
:1021B0001BD130460CF0E3FD002806DB30460CF066
:1021C000DEFD0146284600F008FB284600F07EF8B8
:1021D00075E0E068012809D00A2802D00B2871D1E7
:1021E00011E00A21284618F0CFFB6BE030460CF0D6
:1021F000C6FD002866DB30460CF0C1FD01462846CE
:1022000000F0EBFA5BE0284600F060F85AE0FFB916
:10221000E068007A98BB55E0E06848B1007A08B100
:10222000012100E00221284618F0AEFBBDE8FF8145
:102230000321F8E72E46284602F048FF0290D0F826
:102240008400056802A802F0ABFF0DB13046A84734
:1022500038E0284602F03AFF0090C06B03F004F823
:102260000098D0F8880017F09BFD0098D0F89400F3
:1022700002F058FE684602F093FF23E000E016E00B
:10228000E068416800291DDD016820290FD006DCC7
:10229000092910D00A2915D01B2904D112E02129BF
:1022A00010D022290ED02846FFF7F4FEBEE72846BC
:1022B00000F0FAF806E017F0CDFEB04202D1284651
:1022C00018F030FD204617F033FDAFE738B50400B5
:1022D00016D004F0EFFC204602F0F8FE0090D0F893
:1022E000880040B117F05CFD00990020C1F888001B
:1022F000204618F089FA684602F052FF06F046F9C7
:1023000038BDF0B585B0B0F90850468A84690296A8
:10231000CDE903540027CDE90017B0F90C10B0F94E
:102320001050B0F90E40B0F90A00194410442B4681
:10233000224600F003F805B0F0BD00002DE9FF5F74
:102340001D46DDE90F8691468A4683460E9F129C04
:1023500004F0B0FC21496C34CDE90214CDE90078D9
:102360004FF0FF334A465146584617F029FC040007
:102370002DD002F0ABFE10220090119917F06EFAEA
:1023800000983822164980F88C604C30FEF7FAFA33
:10239000134E0098361F3168C0F88410002180F871
:1023A0009010C586204600F040FA684602F0F8FE1C
:1023B00002F057FF0546204602F088FE0090C563F4
:1023C000684602F0EDFE306841682046884706F016
:1023D000DDF804B02046BDE8F09F00005121000860
:1023E0008805002010B5044600F063F9010000D014
:1023F000411E2046BDE8104000F0EFB9F8B5054693
:10240000006802F063FE0090448ED0F88860684651
:1024100002F0C6FE06B1012604F00104286819F096
:10242000D1F80EB1002006E00CB1012003E008B1A4
:10243000022000E003201B4951F82010686858B3BF
:1024400002280CD0052802D0122828D103E0284603
:102450001CF006FB23E0284620F0C6F81FE06A695E
:10246000E8694FF0FF33801AA0F1080203EB620421
:10247000421CAB69001B4510A3EB6206C86905F05E
:10248000D8FA06E03219311B284603F031FD641EEC
:102490006D1C002CF6DA02E0286818F0C9FC002058
:1024A000F8BD0000242A04082DE9F14F9EB01E98C3
:1024B00000287DD004F0FEFB1E9802F007FE0B9072
:1024C0001E9817F0D2FE03900B98B0F9367090F872
:1024D00090101891C16B0A9190F88C90B0F934105B
:1024E000159100F0C3F982460B9804ACB0F88E1039
:1024F0001491B0F982101391C16C1291D0E90012BD
:10250000CDE90C12D0F894B0002100BF00EB81029D
:10251000126D44F82120491C0329F7D3002107AD8F
:1025200000EB8102D26D45F82120491C0329F7D325
:1025300000210EAE00EB8102126F46F82120491CEB
:102540000329F7D30BA802F02BFE1E9817F01FFEED
:1025500002F0BCFD1190D0F8008011A802F020FE1E
:102560004FEA284042420FFA88F041420CA805F099
:10257000AFF85FEA897003D5BDF83200C01B01E0F7
:10258000BDF83600ADF832001E9817F000FE014687
:1025900003980222CDE900070292BDF93230BDF95D
:1025A000302000200CF06FFB80465FEAC97000E02D
:1025B0007CE007D0404618990CF02FFE01214046E0
:1025C0000CF050FD002708E039460A9802F0ADFEF5
:1025D000014640460CF012FA7F1C5745F4D3002701
:1025E000394654F8272040460CF066FD7F1C032F27
:1025F000F6D30024214655F8242040460CF0A6FED0
:10260000641C032CF6D30024214656F824204046AF
:102610000CF0E3FD641C032CF6D35FEA0B001FD023
:1026200002F054FD169030F8025B002406460127A4
:1026300011E000BF06EBD40004F00701007807FAB0
:1026400001F1084201D0012200E00022214640466B
:102650000CF064FD641CAC42ECDB16A802F0A0FD9B
:10266000404614990CF08DFD404612990CF03DFD4A
:10267000404613990CF055FE404618F053FB404677
:102680001E990CF095FD404615990CF0E3FD0121D3
:102690001E9818F079F91E9802F018FD0B90C0F8FA
:1026A00088800BA802F07CFD05F070FF1FB0BDE82C
:1026B000F08F38B505004FF000040CD004F0FAFAA2
:1026C000284602F003FD0090B0F93440684602F05D
:1026D00067FD05F05BFF204638BD10B50446FFF7E7
:1026E000E8FF411C2046BDE8104000F076B8F8B580
:1026F0000E46040021D004F0DDFA204602F0E6FC8C
:10270000009090F88C10D0F8885021F001040EB1A0
:1027100044F00104A1420BD080F88C40684602F0DE
:102720003FFD45B104F0010128460CF09BFC02E09E
:10273000684602F035FD05F029FFF8BDF8B50C46F6
:10274000060028D004F0B6FA304602F0BFFC009034
:10275000D0F88850C06C03F0F1FE07460098C464BE
:10276000684602F01DFD304600F05FF8304618F074
:102770004BF875B1204603F0E1FEB84205D0304673
:10278000FFF7A4FD3046FFF78FFE214628460CF0E8
:10279000ACFC05F0FBFEF8BDF8B50C4605004FF0AB
:1027A000000618D004F086FA284602F08FFC00904C
:1027B000B0F93660D0F88850C486684602F0F0FC64
:1027C0003DB1284617F051FD01462246284618F033
:1027D00084FB05F0DBFE3046F8BD38B50C4605003D
:1027E00022D004F067FA284602F070FC009000F056
:1027F0003DF800B1401E844200DD04460098B0F967
:102800003410A1420BD08486684602F0C9FC2846E9
:1028100017F0FAFF0421284618F0B6F802E06846DF
:1028200002F0BEFC05F0B2FE38BDF8B5044602F079
:102830004DFC01460090B0F9380010B9C86C03F0A7
:102840007DFE0099CA6AB1F98030126800EB43003E
:102850001618084618F034FD0546684602F0A0FC3C
:1028600032462946204618F038FBF8BDC06B02F00E
:1028700050BD38B50D46002402F028FC0090C06B16
:10288000294602F052FD0546684602F089FC1DB15A
:10289000284602F01BFC0446204638BD70472DE94F
:1028A000FC470E465FEA00097FD004F003FA484671
:1028B00002F00CFC009090F85470D0F85880456BF2
:1028C000C46C684602F06CFCB8F1000F04D03146CD
:1028D00048464246904761E0122E18D006DC082E8A
:1028E00043D0102E3CD0112E06D112E0132E21D051
:1028F0001D2E43D01E2E3DD0202E4FDB17B1484653
:102900001BF0AAFDB1B2484623F027FC60B3611C5E
:1029100027E04DB3284602F0D9FB05462146019039
:1029200005F022FD4419204605F0CCFC0146234663
:10293000012210E0C5B1284602F0C8FB0546214639
:10294000019005F011FD4419204605F0BBFC01463D
:1029500023464FF0FF3248461AF063F801A81BE007
:10296000611E484600F0FEF918E0BCB1611E484601
:1029700000F0F8F948461BF06FFD0FE0484602F002
:10298000A5FB0090012F12D0012180F854102146A0
:10299000484600F0E7F9684602F002FC484617F0A6
:1029A00033FF00E001E005F0F1FDBDE8FC87002108
:1029B00080F85410EFE7FEB544680546204618F04D
:1029C00001FE06462946204616F076FD002837D03F
:1029D00028680F2830D004DC0B2832D00E2853D1C1
:1029E0003AE0A0F58070133804D0A0F580702D383F
:1029F0004AD110E0204618F0A7F82046002125F023
:102A000002F8204602F062FB0190C06F002118F02E
:102A100072F801A81DE0E86860B1017A29B1016887
:102A2000204600F0AFF8012100E00221204617F017
:102A3000ABFF29E00321F9E70121204624F0E3FF61
:102A4000FEBD204602F042FB0090343002F094FAC2
:102A5000684602F0A5FB17E0B6B1E86841680029B6
:102A600012DD01681B290FD006DC09290CD00A29C8
:102A70000AD00D2904D107E0212905D0222903D04D
:102A80002046FFF70CFFFEBD284617F051F9FEBDAA
:102A9000F0B587B004460DF1080CD4E90567B0F92C
:102AA0000850408A8CE8E1000020CDE90010B4F91C
:102AB0000C00B4F91060C118B4F90A00B4F90E5052
:102AC000104433462A4600F009F8050002D0618A16
:102AD00000F033F907B02846F0BD00002DE9F04FB3
:102AE00085B01F46DDE91254DDE90E6A904689463D
:102AF000834604F0DFF80DF1040C4AF480501F49BE
:102B0000583400968CE813003B46424649465846E6
:102B100017F056F804002AD002F0D8FA10220490D8
:102B2000119916F09BFE04981C2215496030FDF7A0
:102B300029FF049A012082F85500681C00D001206A
:102B400082F88000002D00DC08252DB215870020BA
:102B50005087506304A86D1C02F022FB29462046D2
:102B600022F03DFF18B9204617F01AF9002405F0AD
:102B70000DFD05B02046BDE8F08F0000B729000824
:102B8000C00500202DE9F04186B00C46060055D066
:102B900004F090F8304602F099FA0090406B98B338
:102BA00002F094FA03900098806E04F05FFF804674
:102BB000304617F05AFB0746039803F095FC05468C
:102BC000009890F8601001F00301012916D0022945
:102BD0000DD0416EC06A00680844241A641E039830
:102BE00006F0FEFA0146002C0FDA002115E0781BF2
:102BF000401C00EBD070A4EB6004F0E7406E791B42
:102C0000081A241A641CEAE713E0AC4205DC024609
:102C10002146039806F084FA0146304600F0A2F8F7
:102C200003A802F0BDFA404604F020FF304617F03A
:102C3000EBFD684602F0B4FA05F0A8FC06B0BDE86A
:102C4000F08138B50D4604000ED004F033F820466C
:102C500002F03CFA00908566204617F0D5FD6846E4
:102C600002F09EFA05F092FC38BD2DE9FC4788463B
:102C70005FEA00094FF0000652D004F01BF8484606
:102C800002F024FA0090B0F93850446B684602F024
:102C900087FA0027B8F1000F44D04CB1204602F06B
:102CA00015FA0190FDF7BCFD461C01A802F078FA68
:102CB000404606F095FA0446A84200DD2C4621461F
:102CC000404605F051FB451CA91B484623F0F5FB87
:102CD00008B3484602F0FAF90090406B02F0F6F9AA
:102CE0002A4641460190FDF7C6FD0198284400F8A8
:102CF000017C0098C464B0F938108C4205D190F87A
:102D00005410012901D1641EC46401A802F048FADC
:102D1000684602F045FA484617F076FD05F036FCA5
:102D2000BDE8FC87484602F0D1F90090343002F04B
:102D300023F900984787C764EAE738B50C460500D1
:102D40000FD003F0B7FF284602F0C0F9009018B189
:102D50000466284617F058FD684602F021FA05F08F
:102D600015FC38BD1CB50C4602F0B0F90090406B64
:102D7000F0B102F0ABF9019006F032FA009991F847
:102D8000542002B10122002C00DA0024844200DD2C
:102D90000446B1F93800801AA04200DA0446C86C33
:102DA000A04200D0CC640020086501A802F0F8F928
:102DB000684602F0F5F91CBD70B5044600680F289E
:102DC00006D01D280CD02046BDE8704016F0B0BFDC
:102DD0006FF07F4004F02DFEBDE8704002F01EBC95
:102DE00040F60111606817F007F90546154912F021
:102DF00031FF15A1284612F044FF40F60211606829
:102E000017F0FAF80546184912F024FF17A12846D2
:102E100012F037FFFF21284612F05DFF40F6031144
:102E2000606817F0E9F804460F4912F013FF14A187
:102E3000204612F026FF2046BDE87040FF2112F028
:102E40004ABF000010000408466F6E74205570647D
:102E5000617461696E672C506C65617365205761A0
:102E600069742E2E2E000000C8AD030865726173D0
:102E70006520636869702E2E2E2E2E2E0000000015
:102E800030250000102A0FD0C26AD1E9002342EA9F
:102E900003220B89097B4FEA034343EA016142EABB
:102EA000010203D1C26002E0C268EEE7C2624FF0E5
:102EB00000007047102A0FD0826AD1E9002342EA4D
:102EC00003220B89097B4FEA034343EA016142EA8B
:102ED000010203D1826002E08268EEE782624FF075
:102EE0000000704730B50A68102A1AD0026A104BE9
:102EF00002EA0302D1E9013443EA0403D1E90345BC
:102F000044EA050443EA04034C69896943EA44231B
:102F100043EA413141EA020141F0080103D1016075
:102F200002E00268E3E701624FF0000030BD0000FC
:102F30008101F0FF70B5B3F5804F05D06FF070419F
:102F400040F82210002070BD50F82230084C234079
:102F5000D1E9004544EA05148D688E892D0245EAC1
:102F6000064589692C430C431C4340F82240E9E79D
:102F70000000F0CFF0B50C6850F82450194A154005
:102F8000D1E90123D1E903671A433E4332434E6935
:102F900032438E693243CE6932430E6A32434E6AFF
:102FA00032438E6A3243CE6A3243CE6B32430E6B6B
:102FB00032434E6B32432A43082B01D142F0400288
:102FC00040F824204A6BB2F5801F08D10A6832B15C
:102FD0004FF480720A6104490268114301600020C5
:102FE000F0BD00008000E0FF00011000F0B500EB34
:102FF000820253688E8903F04044D1E9003543EAE8
:1030000005138D682D0245EA06452B430E8A0D4DAA
:1030100005EB065633430E7D6F0107EB066633431F
:103020008E693343234353600268D20207D5426856
:10303000098A22F4700205EB01511143416000201E
:10304000F0BD00000000F0FF30B5D1E901231A43C4
:10305000D1E9033423431A434B690D681A438B6942
:103060001A43D1E90734012D496A05686FF30E054B
:1030700005D01A4322430A432A43026008E023434F
:1030800029430B43416803606FF30E010A4342601A
:10309000002030BD426942EA410141610020704791
:1030A000F8B514460546D1E9000210438A686FF06E
:1030B0001F03C96803EB421242EA41210843009012
:1030C000286106F04DFC064609E0601C07D024B1DB
:1030D00006F046FC801BA04201D90320F8BDA86978
:1030E0008006F2D40020F8BDF0B56FF00F05D1E9ED
:1030F000003405EB04145B1E2E0123438C682F0360
:1031000006EB04244FEA054C23430D8A8E8ACC68D3
:10311000097E4FF07F4E07EB05450CEB06560EEB94
:103120000161012A0CD082683F1107EB043423436C
:103130002B43334302F070420B43134383600FE091
:10314000C2682B430B4302F070428168134301F0C5
:1031500070422103A1F5805131431143C360816066
:103160000020F0BD2DE9F047044640688EB00027EE
:10317000804601F0ABFF0090B0F87CA0D0F86890DA
:10318000D0F88060D0F88850C06D00B107686846FC
:1031900002F006F805E0696820468847002843D118
:1031A0002D68002DF7D12068172853D00CDC0F288C
:1031B0003DD004DC0B2877D00D2825D18BE01128D9
:1031C00010D0142820D13BE0262846D004DC1E284D
:1031D00051D0202818D18AE02A2816D0B0F5107FC7
:1031E00012D128E04046E56801F070FF0290697A4C
:1031F00039B9297A012904D130F87C1F41F4807152
:10320000018002A801F0CCFF75E0404601F05EFFAE
:103210000090E16811B1C0F8841002E0D0F8840099
:10322000E060684601F0BCFF0EB0BDE8F087D7B3A0
:103230004046B8475FE02146404624F04FFAF3E7A6
:1032400005A9404600F0B3FBE068069901600799C4
:103250004160E9E7C4F80C90E6E7E0680228E3D1B2
:10326000CDF83080E0680D9027200A900AA9A06868
:1032700018F0A2FBD8E7E068012804D000214046FE
:1032800000F0BBFAD0E7304617F027FB68B13046B4
:1032900017F048FD304617F0E3F998B101213046A8
:1032A00016F09EF90EE026E02FE0484617F08EFD5E
:1032B0000646404601F00AFF0090C0F8806068466C
:1032C00001F06EFF0121404600F097FA002EABD1CD
:1032D0000020E060A8E75FEA0A700CD4E068C068EC
:1032E00048B1007A38B1404617F01CFD03E0214692
:1032F000404623F008FE2146404616F0DDF800283F
:1033000092D0204616F014FD8EE7404601F0DEFE16
:103310000090703001F030FE684673E7F0B587B07A
:10332000B0F908400DF10C0C0C9E876945688CE8DB
:10333000F000448A0025CDE900150294B0F90C1084
:10334000B0F91050B0F90E40B0F90A001944104419
:103350002B46224600F002F807B0F0BD2DE9F04FF1
:103360008BB09846DDE9155691468A468346149FF0
:103370001A9C03F09FFC3348603445F48055CDE936
:103380000204CDE9007543464A465146584616F0B8
:1033900017FC04004FD001F099FE302204901799D9
:1033A00016F05CFA0498282227493430FDF7EAFA2F
:1033B00004981999244F4166A0F87C600026C0F853
:1033C0008060C666083FC0F888607968C16504A857
:1033D00001F0E6FE05A9204600F0E9FA1B4841F29B
:1033E000827103960094CDE90110BDF91E00BDF96C
:1033F0001A10BDF91C20431ABDF918005B1C121AE3
:10340000521C16F0DDFB0646786841682046884766
:10341000204601F05BFE0490866604A801F0C0FE21
:1034200042F20400054202D1204616F031FD20464A
:10343000189900F027FA05F0A9F80BB02046BDE86E
:10344000F08F000065310008E4050020B53C00085D
:103450002DE9F041044694B0006800F0B7F908B1D6
:10346000D94D01E0D84D2C35606815281ED00CDCF4
:103470000B281FD004DC00287ED005287DD12FE149
:103480000E287BD01228F9D141E1162806D0172842
:1034900008D0182808D01C28F0D109E0E86914B039
:1034A000BDE8F081286AFAE7686AF8E7A86AF6E7F3
:1034B0006869F4E720680B901C200C90206801F0EC
:1034C00005FE0390016D0BA88847064603A801F08E
:1034D00067FE022E0FDB95E807008DE80700D4E9B0
:1034E00004023346A16905F0B3FC20698719A0697D
:1034F000A0EB06082CE0286804F09BFA2169E86933
:103500000A18521E606902F0F3FCA269E869111AF8
:10351000491C606902F0ECFCD4E904077F1C3946C1
:1035200002F012FD3946A06902F00EFD686804F051
:1035300080FA20693946401C02F006FDA069394630
:10354000401E02F001FDA0692769A0F10208BF1C1E
:10355000286804F06EFA42463946606902F0C8FCF9
:10356000686804F066FA606942463946401C02F019
:10357000BFFC686A022802E015E1B0E000E10BDD63
:10358000A86804F056FA61696A6A881C8B180146BB
:10359000424638465B1E27E0296AB14226DD606953
:1035A000022E074600F1020801DB374401E007F173
:1035B0000207206901DB304401E000F102002269CA
:1035C0003B460A444146A2F1010202F07FFD022E71
:1035D00002DBA069821B01E0A269921EA069E96971
:1035E0003B46401A4146401C02F070FD022E02DBB1
:1035F0006069064401E06669B61CE76928687F1EB9
:1036000004F017FA3A463146206902F003FD3A46C3
:103610003146A06902F0FEFCE7696868BF1E04F04D
:1036200008FA20693A463146401C02F0F3FCA069D2
:103630003A463146401E02F0EDFCE869022802DC01
:10364000286A022823DDA86A022802DDE1690F1A30
:1036500001E0E769BF1EA86804F0EBF9E9690229F7
:1036600009DD20693B46421800F1020C31466046F4
:10367000521E02F02BFD286A022808DDA269E869C3
:103680003B46101A3146401C921E02F01FFD28686E
:1036900004F0CFF9D4E90620216902F029FC68681A
:1036A00004F0C7F9D4E906202169401E491C521EC6
:1036B00002F01EFCA86A022811DDA1692669E469EE
:1036C000A1F10208271AA41EB61C7F1CA86804F0EA
:1036D000B0F9234642463946304602F0F7FC71E025
:1036E000208A00B2ADF81400A18A09B2ADF8161014
:1036F000228B12B2ADF81820A38B1BB2ADF81A3092
:103700002C69ED68CDE9005402F0B6FB5AE0208A3E
:10371000298B0844ADF81400A08AADF81600208B60
:10372000298B401AADF81800A08BADF81A0020685C
:1037300001F0CCFC0390006FF0B1022004F0FAFA23
:10374000039890F87C10C1F3C00100EB8100006C7D
:1037500004F06FF90398406B04F088F90398006F48
:1037600001F0B4FC03990990B1F95A2005A902F0BF
:103770000BFA09A801F014FD03A801F011FD21E0E6
:10378000208AADF81400A08AADF81600208BADF8A1
:103790001800A08BADF81A00A86804F04AF905A833
:1037A00002F0C0FC0EE0206801F090FC039030F8BD
:1037B0005A1F41F00C01018003A801F0F1FC2068C0
:1037C00017F036FB00206AE61809002038B505001E
:1037D0004FF000040FD003F06DFA284601F076FC9C
:1037E000009090F87C00000700D50124684601F0A5
:1037F000D7FC04F0CBFE204638BD70B50D46040062
:1038000009D003F057FA2946204624F0ADFEBDE862
:10381000704004F0BBBE70BD2DE9FC410D468046F2
:1038200003F048FA5FEA080028D001F04FFC01904D
:10383000C16D8C6800F022F907460198456301A824
:1038400001F0AEFC226801214046904706462268FE
:103850000321404690470546226800214046904794
:103860000446404600F0EFF92B46324639464046C2
:10387000009400F078F9404616F0C6FF04F086FE8A
:10388000BDE8FC817CB50D4604001DD003F012FAA2
:10389000204601F01BFC0090006F0190684601F08B
:1038A0007FFC294601A805F0F1FD58B1204601F042
:1038B0000DFC009001990167684601F071FC2046FB
:1038C00016F0A2FF04F062FE7CBD38B50C46050080
:1038D00013D003F0EFF9284601F0F8FB0090B0F99F
:1038E0005A10A14204D0A0F85A40284616F08CFF86
:1038F000684601F055FC04F049FE38BD38B50C4669
:10390000050015D003F0D6F9284601F0DFFB0022B0
:10391000CDF8000000EB8201521C0C64022AF9D39E
:10392000684601F03DFC284616F06EFF04F02EFEBE
:1039300038BD2DE9FC470D465FEA00094FF0000451
:1039400032D003F0B7F9484601F0C0FB0190B0F95E
:103950005440A54223D000F091F8804601980121FF
:10396000A0F85450C06D856848462A6890470746BD
:103970002A6803214846904706462A68002148469F
:1039800090470546484600F05EF933463A464146C0
:103990004846009500F0E7F8484616F035FF01A8C4
:1039A00001F0FEFB04F0F2FD2046BDE8FC872DE9A6
:1039B000F34F85B000270C46B846059801F086FB0A
:1039C0000090C06D0121856805982A68904782465D
:1039D0002A6803210598904704902A6802210598D7
:1039E000904703902A680021059890470646009862
:1039F00017F066FC8346009817F069FC8146009832
:103A000090F83210890601D5B0F9588000F036F8E8
:103A100005460098C06E10B116F03EFC07462580A2
:103A20006780A4F804A0049AABEB020006EB08023E
:103A3000401E2A4420813A44E280039BA9EB030202
:103A4000521E6281A4F80CA020827019E681401EEB
:103A50006082684601F0A4FBB4F90C000190B4F94F
:103A60001000029002AA01A9059800F039F8019807
:103A7000A0810298208207B0BDE8F08F10B5014602
:103A8000002091F83220920607D5B1F954000028A1
:103A900003D1486B02F057FD801C10BD70B58AB091
:103AA0000C46054601F012FB0990C06D866809A816
:103AB00001F076FB009534B1012C06D0022C0BD01E
:103AC000032C04D10AE0182000E016200190716850
:103AD000684688470AB070BD1520F7E71720F5E75C
:103AE0002DE9FC4117468846044601F0EFFA0090A4
:103AF000C16D056868468E6801F052FB326800218E
:103B0000204690470646204616F087FA27E000BF79
:103B100001F0DCFA0190B0F900102AB2B0F90430DB
:103B2000891A9A1AB0F90230A3EB2543B34210D197
:103B300090F82800000605D53868884209DB491E40
:103B4000396006E0D8F80000904202DC521CC8F848
:103B5000002001A801F024FB204616F00BFB040016
:103B6000D6D1BDE8FC812DE9FF4F83B00E46074654
:103B7000DDF8409001F0AAFA0190C16D8D68FFF761
:103B80007DFF044601A801F00BFB2A68012138469D
:103B9000904783462A6803213846904782462A6820
:103BA0000021384690470546B44207D105998B4518
:103BB00004D106998A4501D14D4541D0A41B002668
:103BC000B046384616F029FA38E001F07FFA009046
:103BD000806A010601D5800502E0810528D500062E
:103BE000002825DB24B122461146384616F009FF8D
:103BF000009890F8280000060AD50698A5EB09025F
:103C0000A0EB0A0004FB16013846761C16F0ADFE48
:103C10000098008D80050BD50599A5EB0902ABEB4B
:103C2000010004FB080108F10108384616F09DFE6A
:103C3000684601F0B5FA384616F09CFA0700C4D180
:103C400007B0BDE8F08F70B586B0064601F03EFAC9
:103C50000590D0E91A4505A801F0A2FA54EA05003A
:103C600026D069463046FFF7A2FEACB1BDF906206A
:103C7000BDF90410204616F04BFEBDF90A00BDF94F
:103C80000610421ABDF90800BDF90410521C411A71
:103C90002046491C17F021F9002D09D0BDF9060076
:103CA000BDF90210421ABDF90410284616F030FE84
:103CB00006B070BD2DE9F0430446406889B0054662
:103CC00016F065FA814601F001FA0290D0F84880BA
:103CD000D0F88070466E02A801F062FA20681728BA
:103CE00053D008DC0E283AD00F2811D014284CD01D
:103CF00015283DD149E01E281ED01F282AD0222891
:103D000040D0312834D10020E06009B0BDE8F08314
:103D10006FF070414046884503D00AF071F801F019
:103D20007DFC002EF1D0D4E902122068CDE9040513
:103D3000CDE9061204A81FE0E0680028E5D02FB105
:103D4000AF4203D0384616F0EDFFDEE7284617F005
:103D50003DF8DAE72146484615F0AEFBD5E7E068C6
:103D60004168002904DD00680928EFD00A2805D041
:103D70005EB12046C4F80490B047C6E7284617F065
:103D800034F8C2E7C4F80C80BFE7204615F0D0FF36
:103D9000BBE7000038B50446094D4FF0AA3000904B
:103DA000A879042360436A4600210DF091FAA879AE
:103DB000042360436A460021401C0DF089FA38BD97
:103DC000104300202DE9FC47254F89460646002573
:103DD00000240DF1040810E0CDF8008079887043CC
:103DE0008B084A4600210DF0F5F87888BDF80410DC
:103DF000B1EB900F04D1641CA4B2B879A042EBD807
:103E0000B879A04202D10020BDE8FC8730460CF012
:103E100005FF20B1294613A0FCF716FB16E0B9F107
:103E2000FF3F13D000200AE07A8806FB00109308B9
:103E3000002211460DF024FABDF80400401CADF834
:103E40000400B879BDF804108842EDD86D1CADB2FD
:103E5000032DBDD3314609A0FCF7F6FA0120D3E7C4
:103E6000104300206572726F722065726173652065
:103E7000626C6F636B3A25640D0A00006261642016
:103E8000626C6F636B20636865636B65643A25647D
:103E90000D0A000038B50446104D00208DF80000D2
:103EA000A879012360436A4600210DF0C7F89DF808
:103EB0000000FF2801D0022038BDA879012360430B
:103EC0006A460021401C0DF0B9F89DF80000FF285B
:103ED00001D0012038BD002038BD00001043002073
:103EE0002DE9F84F91462F4A8A461D469179B0FB3D
:103EF000F1F3B0FBF1F801FB130B404600F0B8F80A
:103F0000284907464889B84202D20120BDE8F88F07
:103F1000002428E05C4516D3ADB14A88A2EB0A0123
:103F2000A94201D28EB200E0AEB207FB004108FB0D
:103F300000404B46524600960CF0F8FC4FF0000A49
:103F4000B144AD1B05E007FB004108FB00400CF04D
:103F5000BFFD30B13846FFF71DFF012000F024F807
:103F6000CBE7641CA4B20F498879A042D2D80D4691
:103F7000A879A04214D1384600F028FA40460CF047
:103F80004DFE00206A89696908E031F81040444517
:103F900002D121F8107003E0401C80B28242F4D8B4
:103FA0000020B3E710430020F8B506460021294D54
:103FB0004FF6FF7003E06A6922F81100491C6A8914
:103FC0008A42F8D80020A88104461CE0A87904237E
:103FD00060436A4600210DF031F89DF80000FF288B
:103FE0000CD1B6B1A879012360436A460021401C78
:103FF0000DF024F89DF80000FF280AD0214616A0F5
:10400000FCF722FA641C6989A142DFD800206A69A2
:1040100016E09DF802009DF8031000EB012069896D
:10402000814202D9696921F81040A889401CA88101
:10403000E8E732F810308B4201D3E88102E0401CFF
:104040008142F6D8E889642801D20220F8BD002018
:10405000F8BD00001043002062616420626C6F6351
:104060006B20696E6465783A25640D0A00000000D3
:1040700070B5104E104C71892268491E914200D2D1
:10408000216000F001052946206800F017F8411C66
:104090000AD170892168401E884207D929462060CC
:1040A00000F00CF8411C01D0206070BD4FF0FF30D3
:1040B00070BD00001043002074000020F8B50D46CC
:1040C0000021401C0091040012D00C4F012626EA6A
:1040D0000400A8420AD1B879611E484304236A4605
:1040E00000210CF0ABFF0098401C04D0641EEED100
:1040F0004FF0FF30F8BD601EF8BD000010430020F7
:10410000F8B5254E00273C46B78113E02046FFF75F
:10411000C1FE70B920460CF081FD38B121461FA0C8
:10412000FCF792F92046FFF735FE02E0B089401C0B
:10413000B081641C7089A042E8D8B1891BA0FCF74B
:1041400083F9B089642801D20120F8BDC0EB40108A
:10415000642100EB4000B0FBF1F50024009710E073
:104160002046FFF797FE58B9B079022360436A46AC
:1041700019460DF0ADF80098401C0090A84203D0FD
:10418000641C7089A042EBD80120FFF70DFF0028C6
:10419000DBD00220F8BD0000104300204261642003
:1041A000626C6F636B3A25640D0A0000676F6F6481
:1041B0005F626C6F636B6E756D3A25640D0A00006B
:1041C00010B50CF055FD00BB184C616911B1002011
:1041D0002AF0B0FB6089410000202AF0B7FB606143
:1041E00061894900FCF708FC606970B10120FFF7A4
:1041F000DBFE60B10EA0FCF727F9FFF781FF90B15D
:1042000011A0FCF721F9022010BD012010BD618929
:1042100012A0FCF719F9A18916A0FCF715F9E1899C
:1042200019A0FCF711F9002010BD00001043002078
:10423000666F726D6174206E616E6420666C61736E
:10424000682E2E2E0D0A0000666F726D6174206656
:1042500061696C6564210D0A00000000746F74616F
:104260006C20626C6F636B206E756D3A25640D0A6D
:1042700000000000676F6F6420626C6F636B206EDC
:10428000756D3A25640D0A0076616C696420626C74
:104290006F636B206E756D3A25640D0A0000000097
:1042A0000549CA89824202D24FF6FF7070474969B8
:1042B00031F8100070470000104300202DE9FF5F27
:1042C0009B4615468246002679E03F4C6088B0FB4D
:1042D000F5F1A079414301988319B3FBF1F0FFF7A1
:1042E000DFFF6189814203D8012004B0BDE8F09F5F
:1042F000354C6188A479B1FBF5F26243B3FBF2F768
:1043000002FB17326A43B2FBF1F300FB0437B2FB46
:10431000F1F001FB1028A1EB0800B0FBF5F084B22E
:10432000ABEB0600A04200D284B204FB05F91FFAF1
:1043300089F31FFA88F1524638460CF02DFD032808
:1043400009D11FFA89F31FFA88F1524638460CF05A
:1043500023FD032804D004282ED068B30220C4E72C
:104360004B461FFA88F152463846FFF7B9FDDFF891
:1043700058804FF0FF3198F80600B7FBF0F0FFF7D8
:1043800021FD80B998F806000021B7FBF0F0FFF797
:1043900019FD814698F80600B7FBF0F00CF03EFCE2
:1043A000B9F1000F08D098F80600B7FBF0F0FFF75E
:1043B000F1FC0120FFF7F8FD05FB04AA26445E4549
:1043C00083D3002091E700001043002008B5CC21E2
:1043D0008DF80010044901236A468979484319463B
:1043E0000CF076FF08BD0000104300202DE9FF4FC0
:1043F00085B0154600274FF0FF3B7BE0404C6088BE
:10440000A179B0FBF5F048430699CB19B3FBF0F066
:10441000FFF746FF61898046414503D8012009B076
:10442000BDE8F08F364A50889279B0FBF5F15143E0
:10443000B3FBF1F401FB143101FB05FABAFBF0F315
:1044400008FB0231BAFBF0F200FB12A9A0EB090055
:1044500080B2B0FBF5F002910899ADF80400C91BD9
:104460008CB20391844200D3044601A804FB05F6F4
:1044700000901FFA89F1C6F38F034FF0FF320298C4
:104480000CF0A8FD08B10220C9E7BDF80400B0EBAC
:10449000960F0FD1B3B21FFA89F1059A02980CF06A
:1044A00047FE38B94146C34520D00846FFF78EFF86
:1044B000C346D8B11248817940884143A1EB0A0034
:1044C000B0FBF5F0039980B28CB2ADF804008442E1
:1044D00000D3044604FB05F61FFA89F13346059A1A
:1044E0000298FFF7FDFC08B1032098E705982744E0
:1044F000304405900898874280D300208FE7000061
:104500001043002010B504460A2812D00D2C14D0F8
:1045100002F0D0FB09480068C0690168204688475E
:104520000748016809B120468847BDE8104004F0FB
:104530002DB8BDE8104001F07DBA10BD7804002010
:10454000A40400202DE9F0430446C56887B09046D6
:104550008946002003F07EFA064625B1287910B17D
:1045600046F0020001E026F0020003F073FA206931
:10457000012558B1D4E902128DE82600039563881D
:104580002288046841464846A0471EE0124F134B5C
:10459000214638681B68427CE068984730B9E0885B
:1045A000012801D0002001E03868806BA288E388F0
:1045B000A1680095CDE90410CDE902320195638828
:1045C00022884146484608F069FB07B03046BDE8FE
:1045D000F04303F03FBA000078040020700400208C
:1045E00010B5002003F01AFA6FF07F4003F021FAB3
:1045F000012003F081FB002003F08CFB002003F07E
:1046000099FB002003F026FA0448006803F02EFA14
:10461000BDE81040002003F07FBA000074040020C1
:1046200070B500F08DF8164D4FF4807400222146CD
:10463000284605F08FF9134E00228021304605F000
:1046400089F91E2027F0A0FD01222146284605F009
:1046500081F900228021304605F07CF91E2027F0E8
:1046600093FD00228021304605F074F91E2027F0CA
:104670008BFD3046BDE870400122802105F06AB90B
:1046800000200240001C02400B4800B5026887B0C1
:10469000002142F080020260006800F08000059076
:1046A0008020CDE900010320CDE9021069460348CE
:1046B00005F062F807B000BD30380240001C02402F
:1046C00008B5FDF795F9FFF7ABFF00F05DF90322A0
:1046D000694648F2401000F065F800208DF80300AC
:1046E00069460FA0FBF7B0FE10A16846FCF7CEF9B3
:1046F00008B1012008BD0122694648F2470000F0D8
:1047000051F89DF800100AA0FBF79EFEFFF7BCFFD2
:1047100000F03AF9C82027F037FD002008BD00005E
:104720004354502049443A25730D0A003931310071
:10473000435450205665723A2532780D0A00000025
:1047400070B5154886B00025016841F08001016010
:10475000016801F080010591016841F480710160F8
:104760000068012600F4807005904FF480700324E7
:10477000CDE90006CDE902546946084804F0FCFF83
:104780008020CDE90006CDE902546946044804F0D2
:10479000F3FF06B070BD0000303802400020024038
:1047A000001C024070B515460E460446FDF7ECF9B4
:1047B000BA20FDF7B3F9FDF733FA200AFDF7AEF999
:1047C000FDF72EFAE0B2FDF7A9F9FDF729FAFDF79A
:1047D00001FAFDF7D9F9BB20FDF7A0F9FDF720FAA2
:1047E00000246D1E05E00120FDF75CF93055641CC6
:1047F000E4B2AC42F7DB0020FDF754F93055BDE8D8
:104800007040FDF7E7B90000F1B582B0002448F22E
:104810004E152646012202A92846FFF7C3FF9DF840
:10482000080001060BD500F00F00062807D2002073
:104830008DF80400012201A9284600F0B0F89DF887
:1048400008004D4D010776D000F00F0106297CD2FB
:10485000FF2088408DF80400C04395F8207040F098
:10486000C00085F82000A889A882E88AE88301268C
:1048700095F8200006FA04F1084227D03F480422A8
:10488000694630F81400FFF78DFF95F830009DF869
:104890000110C0079DF8000000EB012105EB44006A
:1048A00008D081819DF802109DF8032001EB0221C0
:1048B000C1820BE0C1829DF803209DF802106FF4C5
:1048C000EF7303EB0222114449428181641CE4B27C
:1048D000052CCDD3A989F6EE090A00EE101A284658
:1048E000284BB8EE400A012620EE200ADFED240A0C
:1048F000BCEEC00A10EE101A8AB2AA81E98A00EE54
:10490000101AB8EE400A20EE200ABCEEC00A10EEE3
:10491000101A89B2C1821C88A24202D85A889142D8
:1049200013D99DF8081001F00F01012904D9C1899C
:104930008181018BE98208E0818A8181C18BC182FA
:1049400080218DF8081085F820709DF8080000F08F
:104950008F0080280ED195F82000010602D520F0A6
:10496000800005E04FF6FF71A981E98200F0E000C8
:1049700085F820003046FEBD3C000020E04E0308D4
:10498000CDCC4C3F2C2F002008B501208DF8000025
:104990000246694648F2400000F001F808BD70B5D3
:1049A00015460E460446FDF7EFF8BA20FDF7B6F8B7
:1049B000FDF736F9200AFDF7B1F8FDF731F9E0B25D
:1049C000FDF7ACF8FDF72CF9002406E0305DFDF7AB
:1049D000A5F8FDF725F9641CE4B2AC42F6D3BDE8B6
:1049E0007040FDF7F7B80000014AC2E900017047C6
:1049F00024040020014AC2E9000170472C04002071
:104A0000014AC2E90001704734040020014AC2E9AA
:104A1000000170472C0500202DE9F04FDFF828B188
:104A200091B04FF0FF35DBF80030B3F9221006915A
:104A3000DE69B3F92490F469A189814206D8E2893C
:104A4000824203D3471AD4F8008012E0D4E90181EE
:104A500000296FD00A8882426CD84D88854269D37C
:104A6000801A82B2486800EB8200B0F90070B0F999
:104A70000250781C5ED0307EA17C10FB01FA217CB4
:104A8000CDE90701B3F92A60304609F09BFAC0B2BC
:104A90000E90DBF8000007FB0A81A37C826B0127E4
:104AA000CDE90412CDE90273C069089AC17E807E07
:104AB000CDE90001DDE90603494608F0EFF8681C7E
:104AC00018D046F0020009F07DFADBF80000A37C64
:104AD00005FB0A81826BCDE90273CDE90412C0693E
:104AE000089AC17E807ECDE90001DDE906034946D2
:104AF00008F0D4F8DBF800005D46C069417E007E16
:104B0000814214D9022E12D086F0040009F05AFA1C
:104B10002868C069027EC37E12FB0391437E857EB6
:104B2000089A06984B4412FB050208F03FFC0E98C9
:104B300009F048FADBF80000627C418C11444184A2
:104B400011B0BDE8F08F0000780400200448006830
:104B5000C069C06909B1027C0A60407C70470000EE
:104B600078040020022008807047C06982898A4248
:104B700002D8C2898A4210D2806880B102888A42F3
:104B80000DD843888B420AD3406800EB8100A0EB2C
:104B90008200B0F90000002801DB012070470020EE
:104BA000704700002DE9F043304C034687B0206881
:104BB0001946B0F92A60C069C06900F00BF90028F5
:104BC00050D041680088181A01EBC0053046AF7814
:104BD00009F0F8F9814620686A680123816BCDE904
:104BE0000237CDE90421C169CB7E8A7ECDE900235D
:104BF0000B7EB0F924102A78B0F9220008F04EF8A4
:104C00002068C069417E027E91421FD9C07E11FB9F
:104C100000F812FB00F7022E18D001F01EFB06462A
:104C200001F0E4FA02F005FF21682A78CB69B1F9B6
:104C30002200DB7E12FB0302B1F9241001EB080312
:104C4000394408F0B3FB304602F0F3FE484609F061
:104C5000B9F920686A78C369B0F922109B7E12FB0B
:104C60000311418407B0BDE8F08300007804002000
:104C700030B50F4C05460B4620682946C069C0690F
:104C800000F0A8F8002812D04168008824682A1A89
:104C90000120E46900EBC200085CA47E10FB04F074
:104CA000002B04D011F8321011FB04F1196030BD53
:104CB0007804002001200880704700B5C06900F02A
:104CC00089F8002800D0012000BD00002DE9F04344
:104CD000314D014687B02868B0F92A60C069C069C3
:104CE00006E002888A4202D842888A4205D2806859
:104CF0000028F6D107B0BDE8F0830028FAD0446858
:104D000001F0C2FAA778304609F05CF981462868BC
:104D1000224A0123816BCDE90237CDE90421C16923
:104D2000CB7E8A7ECDE900230B7EB0F92410227859
:104D3000B0F9220007F0B2FF2868C069417E027E08
:104D400091421CD9C07E11FB00F812FB00F7022E25
:104D500015D001F082FA064601F048FA02F069FE29
:104D600029682278B1F92200B1F92410024401EB3C
:104D70000803394408F01AFB304602F05AFE484650
:104D800009F020F928686278C369B0F922109B7E87
:104D900012FB03114184ADE778040020E0F5012007
:104DA0000B490968CA69D16906E00B88834202D8B9
:104DB0004B88834203D289680029F6D106E029B1E5
:104DC0004868917E007810FB01F070470020704722
:104DD0007804002006E002888A4202D842888A428B
:104DE00002D280680028F6D17047000070B5002517
:104DF000124C19E020691249C5EB051600EBC600FC
:104E000070220968001DFBF7BDFD2069002140F8F4
:104E1000361000EBC60000F10C018161011D0A1D76
:104E2000C0E90F126D1C4164A0688542E2DB01F00D
:104E300041FFBDE8704003F0A9BB0000300700202F
:104E40007804002070B50F490D480860084604F04A
:104E500015FB0C4C143CA068C0EB0010C5002846A4
:104E600000F0A6F82A460021206104F080FB4FF0F4
:104E7000FF30206003F0F0FBBDE8704020F08EB9F9
:104E80004D70020844070020F8B50C0005460FD00D
:104E900001F010FF204600F017F8060010D000F0D7
:104EA00015F9224600902DB12946FBF7E4FC04E0F9
:104EB0000020F8BD002104F05AFB684600F070F9AC
:104EC00003F064FB3046F8BD10B5040009D001F0D2
:104ED000F1FE204617F0E8F9044603F057FB2046A0
:104EE00010BD002010BD38B5054601F0E3FE284690
:104EF000FFF7EAFF040009D000F0E8F82A46002195
:104F0000009004F034FB684600F04AF903F03EFBE1
:104F1000204638BD024A106021F0030050607047FF
:104F20001805022010B5040016D001F0C3FE0B488E
:104F3000406B10F8341059B1022909D2042101EB59
:104F4000C4014158486816F02DFE204623F048F968
:104F5000BDE8104003F01ABB10BD00005804022049
:104F6000002805D0034AD16B016001B14860D063CD
:104F7000704700005804022010B5044601F09AFE64
:104F80002068FFF7CFFF00202060BDE8104003F04D
:104F9000FDBA000070B50D460646002405E000BFCE
:104FA00006EB8400FFF7E8FF641CAC42F8DB70BD41
:104FB0002DE9F041044621F023F82848E41C24F0B0
:104FC0000305016C2D1DA94200D90D46C46B13E0E9
:104FD00054F8042CAA420ED184B1216809B1626848
:104FE0004A60616809B122680A60C26BA24231D18D
:104FF0002168C1632EE02468002CE9D18046816BD2
:10500000C0680F1857F8040C3E1A306838B10020F9
:1050100023F004FA57F8040C3E1A3068D0B97068CF
:10502000A84217DB3044441B3046241D23F0AEF960
:10503000D8F80C10491BC8F80C10D8F814102944E3
:10504000C8F814107068401B02D0314616F0AAFD53
:1050500044F8045C2046BDE8F081000058040220BA
:1050600010B5002420F0CCFF0C490F2001EBC0024A
:10507000526C1AB101EBC000406C08E0401EF5D53F
:1050800008E04168A14200D90C46806810B18068F0
:105090000028F6D1A4F10C0010BD00005804022035
:1050A000002138B10449042202EBC000496B0858C2
:1050B00041680C390846704758040220024881694B
:1050C000491C816170470000580402200549CA69E3
:1050D000521CCA61496B01EBC0010A78521C0A706C
:1050E00000F076B8580402207CB506460C46084607
:1050F000FFF7EAFE050020D0FEB13046FFF7D0FFF3
:10510000A04200DA044601F0D5FD2846FFF7DEFF95
:1051100000903046FFF7DAFF0146019022460098E2
:10512000FBF7A9FB684600F03BF801A800F038F84F
:105130003046FFF7F7FE03F029FA28467CBD000051
:1051400010B501F0B7FDFFF78BFF64220849B0F5F9
:10515000800F04D990FBF2F4086A444303E0096A23
:105160004143B1FBF2F403F011FA204610BD0000F8
:10517000580402200549102805D94A68B0EB520F9F
:1051800002D3500800E01020886070471805022004
:1051900002488169491E816170470000580402205D
:1051A0000A4902684B6B52F8082C03EBC2021378D1
:1051B000022B03D3CB690BB15B1ECB611178491E67
:1051C0001170002101600846704700005804022059
:1051D000002806D00349042202EBC000496B08589E
:1051E00008307047580402202DE9FC414FF00006BA
:1051F0000B465FEA000834462BD032B11146184600
:10520000FFF742FE060000D101244046FFF75EFF93
:105210000090078845686846FFF7C2FFCCB9B9001F
:105220002846091DFFF760FF050015D0FFF74EFF68
:10523000019040F8276001A8FFF7B2FF4046FFF752
:1052400045FF009045600188491C01806846FFF7D2
:10525000A7FF2046BDE8FC813046FFF763FE01242E
:10526000F7E70820FFF73FBE7CB5050023D0FFF726
:105270002DFF00904068C0B1FFF728FF0024019087
:1052800005E0019800EB8400FFF776FE641C0098AF
:105290000088A042F5DC01A8FFF782FF0098001DFE
:1052A000FFF76AFE0099002008806846FFF778FF44
:1052B0002846FFF737FE7CBD7CB50C46FFF706FF9E
:1052C00000900188A14220D94568F5B101F0F2FCB7
:1052D0002846FFF7FBFE019000EB8400FFF74CFE31
:1052E00000990888401E80B20880401E019905E0A0
:1052F00001EB8402526841F82420641C8442F7DDEB
:1053000001A8FFF74DFF03F041F96846FFF748FF9A
:105310007CBD38B5002430B1FFF7D8FE009004887A
:105320006846FFF73DFF204638BD38B50D460024DE
:1053300048B1FFF7CBFE2946009000F05BF8044629
:105340006846FFF72DFF204638BD38B50D460024CE
:1053500048B1FFF7BBFE2946009000F05DF8044617
:105360006846FFF71DFF204638BD2DE9FE439846ED
:1053700091460D460024D0B3FFF7A8FE01900788A0
:10538000466801A8FFF70CFFBD4230D27EB330461D
:10539000FFF79CFE009050F825406846FFF700FF9D
:1053A00024B12046FFF77CFE404511D04046FFF770
:1053B0009AFD04000CD03046FFF788FE00EB85050F
:1053C00000902846FFF7D8FD68462C60FFF7E8FEFE
:1053D000B9F1000F0BD054B12046FFF777FE4246DB
:1053E00049460290FBF747FA02A8FFF7D9FE20468C
:1053F000BDE8FE8338B50D4601880024A94209D9CD
:10540000406838B1FFF762FE009050F825406846CA
:10541000FFF7C6FE204638BD10B50024FFF7EAFFAF
:1054200010B1FFF753FE0446204610BD10B50446E8
:1054300001F040FC044904EB840001EB8000447956
:1054400003F0A4F8204610BD940502202DE9FC5F6E
:105450008946044601F02EFC484600F00BFF2C4E16
:1054600009EB8907824656F82700019029484FF03A
:105470000108016841B92749C0F80080091D264884
:105480000860084603F0FAFF214A09EB89015FEA48
:105490000A0002EB81051BD002F0A4FA83464FF00C
:1054A0007F4002F0BBFA00F0B9F8002211462068F4
:1054B00000F024FC206842880188504602F00EFB70
:1054C00046F8274085F80580584602F08BFA17E029
:1054D00046F8274085F805802869464618B102F04D
:1054E000B1F90020286174B10096E868A1684B46C4
:1054F000421AA8686168411A206802F0FDF9286123
:10550000484623F0C5FF03F041F80198BDE8FC9F31
:1055100094050220BC040020ED6F020870B514460B
:105520000D46064601F0C6FB204600F0A3FE030030
:10553000174804EB840109D050F8210041688068C5
:10554000711A2A1A184602F0B9FA1CE000EB81041D
:10555000A268B24201D0012200E00022E368AB421F
:1055600001D0012300E000231A430CD0236943B18A
:1055700050F82100816840686A1A311A184602F012
:1055800086F9C4E90265BDE8704002F0FFBF000083
:105590009405022002480068407C00F003B8000037
:1055A0007804002010B5044601F084FB0A4804EB9F
:1055B000840100EB810301225A7150F8210030B1BF
:1055C000204623F065FFBDE8104002F0DFBF214612
:1055D0000248FFF73BFFF6E794050220A81F0408E6
:1055E00010B5C2B2CBB2D21A00D5524293B25B43CD
:1055F000C0F30722C1F30724121B00D55242000C4E
:1056000092B2A0EB114002FB023200B2002801DA94
:10561000404200B280B200FB002010BD10B5002156
:10562000084600F0A5FF43F6FF725042BDE8104067
:1056300013460146AFF300802DE9FC411C46154698
:105640000E46074601F036FB042008F0BBFC8046FE
:105650001248C068C16C006D0F4406440D440444F8
:10566000ADF80070ADF80450ADF80260ADF806403A
:10567000684615F033FE07E023462A463146384691
:1056800007F094FE15F0DEFD0028F5D1404608F045
:1056900099FC02F07BFFBDE8FC8100006C04002057
:1056A000B0F90630B0F90420B0F90210B0F90000EA
:1056B000FFF7C2BF2DE9F8431C00DDE90898164644
:1056C0000F46054602D114F081FC044600962E6870
:1056D00043464A4621462846B047060039D014F0D2
:1056E0006AFC8146698A304613F07AFF304615F02D
:1056F00073FC484615F070FC4FF000080CE000BF4A
:10570000CDF8008055F81CCF00231A46494628469C
:10571000E04700B315F060FC7F1E002FF0DC1D2178
:10572000484615F042FA601C12D001F0C3FA14F09A
:1057300091FC30B1FFF74CFD8469B44201D02000E8
:10574000F8D1B44202D0304615F040FB02F01EFF03
:105750003046BDE8F883304614F022FB0020F8E71D
:105760002DE9F0411C4616460D460746022B02DB8A
:105770000020BDE8F0811C20FFF71AFC0028F8D0BB
:105780000DB105610AE0094A52F8241009B905E093
:1057900011460A68002AFBD1096901618461868289
:1057A000002101604160C0E90217E2E79004002097
:1057B00070B51D46FFF7D4FF040009D000F00EF8C5
:1057C000E068006820B90348006800EB8500846544
:1057D000204670BD78040020FFF7C2BB70B590B3BF
:1057E0008269022A30DA1E4C54F8221019B944F8A2
:1057F000220032E019464B68002BFBD106E0CB6853
:10580000C5681B682D68AB4203DD09680029F6D125
:105810001AE0C1B1CB68C6681B683668B3420CD1C8
:10582000838A012B05D008E01946DB681B68AB4270
:1058300003DB0B68002BF7D129B14B6833B118603B
:105840004A68426004E0FFE7012070BD44F822008E
:105850004860884200D100210160002070BD000036
:105860009004002010B503E00468FFF7B7FF20465E
:105870000028F9D110BD24F01DB900002DE9F04138
:105880000026DFF834800D4F354600BF58F825401C
:1058900009E0E0680068385C20B1204624F00AF98D
:1058A000266026462468002CF3D16D1C022DEDDB0A
:1058B0003046BDE8F081000090040020B499030850
:1058C000022801DB00207047054A52F8200004E05E
:1058D000C26812688A42F6D000680028F8D1704782
:1058E00090040020022801DB00207047054951F890
:1058F000200004E0C16809680029F6D0006800288B
:10590000F8D17047900400202DE9F8431D46164653
:10591000884604000CD0FFF7D9FB009000680768A8
:105920006846FFF73DFC2B46324641462046B847C5
:10593000BDE8F88338B504004FF000000AD02046D7
:10594000FFF7C4FB0090006845686846FFF728FC35
:105950002046A84738BD38B504004FF000000AD0F3
:105960002046FFF7B3FB0090006885686846FFF7A4
:1059700017FC2046A84738BD2DE9F041044602F047
:1059800055FE06191EE000BF00F07EFB052F00DD6E
:10599000052701F08FF911480568FFF78FFB2C00F0
:1059A00017D000BF02F0F2FD641EFBD1384602F0B2
:1059B00021FE1DB101F07EF96D1EFBD1FFF7E8FB62
:1059C00002F0E4FD02F032FE371A002FDCDCBDE805
:1059D000F081384602F00EFEF0E700003C070020A0
:1059E00010B5044601F066F92046FBF7CDFEBDE890
:1059F000104002F0CBBD000070B514460D460646BF
:105A000001F058F90548016830464D848C84FBF755
:105A1000BBFEBDE8704002F0B9BD00007804002074
:105A200070B50C46054602E02846FFF7D9FF641E14
:105A3000FAD570BD10B501F03DF900F01DFD054926
:105A400009688A8C10448884088C4884BDE810401A
:105A500002F09CBD780400202DE9FC4706005FD0D1
:105A600001F028F900F008FD3C4C81462068B0F9AF
:105A7000228000F045FD216807468A8CD01B88846F
:105A800041E000BF47F6FF71304603F08DFB8246D0
:105A90000146304603F05EFB2168054691F82C0074
:105AA00000F00300012841D002283BD000204A8C9E
:105AB000101A4884ADF800006A1E1044ADF80400C6
:105AC000888CADF80200A9F101010844ADF8060088
:105AD0006A465146304602F0CBFF2168BDF802000D
